:020000040000FA
:0600000038EF09F01200C8
:020006001200E6
:060008006FEF03F012008F
:02000E00D0829E
:04001000D08012008A
:06001800C0EF03F012002E
:02001E000300DD
:100020001F130000850000001C00000018130000D2
:10003000AB0000000700000008130000F001000002
:0400400010000000AC
:0C0044009EAA02D0010E02D0000E00D0D7
:100050001200D9CFE6FFE1CFD9FFE652AE50DF6EF6
:10006000DF5000D0E552E552E7CFD9FF1200D9CFDB
:10007000E6FFE1CFD9FFFE0EDBCFE6FFFAEC06F09C
:10008000E552E552E7CFD9FF1200D9CFE6FFE1CF25
:10009000D9FFFD0EDBCFF6FFFE0EDBCFF7FF08002A
:1000A000F550E66EE4DFE552FD0EDB2ADBCFF6FF0E
:1000B000FE0E01E3DB2ADBCFF7FF0800F550E9E194
:1000C000E552E7CFD9FF1200D9CFE6FFE1CFD9FF44
:1000D000020EE126DE52800EDD6EF90EE66E100E87
:1000E000E66ED3DFE552E552DF6A080EDF5C1AE206
:1000F000010EDBCFE6FFFE0EDB50E552E71405E014
:10010000310EE66EB4DFE55204D0300EE66EAFDF9E
:10011000E552010EDBCFF3FFF390F342F3CFDBFFA9
:10012000DF2AE3D7020EE15C02E2E16AE552E16E0A
:10013000E552E7CFD9FF1200D9CFE6FFE1CFD9FFD3
:10014000030EE126010EDB6A800EF36E020EF3CF82
:10015000DBFFF90EE66E100EE66E97DFE552E55214
:10016000DF6A100EDF5C2AE2010EDBCF12F0020E16
:10017000DBCF13F0FD0EDB501214106EFE0EDB50C1
:100180001314116E1050111005E0310EE66E6FDF82
:10019000E55204D0300EE66E6ADFE552D950010F09
:1001A000E96EDACFEAFF010E0F0B06E0EC52D890B1
:1001B000ED32EF32E806FAE1DF2AD3D7030EE15C35
:1001C00002E2E16AE552E16EE552E7CFD9FF1200A3
:1001D000D9CFE6FFE1CFD9FFE652FE0EDB50DF6E4E
:1001E000640E106E10C00CF0DFCF07F046EC09F083
:1001F00007500DE0640E106E10C00CF0DFCF07F05A
:1002000046EC09F00750300FE66E31DFE552640E20
:10021000106E10C00CF0DFCF07F046EC09F007506D
:10022000640DF350DF5CDF6E0A0E106E10C00CF030
:10023000DFCF07F046EC09F007500DE00A0E106E14
:1002400010C00CF0DFCF07F046EC09F00750300F7C
:10025000E66E0DDFE5520A0E106E10C00CF0DFCF17
:1002600007F046EC09F007500A0DF350DF5CDF6E33
:10027000300EDF24E66EFBDEE552E552E552E7CFB5
:10028000D9FF1200D9CFE6FFE1CFD9FF020EE12658
:10029000FD0EDBCFDEFFDBCFDDFFDECF10F0DDCFED
:1002A00011F0100E0B6E270E0C6E10C006F011C070
:1002B00007F010EC09F006C010F007C011F0105064
:1002C000111017E0DECF10F0DDCF11F0100E0B6E25
:1002D000270E0C6E10C006F011C007F010EC09F0EC
:1002E00006C010F007C011F0300E1024E66EBFDE1D
:1002F000E552DECF12F0DDCF13F0100E0B6E270E9D
:100300000C6E12C006F013C007F010EC09F006C026
:1003100012F007C013F0100E1302F3CF13F0270EE4
:100320001202F3501326100E1202F3CF12F0F45003
:1003300013261250DE5C106E1350DD58116E10C083
:10034000DEFF11C0DDFFDECF10F0DDCF11F0E80ED3
:100350000B6E030E0C6E10C006F011C007F010EC0F
:1003600009F006C010F007C011F01050111017E08E
:10037000DECF10F0DDCF11F0E80E0B6E030E0C6E29
:1003800010C006F011C007F010EC09F006C010F024
:1003900007C011F0300E1024E66E69DEE552DECFA4
:1003A00012F0DDCF13F0E80E0B6E030E0C6E12C0D0
:1003B00006F013C007F010EC09F006C012F007C0F9
:1003C00013F0E80E1302F3CF13F0030E1202F350F2
:1003D0001326E80E1202F3CF12F0F4501326125037
:1003E000DE5C106E1350DD58116E10C0DEFF11C0C0
:1003F000DDFFDECF10F0DDCF11F0640E0B6E0C6A66
:1004000010C006F011C007F010EC09F006C010F0A3
:1004100007C011F01050111016E0DECF10F0DDCF44
:1004200011F0640E0B6E0C6A10C006F011C007F0DC
:1004300010EC09F006C010F007C011F0300E1024C7
:10044000E66E15DEE552DECF12F0DDCF13F0640E5E
:100450000B6E0C6A12C006F013C007F010EC09F026
:1004600006C012F007C013F0640E1302F3CF13F0AE
:100470001202F3CF12F0F45013261250DE5C106E0D
:100480001350DD58116E10C0DEFF11C0DDFFDECF4E
:1004900010F0DDCF11F00A0E0B6E0C6A10C006F0E2
:1004A00011C007F010EC09F006C010F007C011F001
:1004B0001050111016E0DECF10F0DDCF11F00A0E53
:1004C0000B6E0C6A10C006F011C007F010EC09F0BA
:1004D00006C010F007C011F0300E1024E66EC7DD24
:1004E000E552DECF12F0DDCF13F00A0E0B6E0C6A70
:1004F00012C006F013C007F010EC09F006C012F0AD
:1005000007C013F00A0E1302F3CF13F01202F3CF59
:1005100012F0F45013261250DE5C106E1350DD58AA
:10052000116E10C0DEFF11C0DDFFDECF10F0DDCF99
:1005300011F0300E1024E66E9ADDE552020EE15CF9
:1005400002E2E16AE552E16EE552E7CFD9FF12001F
:10055000D9CFE6FFE1CFD9FF020EE126F60EE66E17
:10056000100EE66E92DDE552E552FE0EDB380F0B03
:100570000F0BDE6EDD6ADECFE9FFDDCFEAFFF00EA6
:10058000E926010EEA22EF50E66E71DDE552FE0E1D
:10059000DB500F0BDE6EDD6ADECFE9FFDDCFEAFF59
:1005A000F00EE926010EEA22EF50E66E60DDE5521C
:1005B000020EE15C02E2E16AE552E16EE552E7CF4C
:1005C000D9FF1200D9CFE6FFE1CFD9FF020EE12615
:1005D000F60EE66E100EE66E58DDE552E552FD0EA3
:1005E000DBCF10F0FE0EDBCF11F01138116A0F0BCC
:1005F000106E0F0E1016000E111610C0DEFF11C087
:10060000DDFFDECFE9FFDDCFEAFFF00EE926010EC8
:10061000EA22EF50E66E2BDDE552FD0EDBCF10F047
:10062000FE0EDBCF11F011C010F0116A0F0E101684
:10063000000E111610C0DEFF11C0DDFFDECFE9FF96
:10064000DDCFEAFFF00EE926010EEA22EF50E66E5A
:100650000EDDE552FD0EDBCF10F0FE0EDBCF11F00C
:10066000040ED89011321032E804FBE10F0E101680
:10067000000E111610C0DEFF11C0DDFFDECFE9FF56
:10068000DDCFEAFFF00EE926010EEA22EF50E66E1A
:10069000EEDCE5520F0EE76EFD0EDBCF10F0FE0E26
:1006A000DBCF11F0E7501016116A10C0DEFF11C049
:1006B000DDFFDECFE9FFDDCFEAFFF00EE926010E18
:1006C000EA22EF50E66ED3DCE552020EE15C02E274
:0E06D000E16AE552E16EE552E7CFD9FF120074
:0206DE00DACF71
:1006E000E4FFE2CFDAFFE9CFE4FFEACFE4FFF6CFA1
:1006F000E4FFF7CFE4FFF5CFE4FFF3CFE4FFF4CF5F
:10070000E4FFFACFE4FF00EE00F0100EE80403E38C
:10071000EECFE4FFFBD700EE10F0040EE80403E395
:10072000EECFE4FFFBD7E6529E50100B03E19E5044
:10073000200B02E080EC06F0E55200EE13F0040E10
:10074000E80403E3E5CFEDFFFBD700EE0FF0100E5A
:10075000E80403E3E5CFEDFFFBD7E5CFFAFFE5CFF4
:10076000F4FFE5CFF3FFE5CFF5FFE5CFF7FFE5CFEA
:10077000F6FFE5CFEAFFE5CFE9FFE5CFDAFF1100AD
:10078000D8CFE4FFE0CFE4FFE46EDACFE4FFE2CFBE
:10079000DAFFE652E552E5CFDAFFE550E5CFE0FFBC
:1007A000E5CFD8FF10000001826B836B3FD9E3ECEB
:1007B00007F072EC06F092880F0EC16E100EE66E16
:1007C000DDEC08F0E552630EE66EF9EC08F0E55258
:1007D00054EC09F0000909E0E60EE66E100EE66E34
:1007E00045EC00F0E552E5522FD026EC09F0000967
:1007F00009E0D50EE66E100EE66E45EC00F0E5520F
:10080000E55222D060EC09F0000909E0C50EE66E61
:10081000100EE66E45EC00F0E552E55215D07EEC88
:1008200009F0000909E0B50EE66E100EE66E45EC23
:1008300000F0E552E55208D0AB0EE66E100EE66E03
:1008400045EC00F0E552E55207EC00F0E7EC06F06D
:10085000000901E0B4D000019BA114D0840EE66E23
:10086000000EE66E68EC07F0E552E55200019D517E
:10087000EA6A620FE96E000EEA2284C0EFFF00010F
:100880009D2B0CD000019B81840EE66E000EE66E5F
:1008900068EC07F0E552E55284C09CF000019C51E1
:1008A000600A01E183D0520A64E0030A07E0010A0A
:1008B00001E081D0FF0000019B9180D0030E000178
:1008C0009D5D05E10001645100019E6F9F6B000179
:1008D0009E1D01E19F1D4CE000019D51106E116AAB
:1008E000030E0001136A9E25126E9F5113221250AF
:1008F000101802E1135011183BE162C083F063C08D
:1009000082F00001A06B0001A051106E116A00017D
:1009100011509F19E8AE02D09F3504D09E51105C53
:100920009F5111581AE2030E0001A025EA6A620FD6
:10093000E96E000EEA22EF50E66E82C0E6FF83C049
:10094000E6FF23EC08F0E552E552E5520001822B68
:10095000000E83230001A02BD6D700019E699F695A
:100960000001826B836B62D800019B9100019D6B3B
:1009700025D0020E00019D5D18E1A80EE66E100E56
:10098000E66E45EC00F0E552E55282C0E6FF83C01A
:10099000E6FF7EEC08F0E552E552E66E37EC00F03B
:1009A000E55200019B9100019D6B08D000019B83E3
:1009B00000019B9103D000019B9100D047D700011B
:1009C0009BA303D034D800019B9380A82AD00001B8
:1009D000915100018F1904E1000192510001901919
:1009E00012E1700EE66E37EC00F0E552A50EE66EF1
:1009F000100EE66E45EC00F0E552E55200018F2B3B
:100A0000000E90230DD00001915100018F5D000177
:100A100092510001905904E200018F2B000E9023A7
:100A200003D000018F6B906B11D7120012000001F0
:100A30008D6B8E6B92908090070EE66E6CEC09F0D9
:100A4000E5528080100EE66E6CEC09F0E552809065
:100A5000928080A0FED7000EE66EE66AC1EC08F038
:100A6000E552E55280B0FED7A2EC08F0F3CF85F056
:100A7000F4CF86F085C006F086C007F093C00BF077
:100A800094C00CF010EC09F006C010F007C011F093
:100A90008DC0E9FF8EC0EAFFD890E936EA36870EAE
:100AA000E926000EEA2210C0EEFF11C0EDFF0001A2
:100AB0008D2B000E8E2392928092070EE66E6CECC8
:100AC00009F0E5528082100EE66E6CEC09F0E552FA
:100AD0008092928280A2FED7000EE66EE66AC1EC9A
:100AE00008F0E552E55280B2FED7A2EC08F0F3CF51
:100AF00085F0F4CF86F085C006F086C007F093C07D
:100B00000BF094C00CF010EC09F006C010F007C018
:100B100011F08DC0E9FF8EC0EAFFD890E936EA36C1
:100B2000870EE926000EEA2210C0EEFF11C0EDFF8D
:100B300000018D2B000E8E2392948094070EE66E9A
:100B40006CEC09F0E5528084100EE66E6CEC09F056
:100B5000E5528094928480A4FED7000EE66EE66A89
:100B6000C1EC08F0E552E55280B4FED7A2EC08F0E3
:100B7000F3CF85F0F4CF86F085C006F086C007F08D
:100B800093C00BF094C00CF010EC09F006C010F00C
:100B900007C011F08DC0E9FF8EC0EAFFD890E9369A
:100BA000EA36870EE926000EEA2210C0EEFF11C0D9
:100BB000EDFF200EE66E37EC00F0E55287C0E6FF51
:100BC00088C0E6FF42EC01F0E552E552200EE66EE9
:100BD00037EC00F0E55289C0E6FF8AC0E6FF42EC40
:100BE00001F0E552E552200EE66E37EC00F0E552DA
:100BF0008BC0E6FF8CC0E6FF42EC01F0E552E55207
:100C0000A20EE66E100EE66E45EC00F0E552E552DF
:100C100000018751995D88519A590EE2710EE66E76
:100C200037EC00F0E552A20EE66E100EE66E45ECD3
:100C300000F0E552E55255D09751895D98518A5997
:100C400013E295518B5D96518C590EE2740EE66E4F
:100C500037EC00F0E552A20EE66E100EE66E45ECA3
:100C600000F0E552E5523DD09751895D98518A597F
:100C700013E28B51955D8C5196590EE2730EE66E20
:100C800037EC00F0E552A20EE66E100EE66E45EC73
:100C900000F0E552E55225D08951975D8A51985967
:100CA00013E28B51955D8C5196590EE2720EE66EF1
:100CB00037EC00F0E552A20EE66E100EE66E45EC43
:100CC00000F0E552E5520DD0750EE66E37EC00F0FF
:100CD000E552A20EE66E100EE66E45EC00F0E5520F
:040CE000E5521200C7
:0C0CE4000001AB6BAC6BAD6BAE6BAF6B8B
:100CF000B06BB191B183B195B187B199B19B12003D
:100D0000D9CFE6FFE1CFD9FFE6529D50100B01E0AD
:100D1000010E106E9E50100B01E0010E101419E030
:100D20000001B1B314D0AC51EA6A000FE96E010EB4
:100D3000EA22EF50AD6EB1B1B191AB07AB5101E119
:100D4000B183AC2B780EAC5D01E1AC6B01D09D980A
:100D500032D09D50200B01E0010E106E9E50200BF2
:100D600001E0010E101427E0ABA403D0AE50DF6EFB
:100D700022D0ABA205D0AB98AB88AE50DF6E1BD0B3
:100D80000001B1A503D0AE50DF6E15D0B1B513D0C0
:100D9000B197B051EA6A780FE96E010EEA22AECF40
:100DA000EFFFAE2B780EAE5D01E1B185B02B780E72
:100DB000B05D01E1B06BE552E552E7CFD9FF12001B
:100DC0000001B151020B01E0010E00D01200000140
:100DD000B151080B01E0010E00D012000001B15129
:100DE000010B00D012000001B151040B01E0010E13
:100DF00000D01200D9CFE6FFE1CFD9FF0001B1B199
:100E000016D09D98AD51EA6A000FE96E010EEA22F4
:100E1000FE0EDBCFEFFFAB2BB193780EAB5D01E1A4
:100E2000B181AD2B780EAD5D01E1AD6B9D88E552D2
:100E3000E7CFD9FF1200D9CFE6FFE1CFD9FF0001FC
:100E4000B1B516D09D9AB051EA6A780FE96E010EDD
:100E5000EA22FE0EDBCFEFFFAE2BB197780EAE5D30
:100E600001E1B185B02B780EB05D01E1B06B9D8AD8
:100E7000E552E7CFD9FF1200D9CFE6FFE1CFD9FF86
:100E80000001B1A302D0000E1FD09D98B191AC51CA
:100E9000EA6A000FE96E010EEA22EF50E66EFD0EDF
:100EA000DBCFE9FFFE0EDBCFEAFFE552E750EF6E46
:100EB000AB07AB5101E1B183AC2B780EAC5D01E126
:100EC000AC6B9D88010E00D0E552E7CFD9FF120030
:100ED000D9CFE6FFE1CFD9FF0001B1A702D0000EC4
:100EE0001FD09D9AB195AF51EA6A780FE96E010E55
:100EF000EA22EF50E66EFD0EDBCFE9FFFE0EDBCF00
:100F0000EAFFE552E750EF6EAE07AE5101E1B1875F
:100F1000AF2B780EAF5D01E1AF6B9D8A010E00D063
:080F2000E552E7CFD9FF1200F2
:080F28001E0EF66E000EF76EBE
:100F3000000EF86E00010900F550A66F0900F5508B
:100F4000A76F03E1A66701D03DD00900F550A16F5E
:100F50000900F550A26F0900F550A36F09000900C0
:100F6000F550E96E0900F550EA6E09000900090024
:100F7000F550A46F0900F550A56F09000900F6CFE0
:100F8000A8F0F7CFA9F0F8CFAAF0A1C0F6FFA2C051
:100F9000F7FFA3C0F8FF0001A45302E1A55307E047
:100FA0000900F550EE6EA407F8E2A507F9D7A8C02E
:100FB000F6FFA9C0F7FFAAC0F8FF0001A607000EC0
:060FC000A75BBFD7120081
:0A0FC60009D80BD80ED8936A010E6B
:100FD0008A6EF36EF46A00D01200700ED36E1200A7
:100FE000D08EF28CF28E1200D9CFE6FFE1CFD9FF7E
:100FF000020EE126100EDE6EDD6AAC6AAB6AAB88CB
:10100000AC84B886AC9AAB9EDF50AF6EDECF10F0EA
:10101000DDCF11F011C010F0116A1050B06EAC8A23
:10102000AB8E949C948E9E9A9D8A9F8A9E989D8852
:101030009F88020EE15C02E2E16AE552E16EE55250
:06104000E7CFD9FF12000A
:0A104600D9CFE6FFDACFE6FFE1CFD5
:10105000D9FFE2CFDAFFFD0EDBCF11F011C010F0A7
:10106000030E1114AA6EFF0EE76EFC0EDBCF10F01C
:10107000E7501016116A1050A96EFB0EDB50A86ED7
:10108000A69EA69CA684F29E550EA76EAA0EA76EDB
:10109000A682F28EA694E552E5CFDAFFE7CFD9FF1C
:0210A00012003C
:0E10A2000D0A000A0D00302000525354204F5A
:1010B000424A0A0D00525354204F424A202D2042EA
:1010C0004F520A0D00525354204F424A202D2050B7
:1010D0004F520A0D00525354204F424A202D204DAA
:1010E000434C520A0D00525354204F424A202D20A7
:0C10F0005744540A0D00307800306200B4
:0410FC00D9CFE6FF63
:10110000DACFE6FFE1CFD9FFE2CFDAFFFD0EDBCF8A
:1011100011F011C010F0030E1114AA6EFF0EE76E4D
:10112000FC0EDBCF10F0E7501016116A1050A96EBC
:10113000A69CA69EA680A850E552E5CFDAFFE7CF91
:04114000D9FF1200C1
:0C114400D9CFE6FFDACFE6FFE1CFD9FFFC
:10115000E2CFDAFFE652E652D650DF6E010ED7CF6D
:10116000DBFFDECF10F0DDCF11F010C0F3FF11C0B8
:10117000F4FFE552E552E552E5CFDAFFE7CFD9FFBC
:0211800012005B
:0E118200D9CFE6FFDACFE6FFE1CFD9FFE2CF0B
:10119000DAFFE652E652FC0EDBCFDEFFDBCFDDFFEF
:1011A000010EDB50D76EDF50D66EE552E552E552A8
:0A11B000E5CFDAFFE7CFD9FF120008
:0611BA00D9CFE6FFDACFF9
:1011C000E6FFE1CFD9FFE2CFDAFFFD0EDB507F0B68
:1011D000D56ED76AD66AF294FD0EDBAE02D0F28AE3
:1011E00001D0F29AD58EE552E5CFDAFFE7CFD9FFED
:0211F0001200EB
:0E11F200FF0EE350156EEF0E01D0F30EE76E08
:10120000E72E00EF09F00C0E146EE76AE72E06EFEA
:1012100009F0142E05EF09F0152EFEEF08F012006C
:10122000036A026A100EE76ED89006360736023659
:1012300003360B50025C0C50035805E30B50025E62
:0C1240000C50035A062AE72EF0D71200CB
:04124C00D0A20FD04D
:10125000D0A40CD0D0A009D0D0A6000CD0A8000CEF
:10126000FCBE000CFCBC000C010C000C000C000CC3
:101270001CEE00F02CEE00F0F86A0F9C94EC07F0E6
:0C12800003EC00F0D3EC03F0FBD71200ED
:04128C00036A080EDB
:10129000E76ED890073603360C50035C02E3036E0A
:0812A000072AE72EF7D7120020
:0812A800D0A209D0D0A406D0A9
:1012B000D0A003D0D0B6000C010C000C000C000C28
:1012C000D0B209D0D0A406D0D0B003D0D0A6000CA4
:0812D000010C000C000C000CE5
:0812D800FF0EE350E84E120086
:0E12E000000000D000D000D0E82EFAD7120097
:0212EE0000EE10
:0C12F00000F00D0EEE6AEA62FDD712005D
:0412FC00D0B003D09B
:08130000D0A2000C010C000C4E
:08130800303132333435363741
:081310003839414243444546CF
:071318000000000000000AC4
:01131F0000CD
:10132000003200320032000000000014003A000ECB
:0B133000000E000A00000000FFFF009C
:020000040030CA
:0100010008F6
:010003001EDE
:010005008278
:00000001FF
