:020000040000FA
:0600000079EF09F0120087
:020006001200E6
:0600080022EF00F01200DF
:02000E00C250DE
:08001000020B01E0010E1200D9
:0600180073EF00F012007E
:02001E000300DD
:10002000C31300008D00000010000000BC1300008E
:10003000A700000007000000AC130000F001000062
:0400400010000000AC
:0C004400DACFE4FFE2CFDAFFE9CFE4FFFF
:10005000EACFE4FFF6CFE4FFF7CFE4FFF5CFE4FF0C
:10006000F3CFE4FFF4CFE4FFFACFE4FF00EE00F0BB
:10007000100EE80403E3EECFE4FFFBD700EE10F030
:10008000040EE80403E3EECFE4FFFBD7E6529E50F4
:10009000100B03E19E50200B02E078EC06F0E552D5
:1000A00000EE13F0040EE80403E3E5CFEDFFFBD709
:1000B00000EE0FF0100EE80403E3E5CFEDFFFBD7F1
:1000C000E5CFFAFFE5CFF4FFE5CFF3FFE5CFF5FF8E
:1000D000E5CFF7FFE5CFF6FFE5CFEAFFE5CFE9FF94
:1000E000E5CFDAFF1100D8CFE4FFE0CFE4FFE46E04
:1000F000DACFE4FFE2CFDAFFE652E552E5CFDAFFEE
:10010000E550E5CFE0FFE5CFD8FF100000018A6B96
:100110008B6B5AD98CEC07F06AEC06F09288100EC3
:10012000E66E1EEC09F0E552630EE66E3AEC09F05D
:10013000E55295EC09F0000909E0680EE66E110E33
:10014000E66E92EC03F0E552E5522FD067EC09F031
:10015000000909E0570EE66E110EE66E92EC03F010
:10016000E552E55222D0A1EC09F0000909E0470E62
:10017000E66E110EE66E92EC03F0E552E55215D0F4
:10018000C8EC09F0000909E0370EE66E110EE66EC4
:1001900092EC03F0E552E55208D02D0EE66E110EFA
:1001A000E66E92EC03F0E552E552CEEC09F0DFEC9E
:1001B00006F0000901E0D1D0000197A114D08C0E07
:1001C000E66E000EE66E60EC07F0E552E5520001C7
:1001D0009951EA6A6A0FE96E000EEA228CC0EFFFBD
:1001E0000001992B0CD0000197818C0EE66E000E59
:1001F000E66E60EC07F0E552E5528CC098F0000125
:100200009851600A01E1A0D0520A66E0030A07E0B3
:10021000010A01E09ED0FF00000197919DD0030EDE
:100220000001995D05E100016C5100019A6F9B6B23
:1002300000019A1D01E19B1D4EE000019951106ED5
:10024000116A030E0001136A9A25126E9B51132244
:100250001250101802E1135011183DE16AC08BF0E2
:100260006BC08AF000019C6B00019C51106E116AFA
:10027000000111509B19E8AE02D09B3504D09A5171
:10028000105C9B5111581CE2030E00019C25EA6A88
:100290006A0FE96E000EEA22EF50E66E8AC0E6FFB2
:1002A0008BC0E6FF64EC08F0E552E552E552D1EC74
:1002B00009F000018A2B000E8B2300019C2BD4D760
:1002C00000019A699B6900018A6B8B6B7DD80001E4
:1002D00097910001996B40D0020E0001995D2BE1CE
:1002E0006AC08BF06BC08AF08AC0E6FF8BC0E6FF65
:1002F000BFEC08F0E552E55200019C6F2A0EE66E55
:10030000110EE66E92EC03F0E552E5529CC0E6FF5A
:10031000A3EC05F0E552270EE66E110EE66E92ECA8
:1003200003F0E552E55200018A6B8B6B0001979157
:100330000001996B08D000019951020804E2000104
:1003400097910001996B08D0000197830001979164
:1003500003D00001979100D02AD7000197A303D0C2
:10036000B8D80001979380A82AD0000162510001FB
:10037000951904E1000163510001961912E1700E14
:10038000E66E84EC03F0E552270EE66E110EE66E83
:1003900092EC03F0E552E5520001952B000E9623F6
:1003A0000DD0000162510001955D00016351000113
:1003B000965904E20001952B000E962303D000010C
:1003C000956B966BF4D61200000EE66EE66ABFECF3
:1003D00008F0E552E552106E10C011F0106A10C01E
:1003E000E6FF11C0E6FF010EE66EE66ABFEC08F01C
:1003F000E552E552E552E7CF11F0E552E7CF10F0B4
:1004000000011010626F11C063F0020EE66EE66A22
:10041000BFEC08F0E552E552106E10C011F0106A02
:1004200010C0E6FF11C0E6FF030EE66EE66ABFEC01
:1004300008F0E552E552E552E7CF11F0E552E7CF7B
:1004400010F000011010646F11C065F0040EE66E2C
:10045000E66ABFEC08F0E552E552106E10C011F0EC
:10046000106A10C0E6FF11C0E6FF050EE66EE66AF0
:10047000BFEC08F0E552E552E552E7CF11F0E55246
:10048000E7CF10F000011010666F11C067F0060E84
:10049000E66EE66ABFEC08F0E552E552106E10C059
:1004A00011F0106A10C0E6FF11C0E6FF070EE66EFD
:1004B000E66ABFEC08F0E552E552E552E7CF11F0ED
:1004C000E552E7CF10F000011010686F11C069F01D
:1004D000120092928092070EE66EADEC09F0E552A2
:1004E0008082100EE66EADEC09F0E55280929282A9
:1004F00080A2FED7000EE66EE66A02EC09F0E55235
:10050000E55280B2FED7E3EC08F0F3CF8DF0F4CFE4
:100510008EF08DC08FF08EC090F0D4EC09F007EC17
:1005200000F0000901E0FBD7B8EC09F0F3CF91F03F
:10053000F4CF92F00001665100018F5D0001675118
:100540000001905931E2000168510001915D000104
:1005500069510001925928E2730EE66E84EC03F0B3
:10056000E552200EE66E84EC03F0E5528FC0E6FF04
:1005700090C0E6FF8FEC04F0E552E552200EE66EE7
:1005800084EC03F0E55291C0E6FF92C0E6FF8FECE9
:1005900004F0E552E552240EE66E110EE66E92EC82
:1005A00003F0E552E5529AD00001665100018F5DDB
:1005B000000167510001905930E291510001685DDE
:1005C000000192510001695928E2740EE66E84EC34
:1005D00003F0E552200EE66E84EC03F0E5528FC086
:1005E000E6FF90C0E6FF8FEC04F0E552E552200EE6
:1005F000E66E84EC03F0E55291C0E6FF92C0E6FFA0
:100600008FEC04F0E552E552240EE66E110EE66E14
:1006100092EC03F0E552E55261D000018F510001E8
:10062000665D000190510001675931E2000191516E
:100630000001685D000192510001695928E2720EC3
:10064000E66E84EC03F0E552200EE66E84EC03F0D7
:10065000E5528FC0E6FF90C0E6FF8FEC04F0E55254
:10066000E552200EE66E84EC03F0E55291C0E6FF01
:1006700092C0E6FF8FEC04F0E552E552240EE66EE0
:10068000110EE66E92EC03F0E552E55227D0750E9E
:10069000E66E84EC03F0E552200EE66E84EC03F087
:1006A000E5528FC0E6FF90C0E6FF8FEC04F0E55204
:1006B000E552200EE66E84EC03F0E55291C0E6FFB1
:1006C00092C0E6FF8FEC04F0E552E552240EE66E90
:0E06D000110EE66E92EC03F0E552E5521200B8
:0206DE009EAAD2
:1006E00002D0010E02D0000E00D01200D9CFE6FFDA
:1006F000E1CFD9FFE652AE50DF6EDF5000D0E552B9
:10070000E552E7CFD9FF1200D9CFE6FFE1CFD9FFFD
:10071000FE0EDBCFE6FFF2EC06F0E552E552E7CF46
:10072000D9FF1200D9CFE6FFE1CFD9FFFD0EDBCF15
:10073000F6FFFE0EDBCFF7FF0800F550E66EE4DFB4
:10074000E552FD0EDB2ADBCFF6FFFE0E01E3DB2ACE
:10075000DBCFF7FF0800F550E9E1E552E7CFD9FF1D
:100760001200D9CFE6FFE1CFD9FF020EE126DE521B
:10077000800EDD6E7B0EE66E110EE66ED3DFE55267
:10078000E552DF6A080EDF5C1AE2010EDBCFE6FFFE
:10079000FE0EDB50E552E71405E0310EE66EB4DFE5
:1007A000E55204D0300EE66EAFDFE552010EDBCF2E
:1007B000F3FFF390F342F3CFDBFFDF2AE3D7020E20
:1007C000E15C02E2E16AE552E16EE552E7CFD9FF72
:1007D0001200D9CFE6FFE1CFD9FF030EE126010ECB
:1007E000DB6A800EF36E020EF3CFDBFF7B0EE66E4C
:1007F000110EE66E97DFE552E552DF6A100EDF5C00
:100800002AE2010EDBCF12F0020EDBCF13F0FD0E59
:10081000DB501214106EFE0EDB501314116E1050CC
:10082000111005E0310EE66E6FDFE55204D0300E98
:10083000E66E6ADFE552D950010FE96EDACFEAFFC2
:10084000010E0F0B06E0EC52D890ED32EF32E806C5
:10085000FAE1DF2AD3D7030EE15C02E2E16AE55256
:10086000E16EE552E7CFD9FF1200D9CFE6FFE1CF25
:10087000D9FFE652FE0EDB50DF6E640E106E10C024
:100880000CF0DFCF07F087EC09F007500DE0640EA5
:10089000106E10C00CF0DFCF07F087EC09F00750A6
:1008A000300FE66E31DFE552640E106E10C00CF0B2
:1008B000DFCF07F087EC09F00750640DF350DF5CE1
:1008C000DF6E0A0E106E10C00CF0DFCF07F087EC61
:1008D00009F007500DE00A0E106E10C00CF0DFCFCB
:1008E00007F087EC09F00750300FE66E0DDFE55298
:1008F0000A0E106E10C00CF0DFCF07F087EC09F085
:1009000007500A0DF350DF5CDF6E300EDF24E66E19
:10091000FBDEE552E552E552E7CFD9FF1200D9CF11
:10092000E6FFE1CFD9FF020EE126FD0EDBCFDEFFB1
:10093000DBCFDDFFDECF10F0DDCF11F0100E0B6E40
:10094000270E0C6E10C006F011C007F051EC09F034
:1009500006C010F007C011F0300E1024E66ED4DE91
:10096000E552DECF12F0DDCF13F0100E0B6E270E26
:100970000C6E12C006F013C007F051EC09F006C06F
:1009800012F007C013F0100E1302F3CF13F0270E6E
:100990001202F3501326100E1202F3CF12F0F4508D
:1009A00013261250DE5C106E1350DD58116E10C00D
:1009B000DEFF11C0DDFFDECF10F0DDCF11F0E80E5D
:1009C0000B6E030E0C6E10C006F011C007F051EC58
:1009D00009F006C010F007C011F0300E1024E66ECA
:1009E00093DEE552DECF12F0DDCF13F0E80E0B6E92
:1009F000030E0C6E12C006F013C007F051EC09F0A4
:100A000006C012F007C013F0E80E1302F3CF13F084
:100A1000030E1202F3501326E80E1202F3CF12F067
:100A2000F45013261250DE5C106E1350DD58116E18
:100A300010C0DEFF11C0DDFFDECF10F0DDCF11F002
:100A4000640E0B6E0C6A10C006F011C007F051EC7A
:100A500009F006C010F007C011F0300E1024E66E49
:100A600053DEE552DECF12F0DDCF13F0640E0B6ED5
:100A70000C6A12C006F013C007F051EC09F006C072
:100A800012F007C013F0640E1302F3CF13F012023A
:100A9000F3CF12F0F45013261250DE5C106E135098
:100AA000DD58116E10C0DEFF11C0DDFFDECF10F08B
:100AB000DDCF11F00A0E0B6E0C6A10C006F011C0EB
:100AC00007F051EC09F006C010F007C011F0300E2D
:100AD0001024E66E19DEE552DECF12F0DDCF13F002
:100AE0000A0E0B6E0C6A12C006F013C007F051EC30
:100AF00009F006C012F007C013F00A0E1302F3CF7C
:100B000013F01202F3CF12F0F45013261250DE5CF1
:100B1000106E1350DD58116E10C0DEFF11C0DDFFE6
:100B2000DECF10F0DDCF11F0300E1024E66EECDDDC
:100B3000E552020EE15C02E2E16AE552E16EE55245
:100B4000E7CFD9FF1200D9CFE6FFE1CFD9FF020EE0
:100B5000E126780EE66E110EE66EE4DDE552E55212
:100B6000FE0EDB380F0B0F0BDE6EDD6ADECFE9FF0A
:100B7000DDCFEAFFF00EE926010EEA22EF50E66E25
:100B8000C3DDE552FE0EDB500F0BDE6EDD6ADECFFD
:100B9000E9FFDDCFEAFFF00EE926010EEA22EF5071
:100BA000E66EB2DDE552020EE15C02E2E16AE55278
:100BB000E16EE552E7CFD9FF1200D9CFE6FFE1CFD2
:100BC000D9FF020EE126780EE66E110EE66EAADD62
:100BD000E552E552FD0EDBCF10F0FE0EDBCF11F03B
:100BE0001138116A0F0B106E0F0E1016000E111631
:100BF00010C0DEFF11C0DDFFDECFE9FFDDCFEAFF71
:100C0000F00EE926010EEA22EF50E66E7DDDE55298
:100C1000FD0EDBCF10F0FE0EDBCF11F011C010F097
:100C2000116A0F0E1016000E111610C0DEFF11C053
:100C3000DDFFDECFE9FFDDCFEAFFF00EE926010E92
:100C4000EA22EF50E66E60DDE552FD0EDBCF10F0DC
:100C5000FE0EDBCF11F0040ED89011321032E804F2
:100C6000FBE10F0E1016000E111610C0DEFF11C0B2
:100C7000DDFFDECFE9FFDDCFEAFFF00EE926010E52
:100C8000EA22EF50E66E40DDE5520F0EE76EFD0EF4
:100C9000DBCF10F0FE0EDBCF11F0E7501016116A1B
:100CA00010C0DEFF11C0DDFFDECFE9FFDDCFEAFFC0
:100CB000F00EE926010EEA22EF50E66E25DDE55240
:100CC000020EE15C02E2E16AE552E16EE552E7CF35
:040CD000D9FF120036
:0C0CD4000001A76BA86BA96BAA6BAB6BAF
:100CE000AC6BAD91AD83AD95AD87AD99AD9B120069
:100CF000D9CFE6FFE1CFD9FFE6529D50100B01E0BE
:100D0000010E106E9E50100B01E0010E101419E040
:100D10000001ADB314D0A851EA6A000FE96E010ECC
:100D2000EA22EF50AD6EADB1AD91A707A75101E139
:100D3000AD83A82B780EA85D01E1A86B01D09D982A
:100D400032D09D50200B01E0010E106E9E50200B02
:100D500001E0010E101427E0ABA403D0AE50DF6E0B
:100D600022D0ABA205D0AB98AB88AE50DF6E1BD0C3
:100D70000001ADA503D0AE50DF6E15D0ADB513D0D8
:100D8000AD97AC51EA6A780FE96E010EEA22AECF58
:100D9000EFFFAA2B780EAA5D01E1AD85AC2B780E92
:100DA000AC5D01E1AC6BE552E552E7CFD9FF120033
:100DB0000001AD51020B01E0010E00D01200000154
:100DC000AD51080B01E0010E00D012000001AD5141
:100DD000010B00D012000001AD51040B01E0010E27
:100DE00000D01200D9CFE6FFE1CFD9FF0001ADB1AD
:100DF00016D09D98A951EA6A000FE96E010EEA2209
:100E0000FE0EDBCFEFFFA72BAD93780EA75D01E1C0
:100E1000AD81A92B780EA95D01E1A96B9D88E552F2
:100E2000E7CFD9FF1200D9CFE6FFE1CFD9FF00010C
:100E3000ADB516D09D9AAC51EA6A780FE96E010EF5
:100E4000EA22FE0EDBCFEFFFAA2BAD97780EAA5D4C
:100E500001E1AD85AC2B780EAC5D01E1AC6B9D8AF8
:100E6000E552E7CFD9FF1200D9CFE6FFE1CFD9FF96
:100E70000001ADA302D0000E1FD09D98AD91A851E6
:100E8000EA6A000FE96E010EEA22EF50E66EFD0EEF
:100E9000DBCFE9FFFE0EDBCFEAFFE552E750EF6E56
:100EA000A707A75101E1AD83A82B780EA85D01E14A
:100EB000A86B9D88010E00D0E552E7CFD9FF120044
:100EC000D9CFE6FFE1CFD9FF0001ADA702D0000ED8
:100ED0001FD09D9AAD95AB51EA6A780FE96E010E6D
:100EE000EA22EF50E66EFD0EDBCFE9FFFE0EDBCF10
:100EF000EAFFE552E750EF6EAA07AA5101E1AD877C
:100F0000AB2B780EAB5D01E1AB6B9D8A010E00D07F
:080F1000E552E7CFD9FF120002
:080F18000AD80DD810D83ED80C
:100F2000936A010E8A6EF36EF46A00D01200700E9E
:100F3000D36E9B8C1200D08EF28CF28E1200D9CF21
:100F4000E6FFE1CFD9FF020EE126440EDE6EDD6A38
:100F5000AC6AAB6AAB88AC84B886AC9AAB9EDF5007
:100F6000AF6EDECF10F0DDCF11F011C010F0116ABE
:100F70001050B06EAC8AAB8E949C948E9E9A9D8AD3
:100F80009F8A9E989D889F88020EE15C02E2E16A3A
:100F9000E552E16EE552E7CFD9FF120092809282CE
:100FA000928492880E0EE66E040EE66EAB0EE66E2E
:0C0FB0002DEC08F0E552E552E55212006D
:040FBC001E0EF66EA1
:100FC000000EF76E000EF86E00010900F550A26FDA
:100FD0000900F550A36F03E1A26701D03DD00900DD
:100FE000F5509D6F0900F5509E6F0900F5509F6FF9
:100FF00009000900F550E96E0900F550EA6E090094
:1010000009000900F550A06F0900F550A16F090013
:101010000900F6CFA4F0F7CFA5F0F8CFA6F09DC059
:10102000F6FF9EC0F7FF9FC0F8FF0001A05302E14A
:10103000A15307E00900F550EE6EA007F8E2A10702
:10104000F9D7A4C0F6FFA5C0F7FFA6C0F8FF0001BE
:0A105000A207000EA35BBFD7120039
:06105A00D9CFE6FFDACF5A
:10106000E6FFE1CFD9FFE2CFDAFFC26AC06AFC0E29
:10107000DB407F0B3C0BC26EFB0EDBCFE6FFFC0EB2
:10108000DB38F00B300BE552E710C16EFD0EDB5084
:10109000040DF350380B116EFD0EDB380F0B070BF0
:1010A000106EFD0EDB50800B10101110C06EFC0E88
:1010B000DBAE03D09E9C9D8CF28CC280E552E5CFC6
:0810C000DAFFE7CFD9FF1200AF
:0810C800D9CFE6FFDACFE6FF05
:1010D000E1CFD9FFE2CFDAFFFD0EDBCF11F011C077
:1010E00010F0030E1114AA6EFF0EE76EFC0EDBCF9C
:1010F00010F0E7501016116A1050A96EFB0EDB506D
:10110000A86EA69EA69CA684F29E550EA76EAA0E59
:10111000A76EA682F28EA694E552E5CFDAFFE7CF5E
:04112000D9FF1200E1
:0C1124000D0A000A0D0030200052535448
:10113000204F424A0A0D00525354204F424A202D5C
:1011400020424F520A0D00525354204F424A202D44
:1011500020504F520A0D00525354204F424A202D26
:10116000204D434C520A0D00525354204F424A2006
:0E1170002D205744540A0D00307800306200E4
:02117E00D9CFC7
:10118000E6FFDACFE6FFE1CFD9FFE2CFDAFFFD0ECF
:10119000DBCF11F011C010F0030E1114AA6EFF0E78
:1011A000E76EFC0EDBCF10F0E7501016116A1050FE
:1011B000A96EA69CA69EA680A850E552E5CFDAFFB0
:0611C000E7CFD9FF120089
:0A11C600D9CFE6FFDACFE6FFE1CF54
:1011D000D9FFE2CFDAFFE652E652D650DF6E010EBB
:1011E000D7CFDBFFDECF10F0DDCF11F010C0F3FF63
:1011F00011C0F4FFE552E552E552E5CFDAFFE7CF43
:04120000D9FF120000
:0C120400D9CFE6FFDACFE6FFE1CFD9FF3B
:10121000E2CFDAFFE652E652FC0EDBCFDEFFDBCF99
:10122000DDFF010EDB50D76EDF50D66EE552E55282
:0C123000E552E5CFDAFFE7CFD9FF12004E
:04123C00D9CFE6FF21
:10124000DACFE6FFE1CFD9FFE2CFDAFFFD0EDB50C8
:101250007F0BD56ED76AD66AF294FD0EDBAE02D054
:10126000F28A01D0F29AD58EE552E5CFDAFFE7CFC8
:04127000D9FF120090
:0C127400FF0EE350156EEF0E01D0F30EDC
:10128000E76EE72E41EF09F00C0E146EE76AE72EC9
:1012900047EF09F0142E46EF09F0152E3FEF09F045
:0212A00012003A
:0E12A200036A026A100EE76ED8900636073611
:1012B000023603360B50025C0C50035805E30B500A
:0E12C000025E0C50035A062AE72EF0D71200E9
:0212CE00D0A2AC
:1012D0000FD0D0A40CD0D0A009D0D0A6000CD0A89C
:1012E000000CFCBE000CFCBC000C010C000C000C43
:0212F000000CF0
:0E12F2001CEE00F02CEE00F0F86A0F9CDEEC13
:0E13000007F003EC00F086EC00F0FBD71200C3
:02130E00036A70
:10131000080EE76ED890073603360C50035C02E3E4
:0A132000036E072AE72EF7D712002C
:06132A00D0A209D0D0A4FE
:1013300006D0D0A003D0D0B6000C010C000C000CDD
:02134000000C9F
:0E134200D0B209D0D0A406D0D0B003D0D0A62F
:0A135000000C010C000C000C000C56
:06135A00FF0EE350E84E17
:101360001200000000D000D000D0E82EFAD7120002
:10137000C450136E126AC3501210F36E13C0F4FF00
:02138000120059
:0E13820000EE00F00D0EEE6AEA62FDD71200DA
:0C139000D0B003D0D0A2000C010C000C67
:04139C00D082D080AB
:0213A000120039
:0613A200A6B2FED7120006
:0413A800C2821200EB
:0413AC003031323377
:0C13B00034353637383941424344454655
:0413BC00000000002D
:0313C00000000A20
:0D13C300000000000000000000000000001D
:0313D000FFFF001C
:020000040030CA
:0100010008F6
:010003001EDE
:010005008278
:00000001FF
