:020000040000FA
:0600000049EF08F01200B8
:020006001200E6
:060008006FEF03F012008F
:02000E00D0829E
:04001000D08012008A
:06001800C0EF03F012002E
:02001E000300DD
:100020004111000084000000150000003A1100009A
:10003000A3000000070000002A110000F0010000EA
:0400400010000000AC
:0C0044009EAA02D0010E02D0000E00D0D7
:100050001200D9CFE6FFE1CFD9FFE652AE50DF6EF6
:10006000DF5000D0E552E552E7CFD9FF1200D9CFDB
:10007000E6FFE1CFD9FFFE0EDBCFE6FF5EEC06F038
:10008000E552E552E7CFD9FF1200D9CFE6FFE1CF25
:10009000D9FFFD0EDBCFF6FFFE0EDBCFF7FF08002A
:1000A000F550E66EE4DFE552FD0EDB2ADBCFF6FF0E
:1000B000FE0E01E3DB2ADBCFF7FF0800F550E9E194
:1000C000E552E7CFD9FF1200D9CFE6FFE1CFD9FF44
:1000D000020EE126DE52800EDD6E620EE66E0F0E1F
:1000E000E66ED3DFE552E552DF6A080EDF5C1AE206
:1000F000010EDBCFE6FFFE0EDB50E552E71405E014
:10010000310EE66EB4DFE55204D0300EE66EAFDF9E
:10011000E552010EDBCFF3FFF390F342F3CFDBFFA9
:10012000DF2AE3D7020EE15C02E2E16AE552E16E0A
:10013000E552E7CFD9FF1200D9CFE6FFE1CFD9FFD3
:10014000030EE126010EDB6A800EF36E020EF3CF82
:10015000DBFF620EE66E0F0EE66E97DFE552E552AC
:10016000DF6A100EDF5C2AE2010EDBCF12F0020E16
:10017000DBCF13F0FD0EDB501214106EFE0EDB50C1
:100180001314116E1050111005E0310EE66E6FDF82
:10019000E55204D0300EE66E6ADFE552D950010F09
:1001A000E96EDACFEAFF010E0F0B06E0EC52D890B1
:1001B000ED32EF32E806FAE1DF2AD3D7030EE15C35
:1001C00002E2E16AE552E16EE552E7CFD9FF1200A3
:1001D000D9CFE6FFE1CFD9FFE652FE0EDB50DF6E4E
:1001E000640E106E10C00CF0DFCF07F057EC08F073
:1001F00007500DE0640E106E10C00CF0DFCF07F05A
:1002000057EC08F00750300FE66E31DFE552640E10
:10021000106E10C00CF0DFCF07F057EC08F007505D
:10022000640DF350DF5CDF6E0A0E106E10C00CF030
:10023000DFCF07F057EC08F007500DE00A0E106E04
:1002400010C00CF0DFCF07F057EC08F00750300F6C
:10025000E66E0DDFE5520A0E106E10C00CF0DFCF17
:1002600007F057EC08F007500A0DF350DF5CDF6E23
:10027000300EDF24E66EFBDEE552E552E552E7CFB5
:10028000D9FF1200D9CFE6FFE1CFD9FF020EE12658
:10029000FD0EDBCFDEFFDBCFDDFFDECF10F0DDCFED
:1002A00011F0100E0B6E270E0C6E10C006F011C070
:1002B00007F021EC08F006C010F007C011F0105054
:1002C000111017E0DECF10F0DDCF11F0100E0B6E25
:1002D000270E0C6E10C006F011C007F021EC08F0DC
:1002E00006C010F007C011F0300E1024E66EBFDE1D
:1002F000E552DECF12F0DDCF13F0100E0B6E270E9D
:100300000C6E12C006F013C007F021EC08F006C016
:1003100012F007C013F0100E1302F3CF13F0270EE4
:100320001202F3501326100E1202F3CF12F0F45003
:1003300013261250DE5C106E1350DD58116E10C083
:10034000DEFF11C0DDFFDECF10F0DDCF11F0E80ED3
:100350000B6E030E0C6E10C006F011C007F021ECFE
:1003600008F006C010F007C011F01050111017E08F
:10037000DECF10F0DDCF11F0E80E0B6E030E0C6E29
:1003800010C006F011C007F021EC08F006C010F014
:1003900007C011F0300E1024E66E69DEE552DECFA4
:1003A00012F0DDCF13F0E80E0B6E030E0C6E12C0D0
:1003B00006F013C007F021EC08F006C012F007C0E9
:1003C00013F0E80E1302F3CF13F0030E1202F350F2
:1003D0001326E80E1202F3CF12F0F4501326125037
:1003E000DE5C106E1350DD58116E10C0DEFF11C0C0
:1003F000DDFFDECF10F0DDCF11F0640E0B6E0C6A66
:1004000010C006F011C007F021EC08F006C010F093
:1004100007C011F01050111016E0DECF10F0DDCF44
:1004200011F0640E0B6E0C6A10C006F011C007F0DC
:1004300021EC08F006C010F007C011F0300E1024B7
:10044000E66E15DEE552DECF12F0DDCF13F0640E5E
:100450000B6E0C6A12C006F013C007F021EC08F016
:1004600006C012F007C013F0640E1302F3CF13F0AE
:100470001202F3CF12F0F45013261250DE5C106E0D
:100480001350DD58116E10C0DEFF11C0DDFFDECF4E
:1004900010F0DDCF11F00A0E0B6E0C6A10C006F0E2
:1004A00011C007F021EC08F006C010F007C011F0F1
:1004B0001050111016E0DECF10F0DDCF11F00A0E53
:1004C0000B6E0C6A10C006F011C007F021EC08F0AA
:1004D00006C010F007C011F0300E1024E66EC7DD24
:1004E000E552DECF12F0DDCF13F00A0E0B6E0C6A70
:1004F00012C006F013C007F021EC08F006C012F09D
:1005000007C013F00A0E1302F3CF13F01202F3CF59
:1005100012F0F45013261250DE5C106E1350DD58AA
:10052000116E10C0DEFF11C0DDFFDECF10F0DDCF99
:1005300011F0300E1024E66E9ADDE552020EE15CF9
:1005400002E2E16AE552E16EE552E7CFD9FF12001F
:10055000D9CFE6FFE1CFD9FF020EE1265F0EE66EAE
:100560000F0EE66E92DDE552E552FE0EDB380F0B04
:100570000F0BDE6EDD6ADECFE9FFDDCFEAFFF00EA6
:10058000E926010EEA22EF50E66E71DDE552FE0E1D
:10059000DB500F0BDE6EDD6ADECFE9FFDDCFEAFF59
:1005A000F00EE926010EEA22EF50E66E60DDE5521C
:1005B000020EE15C02E2E16AE552E16EE552E7CF4C
:1005C000D9FF1200D9CFE6FFE1CFD9FF020EE12615
:1005D0005F0EE66E0F0EE66E58DDE552E552FD0E3B
:1005E000DBCF10F0FE0EDBCF11F01138116A0F0BCC
:1005F000106E0F0E1016000E111610C0DEFF11C087
:10060000DDFFDECFE9FFDDCFEAFFF00EE926010EC8
:10061000EA22EF50E66E2BDDE552FD0EDBCF10F047
:10062000FE0EDBCF11F011C010F0116A0F0E101684
:10063000000E111610C0DEFF11C0DDFFDECFE9FF96
:10064000DDCFEAFFF00EE926010EEA22EF50E66E5A
:100650000EDDE552FD0EDBCF10F0FE0EDBCF11F00C
:10066000040ED89011321032E804FBE10F0E101680
:10067000000E111610C0DEFF11C0DDFFDECFE9FF56
:10068000DDCFEAFFF00EE926010EEA22EF50E66E1A
:10069000EEDCE5520F0EE76EFD0EDBCF10F0FE0E26
:1006A000DBCF11F0E7501016116A10C0DEFF11C049
:1006B000DDFFDECFE9FFDDCFEAFFF00EE926010E18
:1006C000EA22EF50E66ED3DCE552020EE15C02E274
:0E06D000E16AE552E16EE552E7CFD9FF120074
:0206DE00DACF71
:1006E000E4FFE2CFDAFFE9CFE4FFEACFE4FFF6CFA1
:1006F000E4FFF7CFE4FFF5CFE4FFF3CFE4FFF4CF5F
:10070000E4FFFACFE4FF00EE00F0100EE80403E38C
:10071000EECFE4FFFBD700EE10F0040EE80403E395
:10072000EECFE4FFFBD7E6529E50100B03E19E5044
:10073000200B02E0E4EC05F0E55200EE13F0040EAD
:10074000E80403E3E5CFEDFFFBD700EE0FF0100E5A
:10075000E80403E3E5CFEDFFFBD7E5CFFAFFE5CFF4
:10076000F4FFE5CFF3FFE5CFF5FFE5CFF7FFE5CFEA
:10077000F6FFE5CFEAFFE5CFE9FFE5CFDAFF1100AD
:10078000D8CFE4FFE0CFE4FFE46EDACFE4FFE2CFBE
:10079000DAFFE652E552E5CFDAFFE550E5CFE0FFBC
:1007A000E5CFD8FF100047EC07F0D6EC05F09288B3
:1007B0000F0EC16E100EE66EEEEC07F0E552630E02
:1007C000E66E0AEC08F0E55265EC08F0000909E075
:1007D0004F0EE66E0F0EE66E45EC00F0E552E55268
:1007E0002FD037EC08F0000909E03E0EE66E0F0E40
:1007F000E66E45EC00F0E552E55222D071EC08F0CF
:10080000000909E02E0EE66E0F0EE66E45EC00F0D4
:10081000E552E55215D08FEC08F0000909E01E0EF4
:10082000E66E0F0EE66E45EC00F0E552E55208D09C
:10083000140EE66E0F0EE66E45EC00F0E552E55242
:1008400007EC00F04BEC06F000094BE1000196A12B
:1008500014D0830EE66E000EE66ECCEC06F0E55288
:10086000E55200018051EA6A600FE96E000EEA224B
:1008700083C0EFFF0001802B19D000019681830E09
:10088000E66E000EE66ECCEC06F0E552E55283C053
:1008900097F083C0E6FF37EC00F0E552110EE66EEC
:1008A0000F0EE66E45EC00F0E552E552000197515F
:1008B000600A0EE0510A07E0010A01E00ED0FF00D5
:1008C000000196910DD0000196910001806B08D037
:1008D000000196830001969103D00001969100D00B
:1008E000B1D7000196A303D02CD80001969380A81D
:1008F00023D00001140E941901E1955112E1700EFC
:10090000E66E37EC00F0E552110EE66E0F0EE66E65
:1009100045EC00F0E552E5520001942B000E9523C2
:100920000AD00001140E945D000E955904E20001F6
:10093000942B000E952303D00001946B956B82D706
:10094000120000018C6B8D6B92908090070EE66E0A
:100950007DEC08F0E5528080100EE66E7DEC08F02C
:10096000E5528090928080A0FED7000EE66EE66A87
:10097000D2EC07F0E552E55280B0FED7B3EC07F0B9
:10098000F3CF84F0F4CF85F084C010F085C011F06F
:100990003A0E0B6E0C6A10C006F011C007F021EC85
:1009A00008F006C010F007C011F08CC0E9FF8DC040
:1009B000EAFFD890E936EA36860EE926000EEA22EA
:1009C00010C0EEFF11C0EDFF00018C2B000E8D2337
:1009D00092928092070EE66E7DEC08F0E5528082DE
:1009E000100EE66E7DEC08F0E5528092928280A2B5
:1009F000FED7000EE66EE66AD2EC07F0E552E5524D
:100A000080B2FED7B3EC07F0F3CF84F0F4CF85F0DB
:100A100084C010F085C011F03A0E0B6E0C6A10C045
:100A200006F011C007F021EC08F006C010F007C076
:100A300011F08CC0E9FF8DC0EAFFD890E936EA36A4
:100A4000860EE926000EEA2210C0EEFF11C0EDFF6F
:100A500000018C2B000E8D2392948094070EE66E7D
:100A60007DEC08F0E5528084100EE66E7DEC08F017
:100A7000E5528094928480A4FED7000EE66EE66A6A
:100A8000D2EC07F0E552E55280B4FED7B3EC07F0A4
:100A9000F3CF84F0F4CF85F084C010F085C011F05E
:100AA0003A0E0B6E0C6A10C006F011C007F021EC74
:100AB00008F006C010F007C011F08CC0E9FF8DC02F
:100AC000EAFFD890E936EA36860EE926000EEA22D9
:100AD00010C0EEFF11C0EDFF000186518E5D875101
:100AE0008F590EE2710EE66E37EC00F0E5520E0EF5
:100AF000E66E0F0EE66E45EC00F0E552E55255D07D
:100B00009051885D9151895913E292518A5D9351B8
:100B10008B590EE2740EE66E37EC00F0E5520E0EC5
:100B2000E66E0F0EE66E45EC00F0E552E5523DD064
:100B30009051885D9151895913E28A51925D8B5190
:100B400093590EE2730EE66E37EC00F0E5520E0E8E
:100B5000E66E0F0EE66E45EC00F0E552E55225D04C
:100B60008851905D8951915913E28A51925D8B5160
:100B700093590EE2720EE66E37EC00F0E5520E0E5F
:100B8000E66E0F0EE66E45EC00F0E552E5520DD034
:100B9000750EE66E37EC00F0E5520E0EE66E0F0EA7
:0C0BA000E66E45EC00F0E552E552120054
:040BAC000001A36B36
:100BB000A46BA56BA66BA76BA86BA991A983A9953C
:100BC000A987A999A99B1200D9CFE6FFE1CFD9FF48
:100BD000E6529D50100B01E0010E106E9E50100B5E
:100BE00001E0010E101419E00001A9B314D0A451C2
:100BF000EA6A000FE96E010EEA22EF50AD6EA9B16C
:100C0000A991A307A35101E1A983A42B780EA45DA8
:100C100001E1A46B01D09D9832D09D50200B01E0E2
:100C2000010E106E9E50200B01E0010E101427E003
:100C3000ABA403D0AE50DF6E22D0ABA205D0AB98F0
:100C4000AB88AE50DF6E1BD00001A9A503D0AE501B
:100C5000DF6E15D0A9B513D0A997A851EA6A780F0D
:100C6000E96E010EEA22AECFEFFFA62B780EA65D4D
:100C700001E1A985A82B780EA85D01E1A86BE552DA
:100C8000E552E7CFD9FF12000001A951020B01E0A4
:100C9000010E00D012000001A951080B01E0010E65
:100CA00000D012000001A951010B00D01200000178
:100CB000A951040B01E0010E00D01200D9CFE6FFCC
:100CC000E1CFD9FF0001A9B116D09D98A551EA6ADC
:100CD000000FE96E010EEA22FE0EDBCFEFFFA32B21
:100CE000A993780EA35D01E1A981A52B780EA55DDE
:100CF00001E1A56B9D88E552E7CFD9FF1200D9CF5E
:100D0000E6FFE1CFD9FF0001A9B516D09D9AA85101
:100D1000EA6A780FE96E010EEA22FE0EDBCFEFFFE2
:100D2000A62BA997780EA65D01E1A985A82B780EC0
:100D3000A85D01E1A86B9D8AE552E7CFD9FF1200BB
:100D4000D9CFE6FFE1CFD9FF0001A9A302D0000E61
:100D50001FD09D98A991A451EA6A000FE96E010E77
:100D6000EA22EF50E66EFD0EDBCFE9FFFE0EDBCF91
:100D7000EAFFE552E750EF6EA307A35101E1A98313
:100D8000A42B780EA45D01E1A46B9D88010E00D018
:100D9000E552E7CFD9FF1200D9CFE6FFE1CFD9FF67
:100DA0000001A9A702D0000E1FD09D9AA995A751B6
:100DB000EA6A780FE96E010EEA22EF50E66EFD0E48
:100DC000DBCFE9FFFE0EDBCFEAFFE552E750EF6E27
:100DD000A607A65101E1A987A72B780EA75D01E11F
:100DE000A76B9D8A010E00D0E552E7CFD9FF120014
:100DF0001E0EF66E000EF76E000EF86E0001090072
:100E0000F5509E6F0900F5509F6F03E19E6701D07A
:100E10003DD00900F550996F0900F5509A6F09000F
:100E2000F5509B6F09000900F550E96E0900F55077
:100E3000EA6E090009000900F5509C6F0900F550A1
:100E40009D6F09000900F6CFA0F0F7CFA1F0F8CF11
:100E5000A2F099C0F6FF9AC0F7FF9BC0F8FF00010F
:100E60009C5302E19D5307E00900F550EE6E9C078C
:100E7000F8E29D07F9D7A0C0F6FFA1C0F7FFA2C016
:0E0E8000F8FF00019E07000E9F5BBFD7120017
:020E8E0009D881
:100E90000BD80ED8936A010E8A6EF36EF46A00D0F6
:100EA0001200700ED36E1200D08EF28CF28E1200F1
:100EB000D9CFE6FFE1CFD9FF020EE126100EDE6E9C
:100EC000DD6AAC6AAB6AAB88AC84B886AC9AAB9E80
:100ED000DF50AF6EDECF10F0DDCF11F011C010F09B
:100EE000116A1050B06EAC8AAB8E949C948E9E9A10
:100EF0009D8A9F8A9E989D889F88020EE15C02E2EF
:0E0F0000E16AE552E16EE552E7CFD9FF12003B
:020F0E000D0ACA
:100F1000000A0D00525354204F424A0A0D0052530A
:100F200054204F424A202D20424F520A0D00525366
:100F300054204F424A202D20504F520A0D00525348
:100F400054204F424A202D204D434C520A0D00524E
:100F50005354204F424A202D205744540A0D00304C
:050F6000780030620082
:0A0F6600D9CFE6FFDACFE6FFE1CFB6
:100F7000D9FFE2CFDAFFE652E652D650DF6E010E1D
:100F8000D7CFDBFFDECF10F0DDCF11F010C0F3FFC5
:100F900011C0F4FFE552E552E552E5CFDAFFE7CFA5
:040FA000D9FF120063
:0C0FA400D9CFE6FFDACFE6FFE1CFD9FF9E
:100FB000E2CFDAFFE652E652FC0EDBCFDEFFDBCFFC
:100FC000DDFF010EDB50D76EDF50D66EE552E552E5
:0C0FD000E552E5CFDAFFE7CFD9FF1200B1
:040FDC00D9CFE6FF84
:100FE000DACFE6FFE1CFD9FFE2CFDAFFFD0EDB502B
:100FF0007F0BD56ED76AD66AF294FD0EDBAE02D0B7
:10100000F28A01D0F29AD58EE552E5CFDAFFE7CF2A
:04101000D9FF1200F2
:0C101400FF0EE350156EEF0E01D0F30E3E
:10102000E76EE72E11EF08F00C0E146EE76AE72E5C
:1010300017EF08F0142E16EF08F0152E0FEF08F03A
:0210400012009C
:0E104200036A026A100EE76ED8900636073673
:10105000023603360B50025C0C50035805E30B506C
:0E106000025E0C50035A062AE72EF0D712004B
:02106E00D0A20E
:101070000FD0D0A40CD0D0A009D0D0A6000CD0A8FE
:10108000000CFCBE000CFCBC000C010C000C000CA5
:02109000000C52
:0E1092001CEE00F02CEE00F0F86A0F9CF8EC5B
:0E10A00006F003EC00F0D3EC03F0FBD71200D7
:0210AE00036AD3
:1010B000080EE76ED890073603360C50035C02E347
:0A10C000036E072AE72EF7D712008F
:0610CA00D0A209D0D0A461
:1010D00006D0D0A003D0D0B6000C010C000C000C40
:0210E000000C02
:0E10E200D0B209D0D0A406D0D0B003D0D0A692
:0A10F000000C010C000C000C000CB9
:0610FA00FF0EE350E84E7A
:101100001200000000D000D000D0E82EFAD7120064
:0E11100000EE00F00D0EEE6AEA62FDD712004E
:02111E00D0B04F
:0A11200003D0D0A2000C010C000C5B
:06112A0030313233343590
:0A1130003637383941424344454642
:06113A00000000000000AF
:011140000AA4
:0F114100000032003200320000000A00140014D7
:0611500000000000000099
:020000040030CA
:0100010008F6
:010003001EDE
:010005008278
:00000001FF
