:020000040000FA
:0600000034EF09F01200CC
:020006001200E6
:0600080022EF00F01200DF
:02000E00D0829E
:04001000D08012008A
:0600180073EF00F012007E
:02001E000300DD
:100020001D1300008F0000001400000016130000D4
:10003000AD0000000700000006130000F001000002
:0400400010000000AC
:0C004400DACFE4FFE2CFDAFFE9CFE4FFFF
:10005000EACFE4FFF6CFE4FFF7CFE4FFF5CFE4FF0C
:10006000F3CFE4FFF4CFE4FFFACFE4FF00EE00F0BB
:10007000100EE80403E3EECFE4FFFBD700EE10F030
:10008000040EE80403E3EECFE4FFFBD7E6529E50F4
:10009000100B03E19E50200B02E07BEC06F0E552D2
:1000A00000EE13F0040EE80403E3E5CFEDFFFBD709
:1000B00000EE0FF0100EE80403E3E5CFEDFFFBD7F1
:1000C000E5CFFAFFE5CFF4FFE5CFF3FFE5CFF5FF8E
:1000D000E5CFF7FFE5CFF6FFE5CFEAFFE5CFE9FF94
:1000E000E5CFDAFF1100D8CFE4FFE0CFE4FFE46E04
:1000F000DACFE4FFE2CFDAFFE652E552E5CFDAFFEE
:10010000E550E5CFE0FFE5CFD8FF100000018C6B94
:100110008D6B99D9DEEC07F06DEC06F09288928A2F
:100120000F0EC16E808E100EE66ED9EC08F0E5520F
:10013000630EE66EF5EC08F0E55250EC09F00009AC
:1001400009E0DE0EE66E100EE66E95EC03F0E55269
:10015000E5522FD022EC09F0000909E0CD0EE66E41
:10016000100EE66E95EC03F0E552E55222D05CEC01
:1001700009F0000909E0BD0EE66E100EE66E95EC82
:1001800003F0E552E55215D07AEC09F0000909E0D8
:10019000AD0EE66E100EE66E95EC03F0E552E552FC
:1001A00008D0A30EE66E100EE66E95EC03F0E55255
:1001B000E55207EC00F0E2EC06F0000901E0D9D0CE
:1001C00000019DA114D08E0EE66E000EE66E63EC6B
:1001D00007F0E552E55200019F51EA6A6C0FE96EA3
:1001E000000EEA228EC0EFFF00019F2B0CD0000111
:1001F0009D818E0EE66E000EE66E63EC07F0E55212
:10020000E5528EC09EF000019E51610A01E1A8D026
:10021000010A01E1A0D0620A66E0030A07E0310AA0
:1002200001E0A3D0FF0000019D91A2D0030E0001C8
:100230009F5D05E100016E510001A06FA16B0001FF
:10024000A01D01E1A11D4EE000019F51106E116A39
:10025000030E0001136AA025126EA1511322125041
:10026000101802E1135011183DE16CC08DF06DC003
:100270008CF00001A26B0001A251106E116A000106
:100280001150A119E8AE02D0A13504D0A051105CE4
:10029000A15111581CE2030E0001A225EA6A6C0F5D
:1002A000E96E000EEA22EF50E66E8CC0E6FF8DC0CC
:1002B000E6FF1FEC08F0E552E552E55280EC09F04C
:1002C00000018C2B000E8D230001A22BD4D700013E
:1002D000A069A16900018C6B8D6BB5D800019D915F
:1002E00000019F6B45D0020E00019F5D2BE16CC0A9
:1002F0008DF06DC08CF08CC0E6FF8DC0E6FF7AEC0F
:1003000008F0E552E5520001A26FA00EE66E100E55
:10031000E66E95EC03F0E552E552A2C0E6FFA6ECCE
:1003200005F0E5529D0EE66E100EE66E95EC03F0BC
:10033000E552E55200018C6B8D6B00019D9100012F
:100340009F6B08D000019F51020804E200019D91BB
:1003500000019F6B0DD000019D8300019D9108D08D
:1003600000019D8500019D9103D000019D9100D069
:1003700022D700019DA303D0EBD800019D9300017B
:100380009DB5809E80AA2BD00001625100019B196F
:1003900004E10001635100019C1913E100019B2B52
:1003A000000E9C23807E760EE66E87EC03F0E5520D
:1003B0009D0EE66E100EE66E95EC03F0E552E552EA
:1003C0000DD00001625100019B5D000163510001ED
:1003D0009C5904E200019B2B000E9C2303D00001DA
:1003E0009B6B9C6B80A82AD0000164510001991975
:1003F00004E10001655100019A1912E1700EE66EE8
:1004000087EC03F0E5529D0EE66E100EE66E95EC5D
:1004100003F0E552E5520001992B000E9A230DD00E
:10042000000164510001995D0001655100019A5974
:1004300004E20001992B000E9A2303D00001996B6E
:100440009A6BB9D61200000EE66EE66A7AEC08F0F6
:10045000E552E552106E10C011F0106A10C0E6FFB0
:1004600011C0E6FF010EE66EE66A7AEC08F0E5528E
:10047000E552E552E7CF11F0E552E7CF10F0000169
:100480001010646F11C065F0020EE66EE66A7AEC39
:1004900008F0E552E552106E10C011F0106A10C05D
:1004A000E6FF11C0E6FF030EE66EE66A7AEC08F09E
:1004B000E552E552E552E7CF11F0E552E7CF10F0F3
:1004C00000011010626F11C063F0040EE66EE66A60
:1004D0007AEC08F0E552E552106E10C011F0106A87
:1004E00010C0E6FF11C0E6FF050EE66EE66A7AEC84
:1004F00008F0E552E552E552E7CF11F0E552E7CFBB
:1005000010F000011010666F11C067F0060EE66E65
:10051000E66A7AEC08F0E552E552106E10C011F070
:10052000106A10C0E6FF11C0E6FF070EE66EE66A2D
:100530007AEC08F0E552E552E552E7CF11F0E552CA
:10054000E7CF10F000011010686F11C069F01200C1
:100550000001976B986B972B000E982392928092D4
:10056000070EE66E68EC09F0E5528082100EE66E2A
:1005700068EC09F0E5528092928280A2FED7000ECC
:10058000E66EE66ABDEC08F0E552E55280B2FED7B1
:100590009EEC08F0F3CF8FF0F4CF90F097C0E9FF16
:1005A00098C0EAFFD890E936EA36910EE926000EA7
:1005B000EA228FC0EEFF90C0EDFF0001972B000EE6
:1005C000982392948094070EE66E68EC09F0E55249
:1005D0008084100EE66E68EC09F0E55280949284F7
:1005E00080A4FED7000EE66EE66ABDEC08F0E55288
:1005F000E55280B4FED79EEC08F0F3CF8FF0F4CF35
:1006000090F097C0E9FF98C0EAFFD890E936EA3643
:10061000910EE926000EEA228FC0EEFF90C0EDFF9A
:10062000000168510001935D000169510001945976
:1006300031E2000166510001955D00016751000142
:10064000965928E2730EE66E87EC03F0E552200E11
:10065000E66E87EC03F0E55293C0E6FF94C0E6FF38
:1006600092EC04F0E552E552200EE66E87EC03F0C2
:10067000E55295C0E6FF96C0E6FF92EC04F0E55225
:10068000E5529A0EE66E100EE66E95EC03F0E5521A
:10069000E55227D0720EE66E87EC03F0E552200E8D
:1006A000E66E87EC03F0E55293C0E6FF94C0E6FFE8
:1006B00092EC04F0E552E552200EE66E87EC03F072
:1006C000E55295C0E6FF96C0E6FF92EC04F0E552D5
:1006D000E5529A0EE66E100EE66E95EC03F0E552CA
:0406E000E5521200CD
:0C06E4009EAA02D0010E02D0000E00D031
:1006F0001200D9CFE6FFE1CFD9FFE652AE50DF6E50
:10070000DF5000D0E552E552E7CFD9FF1200D9CF34
:10071000E6FFE1CFD9FFFE0EDBCFE6FFF5EC06F0FA
:10072000E552E552E7CFD9FF1200D9CFE6FFE1CF7E
:10073000D9FFFD0EDBCFF6FFFE0EDBCFF7FF080083
:10074000F550E66EE4DFE552FD0EDB2ADBCFF6FF67
:10075000FE0E01E3DB2ADBCFF7FF0800F550E9E1ED
:10076000E552E7CFD9FF1200D9CFE6FFE1CFD9FF9D
:10077000020EE126DE52800EDD6EF10EE66E100EE8
:10078000E66ED3DFE552E552DF6A080EDF5C1AE25F
:10079000010EDBCFE6FFFE0EDB50E552E71405E06D
:1007A000310EE66EB4DFE55204D0300EE66EAFDFF8
:1007B000E552010EDBCFF3FFF390F342F3CFDBFF03
:1007C000DF2AE3D7020EE15C02E2E16AE552E16E64
:1007D000E552E7CFD9FF1200D9CFE6FFE1CFD9FF2D
:1007E000030EE126010EDB6A800EF36E020EF3CFDC
:1007F000DBFFF10EE66E100EE66E97DFE552E55276
:10080000DF6A100EDF5C2AE2010EDBCF12F0020E6F
:10081000DBCF13F0FD0EDB501214106EFE0EDB501A
:100820001314116E1050111005E0310EE66E6FDFDB
:10083000E55204D0300EE66E6ADFE552D950010F62
:10084000E96EDACFEAFF010E0F0B06E0EC52D8900A
:10085000ED32EF32E806FAE1DF2AD3D7030EE15C8E
:1008600002E2E16AE552E16EE552E7CFD9FF1200FC
:10087000D9CFE6FFE1CFD9FFE652FE0EDB50DF6EA7
:10088000640E106E10C00CF0DFCF07F042EC09F0E0
:1008900007500DE0640E106E10C00CF0DFCF07F0B3
:1008A00042EC09F00750300FE66E31DFE552640E7E
:1008B000106E10C00CF0DFCF07F042EC09F00750CB
:1008C000640DF350DF5CDF6E0A0E106E10C00CF08A
:1008D000DFCF07F042EC09F007500DE00A0E106E72
:1008E00010C00CF0DFCF07F042EC09F00750300FDA
:1008F000E66E0DDFE5520A0E106E10C00CF0DFCF71
:1009000007F042EC09F007500A0DF350DF5CDF6E90
:10091000300EDF24E66EFBDEE552E552E552E7CF0E
:10092000D9FF1200D9CFE6FFE1CFD9FF020EE126B1
:10093000FD0EDBCFDEFFDBCFDDFFDECF10F0DDCF46
:1009400011F0100E0B6E270E0C6E10C006F011C0C9
:1009500007F00CEC09F006C010F007C011F0300EE3
:100960001024E66ED4DEE552DECF12F0DDCF13F0B8
:10097000100E0B6E270E0C6E12C006F013C007F09F
:100980000CEC09F006C012F007C013F0100E1302B1
:10099000F3CF13F0270E1202F3501326100E12029B
:1009A000F3CF12F0F45013261250DE5C106E135089
:1009B000DD58116E10C0DEFF11C0DDFFDECF10F07C
:1009C000DDCF11F0E80E0B6E030E0C6E10C006F0BA
:1009D00011C007F00CEC09F006C010F007C011F0D0
:1009E000300E1024E66E93DEE552DECF12F0DDCF3E
:1009F00013F0E80E0B6E030E0C6E12C006F013C05F
:100A000007F00CEC09F006C012F007C013F0E80E76
:100A10001302F3CF13F0030E1202F3501326E80E65
:100A20001202F3CF12F0F45013261250DE5C106E57
:100A30001350DD58116E10C0DEFF11C0DDFFDECF98
:100A400010F0DDCF11F0640E0B6E0C6A10C006F0D2
:100A500011C007F00CEC09F006C010F007C011F04F
:100A6000300E1024E66E53DEE552DECF12F0DDCFFD
:100A700013F0640E0B6E0C6A12C006F013C007F080
:100A80000CEC09F006C012F007C013F0640E13025C
:100A9000F3CF13F01202F3CF12F0F45013261250DA
:100AA000DE5C106E1350DD58116E10C0DEFF11C0F9
:100AB000DDFFDECF10F0DDCF11F00A0E0B6E0C6AF9
:100AC00010C006F011C007F00CEC09F006C010F0E1
:100AD00007C011F0300E1024E66E19DEE552DECFAD
:100AE00012F0DDCF13F00A0E0B6E0C6A12C006F086
:100AF00013C007F00CEC09F006C012F007C013F0A9
:100B00000A0E1302F3CF13F01202F3CF12F0F450D7
:100B100013261250DE5C106E1350DD58116E10C09B
:100B2000DEFF11C0DDFFDECF10F0DDCF11F0300EA3
:100B30001024E66EECDDE552020EE15C02E2E16AB1
:100B4000E552E16EE552E7CFD9FF1200D9CFE6FFBB
:100B5000E1CFD9FF020EE126EE0EE66E100EE66E34
:100B6000E4DDE552E552FE0EDB380F0B0F0BDE6EB7
:100B7000DD6ADECFE9FFDDCFEAFFF00EE926010EE8
:100B8000EA22EF50E66EC3DDE552FE0EDB500F0B9E
:100B9000DE6EDD6ADECFE9FFDDCFEAFFF00EE9268B
:100BA000010EEA22EF50E66EB2DDE552020EE15C84
:100BB00002E2E16AE552E16EE552E7CFD9FF1200A9
:100BC000D9CFE6FFE1CFD9FF020EE126EE0EE66EA9
:100BD000100EE66EAADDE552E552FD0EDBCF10F0F9
:100BE000FE0EDBCF11F01138116A0F0B106E0F0ED5
:100BF0001016000E111610C0DEFF11C0DDFFDECF93
:100C0000E9FFDDCFEAFFF00EE926010EEA22EF5000
:100C1000E66E7DDDE552FD0EDBCF10F0FE0EDBCF84
:100C200011F011C010F0116A0F0E1016000E1116FF
:100C300010C0DEFF11C0DDFFDECFE9FFDDCFEAFF30
:100C4000F00EE926010EEA22EF50E66E60DDE55275
:100C5000FD0EDBCF10F0FE0EDBCF11F0040ED890AE
:100C600011321032E804FBE10F0E1016000E1116BF
:100C700010C0DEFF11C0DDFFDECFE9FFDDCFEAFFF0
:100C8000F00EE926010EEA22EF50E66E40DDE55255
:100C90000F0EE76EFD0EDBCF10F0FE0EDBCF11F076
:100CA000E7501016116A10C0DEFF11C0DDFFDECF65
:100CB000E9FFDDCFEAFFF00EE926010EEA22EF5050
:100CC000E66E25DDE552020EE15C02E2E16AE552E4
:0A0CD000E16EE552E7CFD9FF1200F4
:060CDA000001AD6BAE6BE2
:100CE000AF6BB06BB16BB26BB391B383B395B3879A
:100CF000B399B39B1200D9CFE6FFE1CFD9FFE652FB
:100D00009D50100B01E0010E106E9E50100B01E083
:100D1000010E101419E00001B3B314D0AE51EA6A09
:100D2000000FE96E010EEA22EF50AD6EB3B1B39140
:100D3000AD07AD5101E1B383AE2B780EAE5D01E19D
:100D4000AE6B01D09D9832D09D50200B01E0010E7A
:100D5000106E9E50200B01E0010E101427E0ABA492
:100D600003D0AE50DF6E22D0ABA205D0AB98AB88DB
:100D7000AE50DF6E1BD00001B3A503D0AE50DF6EC6
:100D800015D0B3B513D0B397B251EA6A780FE96EB4
:100D9000010EEA22AECFEFFFB02B780EB05D01E17D
:100DA000B385B22B780EB25D01E1B26BE552E5522C
:100DB000E7CFD9FF12000001B351020B01E0010E91
:100DC00000D012000001B351080B01E0010E00D069
:100DD00012000001B351010B00D012000001B35109
:100DE000040B01E0010E00D01200D9CFE6FFE1CFE5
:100DF000D9FF0001B3B116D09D98AF51EA6A000F38
:100E0000E96E010EEA22FE0EDBCFEFFFAD2BB393AE
:100E1000780EAD5D01E1B381AF2B780EAF5D01E1DE
:100E2000AF6B9D88E552E7CFD9FF1200D9CFE6FF1F
:100E3000E1CFD9FF0001B3B516D09D9AB251EA6A4D
:100E4000780FE96E010EEA22FE0EDBCFEFFFB02B2A
:100E5000B397780EB05D01E1B385B22B780EB25D29
:100E600001E1B26B9D8AE552E7CFD9FF1200D9CFDD
:100E7000E6FFE1CFD9FF0001B3A302D0000E1FD0DF
:100E80009D98B391AE51EA6A000FE96E010EEA2215
:100E9000EF50E66EFD0EDBCFE9FFFE0EDBCFEAFF83
:100EA000E552E750EF6EAD07AD5101E1B383AE2BD4
:100EB000780EAE5D01E1AE6B9D88010E00D0E5526B
:100EC000E7CFD9FF1200D9CFE6FFE1CFD9FF00016C
:100ED000B3A702D0000E1FD09D9AB395B151EA6A14
:100EE000780FE96E010EEA22EF50E66EFD0EDBCFC1
:100EF000E9FFFE0EDBCFEAFFE552E750EF6EB007E9
:100F0000B05101E1B387B12B780EB15D01E1B16B56
:0E0F10009D8A010E00D0E552E7CFD9FF1200F6
:020F1E001E0EA5
:100F2000F66E000EF76E000EF86E00010900F55027
:100F3000A86F0900F550A96F03E1A86701D03DD063
:100F40000900F550A36F0900F550A46F0900F55092
:100F5000A56F09000900F550E96E0900F550EA6E29
:100F6000090009000900F550A66F0900F550A76FA8
:100F700009000900F6CFAAF0F7CFABF0F8CFACF03C
:100F8000A3C0F6FFA4C0F7FFA5C0F8FF0001A65359
:100F900002E1A75307E00900F550EE6EA607F8E25C
:100FA000A707F9D7AAC0F6FFABC0F7FFACC0F8FFA0
:0C0FB0000001A807000EA95BBFD71200CB
:040FBC0009D80CD86C
:100FC0000FD8936A010E8A6EF36EF46A00D0120095
:100FD000700ED36E9B8C1200D08EF28CF28E1200AB
:100FE000D9CFE6FFE1CFD9FF020EE126440EDE6E37
:100FF000DD6AAC6AAB6AAB88AC84B886AC9AAB9E4F
:10100000DF50AF6EDECF10F0DDCF11F011C010F069
:10101000116A1050B06EAC8AAB8E949C948E9E9ADE
:101020009D8A9F8A9E989D889F88020EE15C02E2BD
:0E103000E16AE552E16EE552E7CFD9FF12000A
:02103E00D9CF08
:10104000E6FFDACFE6FFE1CFD9FFE2CFDAFFFD0E10
:10105000DBCF11F011C010F0030E1114AA6EFF0EB9
:10106000E76EFC0EDBCF10F0E7501016116A10503F
:10107000A96EFB0EDB50A86EA69EA69CA684F29ECF
:10108000550EA76EAA0EA76EA682F28EA694E55202
:0A109000E5CFDAFFE7CFD9FF120029
:06109A000D0A000A0D0022
:1010A000302000525354204F424A0A0D00525354EC
:1010B000204F424A202D20424F520A0D00525354D5
:1010C000204F424A202D20504F520A0D00525354B7
:1010D000204F424A202D204D434C520A0D005253BE
:1010E00054204F424A202D205744540A0D00307896
:0410F000003062006A
:0C10F400D9CFE6FFDACFE6FFE1CFD9FF4D
:10110000E2CFDAFFFD0EDBCF11F011C010F0030EBD
:101110001114AA6EFF0EE76EFC0EDBCF10F0E75045
:101120001016116A1050A96EA69CA69EA680A85003
:0C113000E552E5CFDAFFE7CFD9FF12004F
:04113C00D9CFE6FF22
:10114000DACFE6FFE1CFD9FFE2CFDAFFE652E6528F
:10115000D650DF6E010ED7CFDBFFDECF10F0DDCF34
:1011600011F010C0F3FF11C0F4FFE552E552E55253
:0A117000E5CFDAFFE7CFD9FF120048
:06117A00D9CFE6FFDACF39
:10118000E6FFE1CFD9FFE2CFDAFFE652E652FC0EEE
:10119000DBCFDEFFDBCFDDFF010EDB50D76EDF5094
:1011A000D66EE552E552E552E5CFDAFFE7CFD9FF3B
:0211B00012002B
:0E11B200D9CFE6FFDACFE6FFE1CFD9FFE2CFDB
:1011C000DAFFFD0EDB507F0BD56ED76AD66AF2943C
:1011D000FD0EDBAE02D0F28A01D0F29AD58EE55236
:0A11E000E5CFDAFFE7CFD9FF1200D8
:0611EA00FF0EE350156E3C
:1011F000EF0E01D0F30EE76EE72EFCEF08F00C0EB9
:10120000146EE76AE72E02EF09F0142E01EF09F0E1
:08121000152EFAEF08F01200A0
:08121800036A026A100EE76E82
:10122000D89006360736023603360B50025C0C5057
:10123000035805E30B50025E0C50035A062AE72EB2
:04124000F0D71200D1
:0C124400D0A20FD0D0A40CD0D0A009D0B4
:10125000D0A6000CD0A8000CFCBE000CFCBC000CFE
:08126000010C000C000C000C55
:081268001CEE00F02CEE00F07A
:10127000F86A0F9C8FEC07F003EC00F086EC00F0AE
:04128000FBD7120086
:0C128400036A080EE76ED89007360336A8
:101290000C50035C02E3036E072AE72EF7D7120017
:1012A000D0A209D0D0A406D0D0A003D0D0B6000CD4
:0812B000010C000C000C000C05
:0812B800D0B209D0D0A406D089
:1012C000D0B003D0D0A6000C010C000C000C000C18
:1012D000FF0EE350E84E1200000000D000D000D016
:0612E000E82EFAD712000F
:0A12E60000EE00F00D0EEE6AEA6261
:0412F000FDD7120014
:0C12F400D0B003D0D0A2000C010C000C04
:06130000A6B2FED71200A8
:0A13060030313233343536373839D0
:0613100041424344454642
:071316000000000000000AC6
:03131D000000329B
:101320000032003200000000000000000000FFFF5B
:0113300000BC
:020000040030CA
:0100010008F6
:010003001EDE
:010005008278
:00000001FF
