:020000040000FA
:06000000E5EF0AF012001A
:020006001200E6
:0600080022EF00F01200DF
:02000E00C250DE
:08001000020B01E0010E1200D9
:0600180073EF00F012007E
:02001E000300DD
:100020009B1600009D0000001700000094160000C1
:10003000BE0000000700000084160000F001000070
:0400400010000000AC
:0C004400DACFE4FFE2CFDAFFE9CFE4FFFF
:10005000EACFE4FFF6CFE4FFF7CFE4FFF5CFE4FF0C
:10006000F3CFE4FFF4CFE4FFFACFE4FF00EE00F0BB
:10007000100EE80403E3EECFE4FFFBD700EE10F030
:10008000040EE80403E3EECFE4FFFBD7E6529E50F4
:10009000100B03E19E50200B02E0E4EC07F0E55268
:1000A00000EE13F0040EE80403E3E5CFEDFFFBD709
:1000B00000EE0FF0100EE80403E3E5CFEDFFFBD7F1
:1000C000E5CFFAFFE5CFF4FFE5CFF3FFE5CFF5FF8E
:1000D000E5CFF7FFE5CFF6FFE5CFEAFFE5CFE9FF94
:1000E000E5CFDAFF1100D8CFE4FFE0CFE4FFE46E04
:1000F000DACFE4FFE2CFDAFFE652E552E5CFDAFFEE
:10010000E550E5CFE0FFE5CFD8FF100000019A6B86
:100110009B6BDFD9F8EC08F0D6EC07F09288928A56
:10012000929E808E100EE66E8AEC0AF0E552630E07
:10013000E66EA6EC0AF0E55201EC0BF0000909E0CE
:10014000400EE66E140EE66EFEEC04F0E552E5524B
:100150002FD0D3EC0AF0000909E02F0EE66E140E42
:10016000E66EFEEC04F0E552E55222D00DEC0BF009
:10017000000909E01F0EE66E140EE66EFEEC04F0B8
:10018000E552E55215D034EC0BF0000909E00F0EF2
:10019000E66E140EE66EFEEC04F0E552E55208D071
:1001A000050EE66E140EE66EFEEC04F0E552E55226
:1001B0003AEC0BF04BEC08F0000901E0D9D000015B
:1001C000AEA114D09C0EE66E000EE66ECCEC08F0EC
:1001D000E552E5520001B051EA6A7A0FE96E000E6D
:1001E000EA229CC0EFFF0001B02B0CD00001AE81D1
:1001F0009C0EE66E000EE66ECCEC08F0E552E55281
:100200009CC0AFF00001AF51610A01E1A8D0010A22
:1002100001E1A0D0620A66E0030A07E0310A01E0CA
:10022000A3D0FF000001AE91A2D0030E0001B05D8B
:1002300005E100017C510001B16FB26B0001B11DFD
:1002400001E1B21D4EE00001B051106E116A030EC3
:100250000001136AB125126EB25113221250101808
:1002600002E1135011183DE17AC09BF07BC09AF077
:100270000001B36B0001B351106E116A00011150FF
:10028000B219E8AE02D0B23504D0B151105CB2510F
:1002900011581CE2030E0001B325EA6A7A0FE96ED9
:1002A000000EEA22EF50E66E9AC0E6FF9BC0E6FF22
:1002B000D0EC09F0E552E552E5523DEC0BF00001BF
:1002C0009A2B000E9B230001B32BD4D70001B169F8
:1002D000B26900019A6B9B6BFCD80001AE910001E2
:1002E000B06B45D0020E0001B05D2BE17AC09BF0EF
:1002F0007BC09AF09AC0E6FF9BC0E6FF2BEC0AF0A9
:10030000E552E5520001B36F020EE66E140EE66E82
:10031000FEEC04F0E552E552B3C0E6FF0FEC07F047
:10032000E552FF0EE66E130EE66EFEEC04F0E552AB
:10033000E55200019A6B9B6B0001AE910001B06B1E
:1003400008D00001B051020804E20001AE910001A2
:10035000B06B0DD00001AE830001AE9108D000015A
:10036000AE850001AE9103D00001AE9100D022D73E
:100370000001AEA303D03ADA0001AE930001AEB59E
:10038000809E80AA53D064C010F065C011F0126A3C
:10039000136A0001A95110180CE10001AA511118AB
:1003A00008E10001AB51121804E10001AC5113182F
:1003B00000E122E10001A92B000EAA23AB23AC230C
:1003C0000001AD5105E1808E0001010EAD6F06D038
:1003D0000001AD0503E1809E0001AD6B760EE66E77
:1003E000F0EC04F0E552FF0EE66E130EE66EFEEC46
:1003F00004F0E552E55219D064C010F065C011F068
:10040000126A136A10500001A95D11500001AA5927
:1004100012500001AB5913500001AC5906E2000123
:10042000A92B000EAA23AB23AC2305D00001A96B96
:10043000AA6BAB6BAC6B80A845D062C010F063C0F8
:1004400011F0126A136A0001A55110180CE10001A5
:10045000A651111808E10001A751121804E100018A
:10046000A851131800E114E1700EE66EF0EC04F0F0
:10047000E552FF0EE66E130EE66EFEEC04F0E5525A
:10048000E5520001A52B000EA623A723A82319D00F
:1004900062C010F063C011F0126A136A10500001BC
:1004A000A55D11500001A65912500001A759135023
:1004B0000001A85906E20001A52B000EA623A723E0
:1004C000A82305D00001A56BA66BA76BA86B72D6FD
:1004D0001200000EE66EE66A2BEC0AF0E552E552D9
:1004E000106E10C011F0106A10C0E6FF11C0E6FFD8
:1004F000010EE66EE66A2BEC0AF0E552E552E55293
:10050000E7CF11F0E552E7CF10F000011010626F55
:1005100011C063F0020EE66EE66A2BEC0AF0E552BB
:10052000E552106E10C011F0106A10C0E6FF11C045
:10053000E6FF030EE66EE66A2BEC0AF0E552E552A2
:10054000E552E7CF11F0E552E7CF10F000011010AF
:10055000646F11C065F0040EE66EE66A2BEC0AF0DB
:10056000E552E552106E10C011F0106A10C0E6FF9F
:1005700011C0E6FF050EE66EE66A2BEC0AF0E552C6
:10058000E552E552E7CF11F0E552E7CF10F0000158
:100590001010666F11C067F0060EE66EE66A2BEC6F
:1005A0000AF0E552E552106E10C011F0106A10C04A
:1005B000E6FF11C0E6FF070EE66EE66A2BEC0AF0D6
:1005C000E552E552E552E7CF11F0E552E7CF10F0E2
:1005D00000011010686F11C069F0080EE66EE66A3F
:1005E0002BEC0AF0E552E552106E10C011F0106AC3
:1005F00010C0E6FF11C0E6FF090EE66EE66A2BECBE
:100600000AF0E552E552E552E7CF11F0E552E7CFA7
:1006100010F0000110106A6F11C06BF00A0EE66E48
:10062000E66A2BEC0AF0E552E552106E10C011F0AC
:10063000106A10C0E6FF11C0E6FF0B0EE66EE66A18
:100640002BEC0AF0E552E552E552E7CF11F0E55206
:10065000E7CF10F0000110106C6F11C06DF00C0EA0
:10066000E66EE66A2BEC0AF0E552E552106E10C019
:1006700011F0106A10C0E6FF11C0E6FF0D0EE66E25
:10068000E66A2BEC0AF0E552E552E552E7CF11F0AD
:10069000E552E7CF10F0000110106E6F11C06FF03F
:1006A0000E0EE66EE66A2BEC0AF0E552E552106E8D
:1006B00010C011F0106A10C0E6FF11C0E6FF0F0E67
:1006C000E66EE66A2BEC0AF0E552E552E552E7CF1A
:1006D00011F0E552E7CF10F000011010706F11C05B
:1006E00071F0100EE66EE66A2BEC0AF0E552E55268
:1006F000106E10C011F0106A10C0E6FF11C0E6FFC6
:10070000110EE66EE66A2BEC0AF0E552E552E55270
:10071000E7CF11F0E552E7CF10F000011010726F33
:1007200011C073F0120EE66EE66A2BEC0AF0E55289
:10073000E552106E10C011F0106A10C0E6FF11C033
:10074000E6FF130EE66EE66A2BEC0AF0E552E55280
:10075000E552E7CF11F0E552E7CF10F0000110109D
:10076000746F11C075F0140EE66EE66A2BEC0AF099
:10077000E552E552106E10C011F0106A10C0E6FF8D
:1007800011C0E6FF150EE66EE66A2BEC0AF0E552A4
:10079000E552E552E7CF11F0E552E7CF10F0000146
:1007A0001010766F11C077F0160EE66EE66A2BEC2D
:1007B0000AF0E552E552106E10C011F0106A10C038
:1007C000E6FF11C0E6FF170EE66EE66A2BEC0AF0B4
:1007D000E552E552E552E7CF11F0E552E7CF10F0D0
:1007E00000011010786F11C079F01200929280927F
:1007F000070EE66E19EC0BF0E5528082100EE66EE5
:1008000019EC0BF0E5528092928280A2FED7000E86
:10081000E66EE66A6EEC0AF0E552E55280B2FED76B
:100820004FEC0AF0F3CF9DF0F4CF9EF09DC09FF007
:100830009EC0A0F0020E0F0B000105E0D890A0337F
:100840009F33E806FBE140EC0BF007EC00F00009F9
:1008500001E0FBD724EC0BF0F3CFA1F0F4CFA2F032
:1008600000019F510001665D0001A0510001675920
:1008700031E20001A1510001685D0001A2510001B7
:10088000695928E2720EE66EF0EC04F0E552200E93
:10089000E66EF0EC04F0E5529FC0E6FFA0C0E6FF74
:1008A000FBEC05F0E552E552200EE66EF0EC04F0AC
:1008B000E552A1C0E6FFA2C0E6FFFBEC05F0E55261
:1008C000E552FC0EE66E130EE66EFEEC04F0E55209
:1008D000E55270D000019F5100016A5D0001A051F6
:1008E00000016B5940E26C5100019F5D00016D51A8
:1008F0000001A05938E2A15100016E5D0001A25132
:1009000000016F5930E270510001A15D0001715189
:100910000001A25928E2740EE66EF0EC04F0E552F4
:10092000200EE66EF0EC04F0E5529FC0E6FFA0C09A
:10093000E6FFFBEC05F0E552E552200EE66EF0EC2A
:1009400004F0E552A1C0E6FFA2C0E6FFFBEC05F013
:10095000E552E552FC0EE66E130EE66EFEEC04F078
:10096000E552E55227D0730EE66EF0EC04F0E55246
:10097000200EE66EF0EC04F0E5529FC0E6FFA0C04A
:10098000E6FFFBEC05F0E552E552200EE66EF0ECDA
:1009900004F0E552A1C0E6FFA2C0E6FFFBEC05F0C3
:1009A000E552E552FC0EE66E130EE66EFEEC04F028
:0609B000E552E5521200C1
:0A09B6009EAA02D0010E02D0000E2E
:1009C00000D01200D9CFE6FFE1CFD9FFE652AE50FA
:1009D000DF6EDF5000D0E552E552E7CFD9FF1200BD
:1009E000D9CFE6FFE1CFD9FFFE0EDBCFE6FF5EEC0D
:1009F00008F0E552E552E7CFD9FF1200D9CFE6FF64
:100A0000E1CFD9FFFD0EDBCFF6FFFE0EDBCFF7FF08
:100A10000800F550E66EE4DFE552FD0EDB2ADBCF81
:100A2000F6FFFE0E01E3DB2ADBCFF7FF0800F550EF
:100A3000E9E1E552E7CFD9FF1200D9CFE6FFE1CFD8
:100A4000D9FF020EE126DE52800EDD6E530EE66EF9
:100A5000140EE66ED3DFE552E552DF6A080EDF5C66
:100A60001AE2010EDBCFE6FFFE0EDB50E552E71483
:100A700005E0310EE66EB4DFE55204D0300EE66ECE
:100A8000AFDFE552010EDBCFF3FFF390F342F3CF7C
:100A9000DBFFDF2AE3D7020EE15C02E2E16AE55206
:100AA000E16EE552E7CFD9FF1200D9CFE6FFE1CFE3
:100AB000D9FF030EE126010EDB6A800EF36E020EF3
:100AC000F3CFDBFF530EE66E140EE66E97DFE552B2
:100AD000E552DF6A100EDF5C2AE2010EDBCF12F076
:100AE000020EDBCF13F0FD0EDB501214106EFE0E63
:100AF000DB501314116E1050111005E0310EE66E2C
:100B00006FDFE55204D0300EE66E6ADFE552D95051
:100B1000010FE96EDACFEAFF010E0F0B06E0EC528F
:100B2000D890ED32EF32E806FAE1DF2AD3D7030E90
:100B3000E15C02E2E16AE552E16EE552E7CFD9FFFE
:100B40001200D9CFE6FFE1CFD9FFE652FE0EDB500F
:100B5000DF6E640E106E10C00CF0DFCF07F0F3EC08
:100B60000AF007500DE0640E106E10C00CF0DFCFDD
:100B700007F0F3EC0AF00750300FE66E31DFE55274
:100B8000640E106E10C00CF0DFCF07F0F3EC0AF02B
:100B90000750640DF350DF5CDF6E0A0E106E10C05C
:100BA0000CF0DFCF07F0F3EC0AF007500DE00A0E6F
:100BB000106E10C00CF0DFCF07F0F3EC0AF0075016
:100BC000300FE66E0DDFE5520A0E106E10C00CF00D
:100BD000DFCF07F0F3EC0AF007500A0DF350DF5CAB
:100BE000DF6E300EDF24E66EFBDEE552E552E552A5
:100BF000E7CFD9FF1200D9CFE6FFE1CFD9FF020E30
:100C0000E126FD0EDBCFDEFFDBCFDDFFDECF10F018
:100C1000DDCF11F0100E0B6E270E0C6E10C006F01B
:100C200011C007F0BDEC0AF006C010F007C011F0CB
:100C3000300E1024E66ED4DEE552DECF12F0DDCFAA
:100C400013F0100E0B6E270E0C6E12C006F013C0C0
:100C500007F0BDEC0AF006C012F007C013F0100E4A
:100C60001302F3CF13F0270E1202F3501326100EC7
:100C70001202F3CF12F0F45013261250DE5C106E05
:100C80001350DD58116E10C0DEFF11C0DDFFDECF46
:100C900010F0DDCF11F0E80E0B6E030E0C6E10C0DD
:100CA00006F011C007F0BDEC0AF006C010F007C056
:100CB00011F0300E1024E66E93DEE552DECF12F016
:100CC000DDCF13F0E80E0B6E030E0C6E12C006F0B3
:100CD00013C007F0BDEC0AF006C012F007C013F015
:100CE000E80E1302F3CF13F0030E1202F350132693
:100CF000E80E1202F3CF12F0F45013261250DE5C0D
:100D0000106E1350DD58116E10C0DEFF11C0DDFFF4
:100D1000DECF10F0DDCF11F0640E0B6E0C6A10C048
:100D200006F011C007F0BDEC0AF006C010F007C0D5
:100D300011F0300E1024E66E53DEE552DECF12F0D5
:100D4000DDCF13F0640E0B6E0C6A12C006F013C0F8
:100D500007F0BDEC0AF006C012F007C013F0640EF5
:100D60001302F3CF13F01202F3CF12F0F450132654
:100D70001250DE5C106E1350DD58116E10C0DEFF95
:100D800011C0DDFFDECF10F0DDCF11F00A0E0B6ECB
:100D90000C6A10C006F011C007F0BDEC0AF006C0E6
:100DA00010F007C011F0300E1024E66E19DEE55287
:100DB000DECF12F0DDCF13F00A0E0B6E0C6A12C0FC
:100DC00006F013C007F0BDEC0AF006C012F007C031
:100DD00013F00A0E1302F3CF13F01202F3CF12F046
:100DE000F45013261250DE5C106E1350DD58116E55
:100DF00010C0DEFF11C0DDFFDECF10F0DDCF11F03F
:100E0000300E1024E66EECDDE552020EE15C02E2EB
:100E1000E16AE552E16EE552E7CFD9FF1200D9CF82
:100E2000E6FFE1CFD9FF020EE126500EE66E140E6A
:100E3000E66EE4DDE552E552FE0EDB380F0B0F0BDC
:100E4000DE6EDD6ADECFE9FFDDCFEAFFF00EE926D8
:100E5000010EEA22EF50E66EC3DDE552FE0EDB50D6
:100E60000F0BDE6EDD6ADECFE9FFDDCFEAFFF00EAD
:100E7000E926010EEA22EF50E66EB2DDE552020EDF
:100E8000E15C02E2E16AE552E16EE552E7CFD9FFAB
:100E90001200D9CFE6FFE1CFD9FF020EE126500EB6
:100EA000E66E140EE66EAADDE552E552FD0EDBCFCE
:100EB00010F0FE0EDBCF11F01138116A0F0B106E1F
:100EC0000F0E1016000E111610C0DEFF11C0DDFF50
:100ED000DECFE9FFDDCFEAFFF00EE926010EEA22C0
:100EE000EF50E66E7DDDE552FD0EDBCF10F0FE0E1D
:100EF000DBCF11F011C010F0116A0F0E1016000EAA
:100F0000111610C0DEFF11C0DDFFDECFE9FFDDCF1F
:100F1000EAFFF00EE926010EEA22EF50E66E60DDF0
:100F2000E552FD0EDBCF10F0FE0EDBCF11F0040E0C
:100F3000D89011321032E804FBE10F0E1016000EAB
:100F4000111610C0DEFF11C0DDFFDECFE9FFDDCFDF
:100F5000EAFFF00EE926010EEA22EF50E66E40DDD0
:100F6000E5520F0EE76EFD0EDBCF10F0FE0EDBCF6D
:100F700011F0E7501016116A10C0DEFF11C0DDFF3E
:100F8000DECFE9FFDDCFEAFFF00EE926010EEA220F
:100F9000EF50E66E25DDE552020EE15C02E2E16A09
:0C0FA000E552E16EE552E7CFD9FF1200E8
:040FAC000001BE6B17
:100FB000BF6BC06BC16BC26BC36BC491C483C49560
:100FC000C487C499C49B1200D9CFE6FFE1CFD9FFF3
:100FD000E6529D50100B01E0010E106E9E50100B5A
:100FE00001E0010E101419E00001C4B314D0BF5188
:100FF000EA6A000FE96E010EEA22EF50AD6EC4B14D
:10100000C491BE07BE5101E1C483BF2B780EBF5D02
:1010100001E1BF6B01D09D9832D09D50200B01E0C3
:10102000010E106E9E50200B01E0010E101427E0FF
:10103000ABA403D0AE50DF6E22D0ABA205D0AB98EC
:10104000AB88AE50DF6E1BD00001C4A503D0AE50FC
:10105000DF6E15D0C4B513D0C497C351EA6A780FB8
:10106000E96E010EEA22AECFEFFFC12B780EC15D13
:1010700001E1C485C32B780EC35D01E1C36BE5526A
:10108000E552E7CFD9FF12000001C451020B01E085
:10109000010E00D012000001C451080B01E0010E46
:1010A00000D012000001C451010B00D01200000159
:1010B000C451040B01E0010E00D01200D9CFE6FFAD
:1010C000E1CFD9FF0001C4B116D09D98C051EA6AA2
:1010D000000FE96E010EEA22FE0EDBCFEFFFBE2B02
:1010E000C493780EBE5D01E1C481C02B780EC05D53
:1010F00001E1C06B9D88E552E7CFD9FF1200D9CF3F
:10110000E6FFE1CFD9FF0001C4B516D09D9AC351C7
:10111000EA6A780FE96E010EEA22FE0EDBCFEFFFDE
:10112000C12BC497780EC15D01E1C485C32B780E35
:10113000C35D01E1C36B9D8AE552E7CFD9FF120081
:10114000D9CFE6FFE1CFD9FF0001C4A302D0000E42
:101150001FD09D98C491BF51EA6A000FE96E010E3D
:10116000EA22EF50E66EFD0EDBCFE9FFFE0EDBCF8D
:10117000EAFFE552E750EF6EBE07BE5101E1C483BE
:10118000BF2B780EBF5D01E1BF6B9D88010E00D0C3
:10119000E552E7CFD9FF1200D9CFE6FFE1CFD9FF63
:1011A0000001C4A702D0000E1FD09D9AC495C25161
:1011B000EA6A780FE96E010EEA22EF50E66EFD0E44
:1011C000DBCFE9FFFE0EDBCFEAFFE552E750EF6E23
:1011D000C107C15101E1C487C22B780EC25D01E194
:1011E000C26B9D8A010E00D0E552E7CFD9FF1200F5
:1011F0000AD80DD810D83ED8936A010E8A6EF36EC5
:10120000F46A00D01200700ED36E9B8C1200D08E48
:10121000F28CF28E1200D9CFE6FFE1CFD9FF020E99
:10122000E126440EDE6EDD6AAC6AAB6AAB88AC8444
:10123000B886AC9AAB9EDF50AF6EDECF10F0DDCF3C
:1012400011F011C010F0116A1050B06EAC8AAB8E64
:10125000949C948E9E9A9D8A9F8A9E989D889F8832
:10126000020EE15C02E2E16AE552E16EE552E7CF8F
:10127000D9FF120092809282928492880E0EE66EBE
:10128000040EE66EAB0EE66E99EC09F0E552E552FF
:04129000E552120011
:0C1294001E0EF66E000EF76E000EF86ED7
:1012A00000010900F550B96F0900F550BA6F03E16C
:1012B000B96701D03DD00900F550B46F0900F55071
:1012C000B56F0900F550B66F09000900F550E96ED9
:1012D0000900F550EA6E090009000900F550B76FE2
:1012E0000900F550B86F09000900F6CFBBF0F7CF41
:1012F000BCF0F8CFBDF0B4C0F6FFB5C0F7FFB6C084
:10130000F8FF0001B75302E1B85307E00900F550B8
:10131000EE6EB707F8E2B807F9D7BBC0F6FFBCC05E
:10132000F7FFBDC0F8FF0001B907000EBA5BBFD7D9
:021330001200A9
:0E133200D9CFE6FFDACFE6FFE1CFD9FFE2CF59
:10134000DAFFC26AC06AFC0EDB407F0B3C0BC26E48
:10135000FB0EDBCFE6FFFC0EDB38F00B300BE5526B
:10136000E710C16EFD0EDB50040DF350380B116E0B
:10137000FD0EDB380F0B070B106EFD0EDB50800BE4
:1013800010101110C06EFC0EDBAE03D09E9C9D8C25
:10139000F28CC280E552E5CFDAFFE7CFD9FF120029
:1013A000D9CFE6FFDACFE6FFE1CFD9FFE2CFDAFF10
:1013B000FD0EDBCF11F011C010F0030E1114AA6E58
:1013C000FF0EE76EFC0EDBCF10F0E7501016116A2F
:1013D0001050A96EFB0EDB50A86EA69EA69CA6849C
:1013E000F29E550EA76EAA0EA76EA682F28EA69446
:0C13F000E552E5CFDAFFE7CFD9FF12008D
:0413FC000D0A000ACC
:101400000D00302000525354204F424A0A0D005222
:101410005354204F424A202D20424F520A0D005271
:101420005354204F424A202D20504F520A0D005253
:101430005354204F424A202D204D434C520A0D0058
:10144000525354204F424A202D205744540A0D0035
:061450003078003062005C
:0A145600D9CFE6FFDACFE6FFE1CFC1
:10146000D9FFE2CFDAFFFD0EDBCF11F011C010F093
:10147000030E1114AA6EFF0EE76EFC0EDBCF10F008
:10148000E7501016116A1050A96EA69CA69EA68061
:0E149000A850E552E5CFDAFFE7CFD9FF1200F2
:02149E00D9CFA4
:1014A000E6FFDACFE6FFE1CFD9FFE2CFDAFFE6527F
:1014B000E652D650DF6E010ED7CFDBFFDECF10F045
:1014C000DDCF11F010C0F3FF11C0F4FFE552E5527B
:0C14D000E552E5CFDAFFE7CFD9FF1200AC
:0414DC00D9CFE6FF7F
:1014E000DACFE6FFE1CFD9FFE2CFDAFFE652E652EC
:1014F000FC0EDBCFDEFFDBCFDDFF010EDB50D76E56
:10150000DF50D66EE552E552E552E5CFDAFFE7CF80
:04151000D9FF1200ED
:0C151400D9CFE6FFDACFE6FFE1CFD9FF28
:10152000E2CFDAFFFD0EDB507F0BD56ED76AD66AAD
:10153000F294FD0EDBAE02D0F28A01D0F29AD58E83
:0C154000E552E5CFDAFFE7CFD9FF12003B
:04154C00FF0EE3505B
:10155000156EEF0E01D0F30EE76EE72EADEF0AF039
:101560000C0E146EE76AE72EB3EF0AF0142EB2EFFA
:0A1570000AF0152EABEF0AF012008E
:06157A00036A026A100E74
:10158000E76ED89006360736023603360B50025CFB
:101590000C50035805E30B50025E0C50035A062A08
:0615A000E72EF0D7120057
:0A15A600D0A20FD0D0A40CD0D0A02A
:1015B00009D0D0A6000CD0A8000CFCBE000CFCBCCE
:0A15C000000C010C000C000C000CE4
:0615CA001CEE00F02CEE07
:1015D00000F0F86A0F9C4AEC09F003EC00F086EC8E
:0615E00000F0FBD7120031
:0A15E600036A080EE76ED89007367E
:1015F00003360C50035C02E3036E072AE72EF7D78D
:021600001200D6
:0E160200D0A209D0D0A406D0D0A003D0D0B67C
:0A161000000C010C000C000C000C93
:06161A00D0B209D0D0A4FB
:1016200006D0D0B003D0D0A6000C010C000C000CEA
:02163000000CAC
:0E163200FF0EE350E84E1200000000D000D082
:0816400000D0E82EFAD71200D9
:08164800C450136E126AC35076
:0A1650001210F36E13C0F4FF120035
:06165A0000EE00F00D0E91
:08166000EE6AEA62FDD71200F8
:08166800D0B003D0D0A2000CA9
:04167000010C000C5D
:06167400D082D0801200BC
:06167A00A6B2FED712002B
:04168000C282120010
:0C168400303132333435363738394142CA
:041690004344454644
:071694000000000000000A45
:05169B0000000000004A
:1016A000000000000000000000000000000000FF3B
:0216B000FF0039
:020000040030CA
:0100010008F6
:010003001EDE
:010005008278
:00000001FF
