:020000040000FA
:0600000075EF09F012008B
:020006001200E6
:0600080022EF00F01200DF
:02000E00D0829E
:04001000D08012008A
:0600180073EF00F012007E
:02001E000300DD
:100020009F130000850000001C00000098130000D2
:10003000AB0000000700000088130000F001000082
:0400400010000000AC
:0C004400DACFE4FFE2CFDAFFE9CFE4FFFF
:10005000EACFE4FFF6CFE4FFF7CFE4FFF5CFE4FF0C
:10006000F3CFE4FFF4CFE4FFFACFE4FF00EE00F0BB
:10007000100EE80403E3EECFE4FFFBD700EE10F030
:10008000040EE80403E3EECFE4FFFBD7E6529E50F4
:10009000100B03E19E50200B02E0BCEC06F0E55291
:1000A00000EE13F0040EE80403E3E5CFEDFFFBD709
:1000B00000EE0FF0100EE80403E3E5CFEDFFFBD7F1
:1000C000E5CFFAFFE5CFF4FFE5CFF3FFE5CFF5FF8E
:1000D000E5CFF7FFE5CFF6FFE5CFEAFFE5CFE9FF94
:1000E000E5CFDAFF1100D8CFE4FFE0CFE4FFE46E04
:1000F000DACFE4FFE2CFDAFFE652E552E5CFDAFFEE
:10010000E550E5CFE0FFE5CFD8FF10000001826B9E
:10011000836B5CD91FEC08F0AEEC06F092880F0EF2
:10012000C16E100EE66E1AEC09F0E552630EE66E33
:1001300036EC09F0E55291EC09F0000909E0600E97
:10014000E66E110EE66ED6EC03F0E552E5522FD0C6
:1001500063EC09F0000909E04F0EE66E110EE66E41
:10016000D6EC03F0E552E55222D09DEC09F00009EF
:1001700009E03F0EE66E110EE66ED6EC03F0E55296
:10018000E55215D0BBEC09F0000909E02F0EE66E30
:10019000110EE66ED6EC03F0E552E55208D0250EBE
:1001A000E66E110EE66ED6EC03F0E552E55207EC72
:1001B00000F023EC07F0000901E0D1D000019BA181
:1001C00014D0840EE66E000EE66EA4EC07F0E55245
:1001D000E55200019D51EA6A620FE96E000EEA22C3
:1001E00084C0EFFF00019D2B0CD000019B81840E89
:1001F000E66E000EE66EA4EC07F0E552E55284C010
:100200009CF000019C51600A01E1A0D0520A66E016
:10021000030A07E0010A01E09ED0FF0000019B9164
:100220009DD0030E00019D5D05E1000164510001B8
:100230009E6F9F6B00019E1D01E19F1D4EE000011E
:100240009D51106E116A030E0001136A9E25126EF5
:100250009F5113221250101802E1135011183DE162
:1002600062C083F063C082F00001A06B0001A05166
:10027000106E116A000111509F19E8AE02D09F352F
:1002800004D09E51105C9F5111581CE2030E0001D6
:10029000A025EA6A620FE96E000EEA22EF50E66ED0
:1002A00082C0E6FF83C0E6FF60EC08F0E552E5524D
:1002B000E552C1EC09F00001822B000E83230001FE
:1002C000A02BD4D700019E699F690001826B836BCC
:1002D0007DD800019B9100019D6B40D0020E000172
:1002E0009D5D2BE162C083F063C082F082C0E6FFB7
:1002F00083C0E6FFBBEC08F0E552E5520001A06FB9
:10030000220EE66E110EE66ED6EC03F0E552E552D3
:10031000A0C0E6FFE7EC05F0E5521F0EE66E110EF9
:10032000E66ED6EC03F0E552E5520001826B836B7A
:1003300000019B9100019D6B08D000019D510208B6
:1003400004E200019B9100019D6B08D000019B839A
:1003500000019B9103D000019B9100D02AD700019E
:100360009BA303D0D9D800019B9380A82AD0000179
:10037000915100018F1904E100019251000190197F
:1003800012E1700EE66EC8EC03F0E5521F0EE66E49
:10039000110EE66ED6EC03F0E552E55200018F2B0C
:1003A000000E90230DD00001915100018F5D0001DE
:1003B00092510001905904E200018F2B000E90230E
:1003C00003D000018F6B906BF4D61200000EE66E26
:1003D000E66ABBEC08F0E552E552106E10C011F071
:1003E000106A10C0E6FF11C0E6FF010EE66EE66A75
:1003F000BBEC08F0E552E552E552E7CF11F0E552CB
:10040000E7CF10F000011010916F11C092F0020EB2
:10041000E66EE66ABBEC08F0E552E552106E10C0DD
:1004200011F0106A10C0E6FF11C0E6FF030EE66E81
:10043000E66ABBEC08F0E552E552E552E7CF11F071
:10044000E552E7CF10F000011010936F11C094F047
:10045000040EE66EE66ABBEC08F0E552E552106E5B
:1004600010C011F0106A10C0E6FF11C0E6FF050EC3
:10047000E66EE66ABBEC08F0E552E552E552E7CFDE
:1004800011F0E552E7CF10F000011010956F11C088
:1004900096F0060EE66EE66ABBEC08F0E552E55211
:1004A000106E10C011F0106A10C0E6FF11C0E6FF18
:1004B000070EE66EE66ABBEC08F0E552E552E5523F
:1004C000E7CF11F0E552E7CF10F000011010976F61
:1004D00011C098F0080EE66EE66ABBEC08F0E55233
:1004E000E552106E10C011F0106A10C0E6FF11C086
:1004F000E6FF090EE66EE66ABBEC08F0E552E5524F
:10050000E552E7CF11F0E552E7CF10F000011010EF
:10051000996F11C09AF0120000018D6B8E6B8D2BBC
:10052000000E8E2392928092070EE66EA9EC09F0DF
:10053000E5528082100EE66EA9EC09F0E552809239
:10054000928280A2FED7000EE66EE66AFEEC08F00C
:10055000E552E55280B2FED7DFEC08F0F3CF85F02C
:10056000F4CF86F08DC0E9FF8EC0EAFFD890E9365F
:10057000EA36870EE926000EEA2285C0EEFF86C025
:10058000EDFF00018D2B000E8E2392948094070EB8
:10059000E66EA9EC09F0E5528084100EE66EA9EC37
:1005A00009F0E5528094928480A4FED7000EE66E96
:1005B000E66AFEEC08F0E552E55280B4FED7DFECC7
:1005C00008F0F3CF85F0F4CF86F08DC0E9FF8EC040
:1005D000EAFFD890E936EA36870EE926000EEA22CD
:1005E00085C0EEFF86C0EDFF00019751895D9851EF
:1005F0008A592DE295518B5D96518C5928E2740EE3
:10060000E66EC8EC03F0E552200EE66EC8EC03F08F
:10061000E55289C0E6FF8AC0E6FFD3EC04F0E5525C
:10062000E552200EE66EC8EC03F0E5528BC0E6FF03
:100630008CC0E6FFD3EC04F0E552E5521C0EE66EEA
:10064000110EE66ED6EC03F0E552E5528BD09751D1
:10065000895D98518A592DE28B51955D8C5196593F
:1006600028E2730EE66EC8EC03F0E552200EE66E4B
:10067000C8EC03F0E55289C0E6FF8AC0E6FFD3EC80
:1006800004F0E552E552200EE66EC8EC03F0E552A8
:100690008BC0E6FF8CC0E6FFD3EC04F0E552E552D8
:1006A0001C0EE66E110EE66ED6EC03F0E552E55236
:1006B00059D08951975D8A5198592DE28B51955D9A
:1006C0008C51965928E2720EE66EC8EC03F0E552A2
:1006D000200EE66EC8EC03F0E55289C0E6FF8AC042
:1006E000E6FFD3EC04F0E552E552200EE66EC8ECCE
:1006F00003F0E5528BC0E6FF8CC0E6FFD3EC04F0BC
:10070000E552E5521C0EE66E110EE66ED6EC03F0D5
:10071000E552E55227D0750EE66EC8EC03F0E552BF
:10072000200EE66EC8EC03F0E55289C0E6FF8AC0F1
:10073000E6FFD3EC04F0E552E552200EE66EC8EC7D
:1007400003F0E5528BC0E6FF8CC0E6FFD3EC04F06B
:10075000E552E5521C0EE66E110EE66ED6EC03F085
:06076000E552E552120013
:0A0766009EAA02D0010E02D0000E80
:1007700000D01200D9CFE6FFE1CFD9FFE652AE504C
:10078000DF6EDF5000D0E552E552E7CFD9FF12000F
:10079000D9CFE6FFE1CFD9FFFE0EDBCFE6FF36EC87
:1007A00007F0E552E552E7CFD9FF1200D9CFE6FFB7
:1007B000E1CFD9FFFD0EDBCFF6FFFE0EDBCFF7FF5B
:1007C0000800F550E66EE4DFE552FD0EDB2ADBCFD4
:1007D000F6FFFE0E01E3DB2ADBCFF7FF0800F55042
:1007E000E9E1E552E7CFD9FF1200D9CFE6FFE1CF2B
:1007F000D9FF020EE126DE52800EDD6E730EE66E2C
:10080000110EE66ED3DFE552E552DF6A080EDF5CBB
:100810001AE2010EDBCFE6FFFE0EDB50E552E714D5
:1008200005E0310EE66EB4DFE55204D0300EE66E20
:10083000AFDFE552010EDBCFF3FFF390F342F3CFCE
:10084000DBFFDF2AE3D7020EE15C02E2E16AE55258
:10085000E16EE552E7CFD9FF1200D9CFE6FFE1CF35
:10086000D9FF030EE126010EDB6A800EF36E020E45
:10087000F3CFDBFF730EE66E110EE66E97DFE552E7
:10088000E552DF6A100EDF5C2AE2010EDBCF12F0C8
:10089000020EDBCF13F0FD0EDB501214106EFE0EB5
:1008A000DB501314116E1050111005E0310EE66E7E
:1008B0006FDFE55204D0300EE66E6ADFE552D950A4
:1008C000010FE96EDACFEAFF010E0F0B06E0EC52E2
:1008D000D890ED32EF32E806FAE1DF2AD3D7030EE3
:1008E000E15C02E2E16AE552E16EE552E7CFD9FF51
:1008F0001200D9CFE6FFE1CFD9FFE652FE0EDB5062
:10090000DF6E640E106E10C00CF0DFCF07F083ECCA
:1009100009F007500DE0640E106E10C00CF0DFCF30
:1009200007F083EC09F00750300FE66E31DFE55237
:10093000640E106E10C00CF0DFCF07F083EC09F0EE
:100940000750640DF350DF5CDF6E0A0E106E10C0AE
:100950000CF0DFCF07F083EC09F007500DE00A0E32
:10096000106E10C00CF0DFCF07F083EC09F00750D9
:10097000300FE66E0DDFE5520A0E106E10C00CF05F
:10098000DFCF07F083EC09F007500A0DF350DF5C6E
:10099000DF6E300EDF24E66EFBDEE552E552E552F7
:1009A000E7CFD9FF1200D9CFE6FFE1CFD9FF020E82
:1009B000E126FD0EDBCFDEFFDBCFDDFFDECF10F06B
:1009C000DDCF11F0100E0B6E270E0C6E10C006F06E
:1009D00011C007F04DEC09F006C010F007C011F08F
:1009E000300E1024E66ED4DEE552DECF12F0DDCFFD
:1009F00013F0100E0B6E270E0C6E12C006F013C013
:100A000007F04DEC09F006C012F007C013F0100E0D
:100A10001302F3CF13F0270E1202F3501326100E19
:100A20001202F3CF12F0F45013261250DE5C106E57
:100A30001350DD58116E10C0DEFF11C0DDFFDECF98
:100A400010F0DDCF11F0E80E0B6E030E0C6E10C02F
:100A500006F011C007F04DEC09F006C010F007C019
:100A600011F0300E1024E66E93DEE552DECF12F068
:100A7000DDCF13F0E80E0B6E030E0C6E12C006F005
:100A800013C007F04DEC09F006C012F007C013F0D8
:100A9000E80E1302F3CF13F0030E1202F3501326E5
:100AA000E80E1202F3CF12F0F45013261250DE5C5F
:100AB000106E1350DD58116E10C0DEFF11C0DDFF47
:100AC000DECF10F0DDCF11F0640E0B6E0C6A10C09B
:100AD00006F011C007F04DEC09F006C010F007C099
:100AE00011F0300E1024E66E53DEE552DECF12F028
:100AF000DDCF13F0640E0B6E0C6A12C006F013C04B
:100B000007F04DEC09F006C012F007C013F0640EB8
:100B10001302F3CF13F01202F3CF12F0F4501326A6
:100B20001250DE5C106E1350DD58116E10C0DEFFE7
:100B300011C0DDFFDECF10F0DDCF11F00A0E0B6E1D
:100B40000C6A10C006F011C007F04DEC09F006C0A9
:100B500010F007C011F0300E1024E66E19DEE552D9
:100B6000DECF12F0DDCF13F00A0E0B6E0C6A12C04E
:100B700006F013C007F04DEC09F006C012F007C0F4
:100B800013F00A0E1302F3CF13F01202F3CF12F098
:100B9000F45013261250DE5C106E1350DD58116EA7
:100BA00010C0DEFF11C0DDFFDECF10F0DDCF11F091
:100BB000300E1024E66EECDDE552020EE15C02E23E
:100BC000E16AE552E16EE552E7CFD9FF1200D9CFD5
:100BD000E6FFE1CFD9FF020EE126700EE66E110EA0
:100BE000E66EE4DDE552E552FE0EDB380F0B0F0B2F
:100BF000DE6EDD6ADECFE9FFDDCFEAFFF00EE9262B
:100C0000010EEA22EF50E66EC3DDE552FE0EDB5028
:100C10000F0BDE6EDD6ADECFE9FFDDCFEAFFF00EFF
:100C2000E926010EEA22EF50E66EB2DDE552020E31
:100C3000E15C02E2E16AE552E16EE552E7CFD9FFFD
:100C40001200D9CFE6FFE1CFD9FF020EE126700EE8
:100C5000E66E110EE66EAADDE552E552FD0EDBCF23
:100C600010F0FE0EDBCF11F01138116A0F0B106E71
:100C70000F0E1016000E111610C0DEFF11C0DDFFA2
:100C8000DECFE9FFDDCFEAFFF00EE926010EEA2212
:100C9000EF50E66E7DDDE552FD0EDBCF10F0FE0E6F
:100CA000DBCF11F011C010F0116A0F0E1016000EFC
:100CB000111610C0DEFF11C0DDFFDECFE9FFDDCF72
:100CC000EAFFF00EE926010EEA22EF50E66E60DD43
:100CD000E552FD0EDBCF10F0FE0EDBCF11F0040E5F
:100CE000D89011321032E804FBE10F0E1016000EFE
:100CF000111610C0DEFF11C0DDFFDECFE9FFDDCF32
:100D0000EAFFF00EE926010EEA22EF50E66E40DD22
:100D1000E5520F0EE76EFD0EDBCF10F0FE0EDBCFBF
:100D200011F0E7501016116A10C0DEFF11C0DDFF90
:100D3000DECFE9FFDDCFEAFFF00EE926010EEA2261
:100D4000EF50E66E25DDE552020EE15C02E2E16A5B
:0C0D5000E552E16EE552E7CFD9FF12003A
:040D5C000001AB6B7C
:100D6000AC6BAD6BAE6BAF6BB06BB191B183B1954A
:100D7000B187B199B19B1200D9CFE6FFE1CFD9FF7E
:100D8000E6529D50100B01E0010E106E9E50100BAC
:100D900001E0010E101419E00001B1B314D0AC5100
:100DA000EA6A000FE96E010EEA22EF50AD6EB1B1B2
:100DB000B191AB07AB5101E1B183AC2B780EAC5DC7
:100DC00001E1AC6B01D09D9832D09D50200B01E029
:100DD000010E106E9E50200B01E0010E101427E052
:100DE000ABA403D0AE50DF6E22D0ABA205D0AB983F
:100DF000AB88AE50DF6E1BD00001B1A503D0AE5062
:100E0000DF6E15D0B1B513D0B197B051EA6A780F43
:100E1000E96E010EEA22AECFEFFFAE2B780EAE5D8B
:100E200001E1B185B02B780EB05D01E1B06BE55208
:100E3000E552E7CFD9FF12000001B151020B01E0EA
:100E4000010E00D012000001B151080B01E0010EAB
:100E500000D012000001B151010B00D012000001BE
:100E6000B151040B01E0010E00D01200D9CFE6FF12
:100E7000E1CFD9FF0001B1B116D09D98AD51EA6A1A
:100E8000000FE96E010EEA22FE0EDBCFEFFFAB2B67
:100E9000B193780EAB5D01E1B181AD2B780EAD5D04
:100EA00001E1AD6B9D88E552E7CFD9FF1200D9CFA4
:100EB000E6FFE1CFD9FF0001B1B516D09D9AB05140
:100EC000EA6A780FE96E010EEA22FE0EDBCFEFFF31
:100ED000AE2BB197780EAE5D01E1B185B02B780EE7
:100EE000B05D01E1B06B9D8AE552E7CFD9FF1200FA
:100EF000D9CFE6FFE1CFD9FF0001B1A302D0000EA8
:100F00001FD09D98B191AC51EA6A000FE96E010EB5
:100F1000EA22EF50E66EFD0EDBCFE9FFFE0EDBCFDF
:100F2000EAFFE552E750EF6EAB07AB5101E1B18349
:100F3000AC2B780EAC5D01E1AC6B9D88010E00D04E
:100F4000E552E7CFD9FF1200D9CFE6FFE1CFD9FFB5
:100F50000001B1A702D0000E1FD09D9AB195AF51EC
:100F6000EA6A780FE96E010EEA22EF50E66EFD0E96
:100F7000DBCFE9FFFE0EDBCFEAFFE552E750EF6E75
:100F8000AE07AE5101E1B187AF2B780EAF5D01E145
:100F9000AF6B9D8A010E00D0E552E7CFD9FF12005A
:100FA0001E0EF66E000EF76E000EF86E00010900C0
:100FB000F550A66F0900F550A76F03E1A66701D0B1
:100FC0003DD00900F550A16F0900F550A26F09004E
:100FD000F550A36F09000900F550E96E0900F550BE
:100FE000EA6E090009000900F550A46F0900F550E8
:100FF000A56F09000900F6CFA8F0F7CFA9F0F8CF48
:10100000AAF0A1C0F6FFA2C0F7FFA3C0F8FF00013D
:10101000A45302E1A55307E00900F550EE6EA407C2
:10102000F8E2A507F9D7A8C0F6FFA9C0F7FFAAC044
:0E103000F8FF0001A607000EA75BBFD7120055
:02103E0009D8CF
:101040000CD80FD8936A010E8A6EF36EF46A00D042
:101050001200700ED36E9B8C1200D08EF28CF28E2A
:101060001200D9CFE6FFE1CFD9FF020EE126440EF0
:10107000DE6EDD6AAC6AAB6AAB88AC84B886AC9ACB
:10108000AB9EDF50AF6EDECF10F0DDCF11F011C0A0
:1010900010F0116A1050B06EAC8AAB8E949C948E96
:1010A0009E9A9D8A9F8A9E989D889F88020EE15CE9
:1010B00002E2E16AE552E16EE552E7CFD9FF1200A4
:1010C000D9CFE6FFDACFE6FFE1CFD9FFE2CFDAFFF3
:1010D000FD0EDBCF11F011C010F0030E1114AA6E3B
:1010E000FF0EE76EFC0EDBCF10F0E7501016116A12
:1010F0001050A96EFB0EDB50A86EA69EA69CA6847F
:10110000F29E550EA76EAA0EA76EA682F28EA69428
:0C111000E552E5CFDAFFE7CFD9FF12006F
:04111C000D0A000AAE
:101120000D00302000525354204F424A0A0D005205
:101130005354204F424A202D20424F520A0D005254
:101140005354204F424A202D20504F520A0D005236
:101150005354204F424A202D204D434C520A0D003B
:10116000525354204F424A202D205744540A0D0018
:061170003078003062003F
:0A117600D9CFE6FFDACFE6FFE1CFA4
:10118000D9FFE2CFDAFFFD0EDBCF11F011C010F076
:10119000030E1114AA6EFF0EE76EFC0EDBCF10F0EB
:1011A000E7501016116A1050A96EA69CA69EA68044
:0E11B000A850E552E5CFDAFFE7CFD9FF1200D5
:0211BE00D9CF87
:1011C000E6FFDACFE6FFE1CFD9FFE2CFDAFFE65262
:1011D000E652D650DF6E010ED7CFDBFFDECF10F028
:1011E000DDCF11F010C0F3FF11C0F4FFE552E5525E
:0C11F000E552E5CFDAFFE7CFD9FF12008F
:0411FC00D9CFE6FF62
:10120000DACFE6FFE1CFD9FFE2CFDAFFE652E652CE
:10121000FC0EDBCFDEFFDBCFDDFF010EDB50D76E38
:10122000DF50D66EE552E552E552E5CFDAFFE7CF63
:04123000D9FF1200D0
:0C123400D9CFE6FFDACFE6FFE1CFD9FF0B
:10124000E2CFDAFFFD0EDB507F0BD56ED76AD66A90
:10125000F294FD0EDBAE02D0F28A01D0F29AD58E66
:0C126000E552E5CFDAFFE7CFD9FF12001E
:04126C00FF0EE3503E
:10127000156EEF0E01D0F30EE76EE72E3DEF09F08D
:101280000C0E146EE76AE72E43EF09F0142E42EFBE
:0A12900009F0152E3BEF09F01200E3
:06129A00036A026A100E57
:1012A000E76ED89006360736023603360B50025CDE
:1012B0000C50035805E30B50025E0C50035A062AEB
:0612C000E72EF0D712003A
:0A12C600D0A20FD0D0A40CD0D0A00D
:1012D00009D0D0A6000CD0A8000CFCBE000CFCBCB1
:0A12E000000C010C000C000C000CC7
:0612EA001CEE00F02CEEEA
:1012F00000F0F86A0F9CD0EC07F003EC00F086ECED
:0613000000F0FBD7120013
:0A130600036A080EE76ED890073660
:1013100003360C50035C02E3036E072AE72EF7D76F
:021320001200B9
:0E132200D0A209D0D0A406D0D0A003D0D0B65F
:0A133000000C010C000C000C000C76
:06133A00D0B209D0D0A4DE
:1013400006D0D0B003D0D0A6000C010C000C000CCD
:02135000000C8F
:0E135200FF0EE350E84E1200000000D000D065
:0813600000D0E82EFAD71200BC
:0813680000EE00F00D0EEE6A2C
:06137000EA62FDD7120045
:0A137600D0B003D0D0A2000C010C8F
:02138000000C5F
:06138200A6B2FED7120026
:081388003031323334353637C1
:0813900038394142434445464F
:071398000000000000000A44
:01139F00004D
:1013A000003200320032000000000014003A002C2D
:0B13B000032C030A00000000FFFF00F8
:020000040030CA
:0100010008F6
:010003001EDE
:010005008278
:00000001FF
