:020000040000FA
:06000000C4EF07F012003E
:020006001200E6
:060008006EEF03F0120090
:02000E000000F0
:05001000000000000AE1
:06001800BFEF03F012002F
:02001E000300DD
:100020000A10000084000000150000000E0000000F
:10003000A300000007000000FA0F0000F00100001C
:0400400010000000AC
:0C0044009EAA02D0010E02D0000E00D0D7
:100050001200D9CFE6FFE1CFD9FFE652AE50DF6EF6
:10006000DF5000D0E552E552E7CFD9FF1200D9CFDB
:10007000E6FFE1CFD9FFFE0EDB50AD6EACA2FED79E
:10008000E552E7CFD9FF1200D9CFE6FFE1CFD9FF84
:10009000FD0EDBCFF6FFFE0EDBCFF7FF0800F550BD
:1000A000E66EE5DFE552FD0EDB2ADBCFF6FFFE0E46
:1000B00001E3DB2ADBCFF7FF0800F550E9E1E55269
:1000C000E7CFD9FF1200D9CFE6FFE1CFD9FF020E6B
:1000D000E126DE52800EDD6EE90EE66E0F0EE66E54
:1000E000D3DFE552E552DF6A080EDF5C1AE2010E4B
:1000F000DBCFE6FFFE0EDB50E552E71405E0310EE4
:10010000E66EB5DFE55204D0300EE66EB0DFE552A4
:10011000010EDBCFF3FFF390F342F3CFDBFFDF2AD7
:10012000E3D7020EE15C02E2E16AE552E16EE552DC
:10013000E7CFD9FF1200D9CFE6FFE1CFD9FF030EF9
:10014000E126010EDB6A800EF36E020EF3CFDBFFB9
:10015000E90EE66E0F0EE66E97DFE552E552DF6AB6
:10016000100EDF5C2AE2010EDBCF12F0020EDBCFB5
:1001700013F0FD0EDB501214106EFE0EDB50131444
:10018000116E1050111005E0310EE66E70DFE55271
:1001900004D0300EE66E6BDFE552D950010FE96EE8
:1001A000DACFEAFF010E0F0B06E0EC52D890ED32E9
:1001B000EF32E806FAE1DF2AD3D7030EE15C02E270
:1001C000E16AE552E16EE552E7CFD9FF1200D9CFDF
:1001D000E6FFE1CFD9FFE652FE0EDB50DF6E640E84
:1001E000106E10C00CF0DFCF07F0D2EC07F0075014
:1001F0000DE0640E106E10C00CF0DFCF07F0D2ECF3
:1002000007F00750300FE66E32DFE552640E106ED5
:1002100010C00CF0DFCF07F0D2EC07F00750640DF0
:10022000F350DF5CDF6E0A0E106E10C00CF0DFCFF3
:1002300007F0D2EC07F007500DE00A0E106E10C068
:100240000CF0DFCF07F0D2EC07F00750300FE66E6E
:100250000EDFE5520A0E106E10C00CF0DFCF07F073
:10026000D2EC07F007500A0DF350DF5CDF6E300E62
:10027000DF24E66EFCDEE552E552E552E7CFD9FF1A
:100280001200D9CFE6FFE1CFD9FF020EE126FD0E25
:10029000DBCFDEFFDBCFDDFFDECF10F0DDCF11F0F7
:1002A000100E0B6E270E0C6E10C006F011C007F07A
:1002B000AEEC07F006C010F007C011F0105011109E
:1002C00017E0DECF10F0DDCF11F0100E0B6E270E11
:1002D0000C6E10C006F011C007F0AEEC07F006C0BF
:1002E00010F007C011F0300E1024E66EC0DEE552AB
:1002F000DECF12F0DDCF13F0100E0B6E270E0C6E5A
:1003000012C006F013C007F0AEEC07F006C012F002
:1003100007C013F0100E1302F3CF13F0270E1202D2
:10032000F3501326100E1202F3CF12F0F4501326DE
:100330001250DE5C106E1350DD58116E10C0DEFFDF
:1003400011C0DDFFDECF10F0DDCF11F0E80E0B6E37
:10035000030E0C6E10C006F011C007F0AEEC07F0F3
:1003600006C010F007C011F01050111017E0DECFDA
:1003700010F0DDCF11F0E80E0B6E030E0C6E10C006
:1003800006F011C007F0AEEC07F006C010F007C091
:1003900011F0300E1024E66E6ADEE552DECF12F068
:1003A000DDCF13F0E80E0B6E030E0C6E12C006F0DC
:1003B00013C007F0AEEC07F006C012F007C013F050
:1003C000E80E1302F3CF13F0030E1202F3501326BC
:1003D000E80E1202F3CF12F0F45013261250DE5C36
:1003E000106E1350DD58116E10C0DEFF11C0DDFF1E
:1003F000DECF10F0DDCF11F0640E0B6E0C6A10C072
:1004000006F011C007F0AEEC07F006C010F007C010
:1004100011F01050111016E0DECF10F0DDCF11F00A
:10042000640E0B6E0C6A10C006F011C007F0AEEC43
:1004300007F006C010F007C011F0300E1024E66E71
:1004400016DEE552DECF12F0DDCF13F0640E0B6E38
:100450000C6A12C006F013C007F0AEEC07F006C03D
:1004600012F007C013F0640E1302F3CF13F0120260
:10047000F3CF12F0F45013261250DE5C106E1350BE
:10048000DD58116E10C0DEFF11C0DDFFDECF10F0B1
:10049000DDCF11F00A0E0B6E0C6A10C006F011C011
:1004A00007F0AEEC07F006C010F007C011F01050D6
:1004B000111016E0DECF10F0DDCF11F00A0E0B6E3A
:1004C0000C6A10C006F011C007F0AEEC07F006C0D1
:1004D00010F007C011F0300E1024E66EC8DDE552B2
:1004E000DECF12F0DDCF13F00A0E0B6E0C6A12C0D5
:1004F00006F013C007F0AEEC07F006C012F007C01C
:1005000013F00A0E1302F3CF13F01202F3CF12F01E
:10051000F45013261250DE5C106E1350DD58116E2D
:1005200010C0DEFF11C0DDFFDECF10F0DDCF11F017
:10053000300E1024E66E9BDDE552020EE15C02E215
:10054000E16AE552E16EE552E7CFD9FF1200D9CF5B
:10055000E6FFE1CFD9FF020EE126E60EE66E0F0EB2
:10056000E66E92DDE552E552FE0EDB380F0B0F0B07
:10057000DE6EDD6ADECFE9FFDDCFEAFFF00EE926B1
:10058000010EEA22EF50E66E72DDE552FE0EDB5000
:100590000F0BDE6EDD6ADECFE9FFDDCFEAFFF00E86
:1005A000E926010EEA22EF50E66E61DDE552020E09
:1005B000E15C02E2E16AE552E16EE552E7CFD9FF84
:1005C0001200D9CFE6FFE1CFD9FF020EE126E60EF9
:1005D000E66E0F0EE66E58DDE552E552FD0EDBCFFE
:1005E00010F0FE0EDBCF11F01138116A0F0B106EF8
:1005F0000F0E1016000E111610C0DEFF11C0DDFF29
:10060000DECFE9FFDDCFEAFFF00EE926010EEA2298
:10061000EF50E66E2CDDE552FD0EDBCF10F0FE0E46
:10062000DBCF11F011C010F0116A0F0E1016000E82
:10063000111610C0DEFF11C0DDFFDECFE9FFDDCFF8
:10064000EAFFF00EE926010EEA22EF50E66E0FDD1A
:10065000E552FD0EDBCF10F0FE0EDBCF11F0040EE5
:10066000D89011321032E804FBE10F0E1016000E84
:10067000111610C0DEFF11C0DDFFDECFE9FFDDCFB8
:10068000EAFFF00EE926010EEA22EF50E66EEFDCFB
:10069000E5520F0EE76EFD0EDBCF10F0FE0EDBCF46
:1006A00011F0E7501016116A10C0DEFF11C0DDFF17
:1006B000DECFE9FFDDCFEAFFF00EE926010EEA22E8
:1006C000EF50E66ED4DCE552020EE15C02E2E16A34
:0C06D000E552E16EE552E7CFD9FF1200C1
:0406DC00DACFE4FF8E
:1006E000E2CFDAFFE9CFE4FFEACFE4FFF6CFE4FFA1
:1006F000F7CFE4FFF5CFE4FFF3CFE4FFF4CFE4FF5F
:10070000FACFE4FF00EE00F0100EE80403E3EECFB2
:10071000E4FFFBD700EE10F0040EE80403E3EECF95
:10072000E4FFFBD7E6529E50100B03E19E50200BD6
:1007300002E0A1EC05F0E55200EE13F0040EE8042F
:1007400003E3E5CFEDFFFBD700EE0FF0100EE8045A
:1007500003E3E5CFEDFFFBD7E5CFFAFFE5CFF4FFED
:10076000E5CFF3FFE5CFF5FFE5CFF7FFE5CFF6FFE8
:10077000E5CFEAFFE5CFE9FFE5CFDAFF1100D8CFFB
:10078000E4FFE0CFE4FFE46EDACFE4FFE2CFDAFF8C
:10079000E652E552E5CFDAFFE550E5CFE0FFE5CFE1
:1007A000D8FF100004EC07F092880F0EC16E100EF7
:1007B000E66E7BEC07F0E552630EE66E97EC07F011
:1007C000E552DC0EE66E0F0EE66E44EC00F0E552EC
:1007D000E55208EC06F000093BE1000196A114D0B7
:1007E000830EE66E000EE66E89EC06F0E552E552E9
:1007F00000018051EA6A600FE96E000EEA2283C0B0
:10080000EFFF0001802B0CD000019681830EE66E75
:10081000000EE66E89EC06F0E552E55283C097F0D3
:1008200000019751300A0EE0310A07E0010A01E0A9
:100830000ED0FF00000196910AD0000196910001B0
:10084000806B05D0000196830001969100D0C1D73E
:10085000000196A303D032D8000196939290929211
:10086000929480808082808480A823D00001140E1E
:10087000941901E1955112E1400EE66E37EC00F05B
:10088000E552D90EE66E0F0EE66E44EC00F0E5522E
:10089000E5520001942B000E95230AD00001140E9E
:1008A000945D000E955904E20001942B000E9523EF
:1008B00003D00001946B956B8CD7120000018C6BF8
:1008C0008D6B92908090070EE66EE0EC07F0E5529B
:1008D0008080100EE66EE0EC07F0E552809092808A
:1008E00080A0FED7000EE66EE66A5FEC07F0E552E8
:1008F000E55280B0FED740EC07F0F3CF84F0F4CFA0
:1009000085F084C010F085C011F03A0E0B6E0C6AB1
:1009100010C006F011C007F0AEEC07F006C010F0F2
:1009200007C011F08CC0E9FF8DC0EAFFD890E9360E
:10093000EA36860EE926000EEA2210C0EEFF11C04C
:10094000EDFF00018C2B000E8D2392928092070EFA
:10095000E66EE0EC07F0E5528082100EE66EE0EC09
:1009600007F0E5528092928280A2FED7000EE66EDA
:10097000E66A5FEC07F0E552E55280B2FED740EC44
:1009800007F0F3CF84F0F4CF85F084C010F085C079
:1009900011F03A0E0B6E0C6A10C006F011C007F091
:1009A000AEEC07F006C010F007C011F08CC0E9FFF4
:1009B0008DC0EAFFD890E936EA36860EE926000EA9
:1009C000EA2210C0EEFF11C0EDFF00018C2B000EDB
:1009D0008D2392948094070EE66EE0EC07F0E552CA
:1009E0008084100EE66EE0EC07F0E552809492846D
:1009F00080A4FED7000EE66EE66A5FEC07F0E552D3
:100A0000E55280B4FED740EC07F0F3CF84F0F4CF8A
:100A100085F084C010F085C011F03A0E0B6E0C6AA0
:100A200010C006F011C007F0AEEC07F006C010F0E1
:100A300007C011F08CC0E9FF8DC0EAFFD890E936FD
:100A4000EA36860EE926000EEA2210C0EEFF11C03B
:100A5000EDFF000186518E5D87518F590EE2410EE8
:100A6000E66E37EC00F0E552D60EE66E0F0EE66E3F
:100A700044EC00F0E552E55255D09051885D91511B
:100A8000895913E292518A5D93518B590EE2440EBB
:100A9000E66E37EC00F0E552D60EE66E0F0EE66E0F
:100AA00044EC00F0E552E5523DD09051885D915103
:100AB000895913E28A51925D8B5193590EE2430E8C
:100AC000E66E37EC00F0E552D60EE66E0F0EE66EDF
:100AD00044EC00F0E552E55225D08851905D8951F3
:100AE000915913E28A51925D8B5193590EE2420E55
:100AF000E66E37EC00F0E552D60EE66E0F0EE66EAF
:100B000044EC00F0E552E5520DD0450EE66E37ECB0
:100B100000F0E552D60EE66E0F0EE66E44EC00F0E5
:060B2000E552E55212004F
:0A0B26000001A36BA46BA56BA66B86
:100B3000A76BA86BA991A983A995A987A999A99B36
:100B40001200D9CFE6FFE1CFD9FFE6529D50100B3E
:100B500001E0010E106E9E50100B01E0010E10140A
:100B600019E00001A9B314D0A451EA6A000FE96E9C
:100B7000010EEA22EF50AD6EA9B1A991A307A351CE
:100B800001E1A983A42B780EA45D01E1A46B01D03F
:100B90009D9832D09D50200B01E0010E106E9E50AA
:100BA000200B01E0010E101427E0ABA403D0AE50DF
:100BB000DF6E22D0ABA205D0AB98AB88AE50DF6E13
:100BC0001BD00001A9A503D0AE50DF6E15D0A9B58A
:100BD00013D0A997A851EA6A780FE96E010EEA22AC
:100BE000AECFEFFFA62B780EA65D01E1A985A82B5D
:100BF000780EA85D01E1A86BE552E552E7CFD9FF79
:100C000012000001A951020B01E0010E00D01200F8
:100C10000001A951080B01E0010E00D012000001F3
:100C2000A951010B00D012000001A951040B01E0F1
:100C3000010E00D01200D9CFE6FFE1CFD9FF0001AD
:100C4000A9B116D09D98A551EA6A000FE96E010E70
:100C5000EA22FE0EDBCFEFFFA32BA993780EA35D54
:100C600001E1A981A52B780EA55D01E1A56B9D8809
:100C7000E552E7CFD9FF1200D9CFE6FFE1CFD9FF88
:100C80000001A9B516D09D9AA851EA6A780FE96EBD
:100C9000010EEA22FE0EDBCFEFFFA62BA997780EFE
:100CA000A65D01E1A985A82B780EA85D01E1A86BDE
:100CB0009D8AE552E7CFD9FF1200D9CFE6FFE1CFF9
:100CC000D9FF0001A9A302D0000E1FD09D98A991C1
:100CD000A451EA6A000FE96E010EEA22EF50E66EB7
:100CE000FD0EDBCFE9FFFE0EDBCFEAFFE552E7505A
:100CF000EF6EA307A35101E1A983A42B780EA45D95
:100D000001E1A46B9D88010E00D0E552E7CFD9FF29
:100D10001200D9CFE6FFE1CFD9FF0001A9A702D089
:100D2000000E1FD09D9AA995A751EA6A780FE96E27
:100D3000010EEA22EF50E66EFD0EDBCFE9FFFE0E5C
:100D4000DBCFEAFFE552E750EF6EA607A65101E1BF
:100D5000A987A72B780EA75D01E1A76B9D8A010EDD
:0A0D600000D0E552E7CFD9FF1200E2
:060D6A001E0EF66E000EE5
:100D7000F76E000EF86E00010900F5509E6F090035
:100D8000F5509F6F03E19E6701D03DD00900F550FB
:100D9000996F0900F5509A6F0900F5509B6F090093
:100DA0000900F550E96E0900F550EA6E09000900E6
:100DB0000900F5509C6F0900F5509D6F090009006E
:100DC000F6CFA0F0F7CFA1F0F8CFA2F099C0F6FFD0
:100DD0009AC0F7FF9BC0F8FF00019C5302E19D53AE
:100DE00007E00900F550EE6E9C07F8E29D07F9D781
:100DF000A0C0F6FFA1C0F7FFA2C0F8FF00019E0748
:080E0000000E9F5BBFD712003A
:080E080009D80BD80ED8936A3B
:100E1000010E8A6EF36EF46A00D01200700ED36E6B
:100E20001200D08EF28CF28E1200D9CFE6FFE1CF05
:100E3000D9FF020EE126100EDE6EDD6AAC6AAB6AE7
:100E4000AB88AC84B8869E989D9A9E9A9D98DF50F8
:100E5000AF6EDECF10F0DDCF11F011C010F0116ACF
:100E60001050B06EAC8AAB8E949C948E020EE15CF6
:100E700002E2E16AE552E16EE552E7CFD9FF1200E6
:100E8000D9CFE6FFDACFE6FFE1CFD9FFE2CFDAFF35
:100E9000E652E652D650DF6E010ED7CFDBFFDECF33
:100EA00010F0DDCF11F010C0F3FF11C0F4FFE552D8
:0E0EB000E552E552E5CFDAFFE7CFD9FF120099
:020EBE00D9CF8A
:100EC000E6FFDACFE6FFE1CFD9FFE2CFDAFFE65265
:100ED000E652FC0EDBCFDEFFDBCFDDFF010EDB5089
:100EE000D76EDF50D66EE552E552E552E5CFDAFF18
:060EF000E7CFD9FF12005C
:0A0EF600D9CFE6FFDACFE6FFE1CF27
:100F0000D9FFE2CFDAFFFD0EDB507F0BD56ED76A3B
:100F1000D66AF294FD0EDBAE02D0F28A01D0F29ACC
:0E0F2000D58EE552E5CFDAFFE7CFD9FF1200FC
:020F2E00FF0EB4
:100F3000E350156EEF0E01D0F30EE76EE72E9EEF35
:100F400007F00C0E146EE76AE72EA4EF07F0142EDC
:0C0F5000A3EF07F0152E9CEF07F0120035
:040F5C00036A026AB8
:100F6000100EE76ED89006360736023603360B5061
:100F7000025C0C50035805E30B50025E0C50035A00
:080F8000062AE72EF0D712004B
:080F88001CEE00F02CEE00F05D
:100F9000F86A0F9CB5EC06F003EC00F0D2EC03F01D
:040FA000FBD7120069
:0C0FA400036A080EE76ED890073603368B
:100FB0000C50035C02E3036E072AE72EF7D71200FA
:100FC000FF0EE350E84E1200000000D000D000D029
:060FD000E82EFAD7120022
:0A0FD6000D0A000A0D0052535420CA
:0C0FE0004F424A0A0D00307800306200D9
:040FEC0000EE00F023
:0A0FF0000D0EEE6AEA62FDD7120052
:060FFA00303132333435C2
:0A1000003637383941424344454673
:06100A000000320032007C
:0F101000320000000A001400140000000000006D
:020000040030CA
:0100010008F6
:010003001EDE
:010005008278
:00000001FF
