:020000040000FA
:06000000E0EF0BF012001E
:020006001200E6
:0600080022EF00F01200DF
:02000E00C250DE
:08001000020B01E0010E1200D9
:0600180073EF00F012007E
:02001E000300DD
:1000200075180000600000003E0000006E1800001F
:10003000CF000000070000005E180000F001000083
:0400400010000000AC
:0C004400DACFE4FFE2CFDAFFE9CFE4FFFF
:10005000EACFE4FFF6CFE4FFF7CFE4FFF5CFE4FF0C
:10006000F3CFE4FFF4CFE4FFFACFE4FF00EE00F0BB
:10007000140EE80403E3EECFE4FFFBD700EE18F024
:10008000040EE80403E3EECFE4FFFBD7E6529E50F4
:10009000100B03E19E50200B02E0EAEC08F0E55261
:1000A00000EE1BF0040EE80403E3E5CFEDFFFBD701
:1000B00000EE13F0140EE80403E3E5CFEDFFFBD7E9
:1000C000E5CFFAFFE5CFF4FFE5CFF3FFE5CFF5FF8E
:1000D000E5CFF7FFE5CFF6FFE5CFEAFFE5CFE9FF94
:1000E000E5CFDAFF1100D8CFE4FFE0CFE4FFE46E04
:1000F000DACFE4FFE2CFDAFFE9CFE4FFEACFE4FFB3
:10010000F6CFE4FFF7CFE4FFF5CFE4FFF3CFE4FF52
:10011000F4CFE4FFFACFE4FF00EE00F0140EE804A1
:1001200003E3EECFE4FFFBD700EE18F0040EE80483
:1001300003E3EECFE4FFFBD7E652D9CFE6FFE1CFF2
:10014000D9FF020EE126F2A455D014EC0CF0F3CF47
:10015000DEFFF4CFDDFF030E0001705D10E2705191
:10016000E96EEA6AD890E936EA36660EE926000EAC
:10017000EA22DECFEEFFDDCFEDFF702B28D06C51F1
:10018000DE5C7A6F6D51DD587B6F7B3504E27A510E
:100190000208000E7B5508E3D8807B5104E7FE0E71
:1001A0007A5DFF0E7B5913E27AC014F07BC015F024
:1001B000166A176A15AE02D01668176814507C27A5
:1001C00015507D2316507E2317507F23706B70517E
:1001D000EA6A860FE96E000EEA22EF50E66E72ECD4
:1001E0000BF0E552CE0EE66EE6683AEC0BF0E55207
:1001F000E552F294020EE15C02E2E16AE552E16E40
:10020000E552E7CFD9FFE55200EE1BF0040EE804FB
:1002100003E3E5CFEDFFFBD700EE13F0140EE80487
:1002200003E3E5CFEDFFFBD7E5CFFAFFE5CFF4FF22
:10023000E5CFF3FFE5CFF5FFE5CFF7FFE5CFF6FF1D
:10024000E5CFEAFFE5CFE9FFE5CFDAFFE550E5CFFF
:10025000E0FFE5CFD8FF1000FEEC09F0DCEC08F081
:100260000001BE6BBF6BC06BC16B010EE66E8AEC0A
:100270000BF0E552FCEC0BF0000909E0140EE66E01
:10028000160EE66E5EEC04F0E552E5522FD0CEEC91
:100290000BF0000909E0010EE66E160EE66E5EEC4C
:1002A00004F0E552E55222D008EC0CF0000909E018
:1002B000EF0EE66E150EE66E5EEC04F0E552E552CA
:1002C00015D024EC0CF0000909E0DD0EE66E150EE9
:1002D000E66E5EEC04F0E552E55208D0D10EE66E13
:1002E000150EE66E5EEC04F0E552E5522AEC0CF0D9
:1002F000020EE66E8AEC0BF0E552B1D8E5D8F29426
:10030000F28A040051EC09F0000901E094D00001E8
:100310008AA114D0C40EE66E000EE66ED2EC09F08F
:10032000E552E55200018C51EA6A9E0FE96E000E1B
:10033000EA22C4C0EFFF00018C2B0CD000018A819F
:10034000C40EE66E000EE66ED2EC09F0E552E55200
:10035000C4C08BF000018B51620A66E0020A50E0D3
:10036000230A3AE0010A24E0030A0EE0700A07E0DB
:10037000010A01E05FD0FF0000018A915BD000011B
:100380008A9100018C6B56D00001010E8C6F000128
:100390008C510DE0310E00019E5D03E100018A8564
:1003A00002D000018A9500018A9100018C6B42D035
:1003B0000001010E8C6F00018C510DE0310E000127
:1003C0009E5D03E100018A8702D000018A97000147
:1003D0008A9100018C6B2ED00001010E8C6F000100
:1003E0008C510DE0310E00019E5D03E100018A8910
:1003F00002D000018A9900018A9100018C6B1AD009
:100400000001010E8C6F00018C510DE0310E0001D6
:100410009E5D03E100018A8B02D000018A9B0001EE
:100420008A9100018C6B06D000018A8D00018A91AF
:1004300000018C6B67D700018AB5B5D800018AB777
:1004400033D900018AB94ED900018ABB80D9000195
:100450008AAD03D00ADA00018A9D53D71200000149
:10046000706B030E705D29E27051EA6A860FE96EC7
:10047000000EEA22EF50E66EA1EC0BF0E5522DECF7
:100480000CF007EC00F0000901E0FBD714EC0CF0D5
:10049000F3CF18F0F4CF19F000017051E96EEA6A59
:1004A000D890E936EA36600EE926000EEA2218C036
:1004B000EEFF19C0EDFF702BD4D76251605D9C6FC9
:1004C000635161599D6F1200D9CFE6FFE1CFD9FF8B
:1004D000030EE126DE6ADD6A020EDB6ADB6ADBCF31
:1004E00018F0080EE76E1818E8AE02D0E73402D014
:1004F000E750185C26E20001030E706F7051EA6A43
:10050000860FE96E000EEA22EF50E66EA1EC0BF0CA
:10051000E5522DEC0CF007EC00F0000901E0FBD7F0
:1005200014EC0CF0F3CF18F0F4CF19F0D9CFE9FFA9
:10053000DACFEAFF1850EE261950ED22020EDB2A20
:10054000CED7DECF18F0DDCF19F0030ED8901932D8
:100550001832E804FBE118C0DEFF19C0DDFFDECF72
:100560006CF0DDCF6DF0030EE15C02E2E16AE55272
:10057000E16EE552E7CFD9FF1200D9CFE6FFE1CF18
:10058000D9FFFE0EDBCFE6FF64EC09F0E552CE0E9C
:10059000E66E150EE66E5EEC04F0E552E552E552AD
:1005A000E7CFD9FF120066C094F067C095F068C02D
:1005B00096F069C097F0000160518D25186E615169
:1005C0008E21196E1850945D1950955919E2625197
:1005D0008D251A6E63518E211B6E1A50965D1B502D
:1005E00097590EE2490E0001C25D09E0490EE66E20
:1005F000C4DFE5520001490EC26F00018A9553D055
:1006000096519C25186E97519D21196E1850945D36
:100610009A6F195095599B6F90519B19E8AE02D073
:100620009B3504D09A518F5D9B5190590EE2410E3B
:100630000001C25D09E0410EE66E9FDFE552000158
:10064000410EC26F00018A952ED08FC018F090C065
:1006500019F0186C191E000E19229B511918E8AEDA
:1006600002D0193404D018509A5D19509B590EE2EB
:10067000420E0001C25D09E0420EE66E7EDFE552E9
:100680000001420EC26F00018A950DD0430E000199
:10069000C25D09E0430EE66E70DFE5520001430ED5
:1006A000C26F00018A95120000019151196A6425F8
:1006B000186E655119226A51185C6B5119580EE277
:1006C000430E0001C35D09E0440EE66E56DFE552BD
:1006D0000001440EC36F00018A9703D00001450E4C
:1006E000C36F1200000160518D25186E61518E217B
:1006F000196E6651185C6751195806E2460EE66E8F
:100700003CDFE55200018A9962518D25186E6351D4
:100710008E21196E6851185C6951195806E2470E0E
:10072000E66E2BDFE55200018A999151196A642522
:10073000186E655119226A51185C6B51195806E2FE
:10074000480EE66E1ADFE55200018A9912007CC05D
:1007500080F07DC081F07EC082F07FC083F080C0D9
:1007600006F081C007F082C008F083C009F038ECC1
:1007700007F007C018F008C019F009C01AF00AC045
:100780001BF0BEC00CF0BFC00DF0C0C00EF0C1C069
:100790000FF018C007F019C008F01AC009F01BC00C
:1007A0000AF051EC07F01FEC08F006C072F007C029
:1007B00073F008C074F009C075F072C006F073C021
:1007C00007F074C008F075C009F0680E0B6E010EDA
:1007D0000C6E0D6A0E6ABEEC07F006C084F007C00E
:1007E00085F00001D890855104E6010E845D000E6D
:1007F000855907E2853504E38451FF08FF0E8555CE
:1008000025E3680E086E010E096E84C00DF085C0E8
:100810000EF0F2EC07F006C018F007C019F01A6AE3
:100820001B6A19AE02D01A681B68720EE96E000EC0
:10083000EA6E1850EE5C0001766F1950EE58776F33
:100840001A50EE58786F1B50EE58796F800E79155C
:1008500007E0680E7627010E7723000E78237923B0
:10086000766B776B786B796B120000017C6B7D6B1C
:060870007E6B7F6B12009D
:0A0876009EAA02D0010E02D0000E6F
:1008800000D01200D9CFE6FFE1CFD9FFE652AE503B
:10089000DF6EDF5000D0E552E552E7CFD9FF1200FE
:1008A000D9CFE6FFE1CFD9FFFE0EDBCFE6FF64EC48
:1008B00009F0E552E552E7CFD9FF1200D9CFE6FFA4
:1008C000E1CFD9FFFD0EDBCFF6FFFE0EDBCFF7FF4A
:1008D0000800F550E66EE4DFE552FD0EDB2ADBCFC3
:1008E000F6FFFE0E01E3DB2ADBCFF7FF0800F55031
:1008F000E9E1E552E7CFD9FF1200D9CFE6FFE1CF1A
:10090000D9FF020EE126DE52800EDD6E290EE66E64
:10091000160EE66ED3DFE552E552DF6A080EDF5CA5
:100920001AE2010EDBCFE6FFFE0EDB50E552E714C4
:1009300005E0310EE66EB4DFE55204D0300EE66E0F
:10094000AFDFE552010EDBCFF3FFF390F342F3CFBD
:10095000DBFFDF2AE3D7020EE15C02E2E16AE55247
:10096000E16EE552E7CFD9FF1200D9CFE6FFE1CF24
:10097000D9FF030EE126010EDB6A800EF36E020E34
:10098000F3CFDBFF290EE66E160EE66E97DFE5521B
:10099000E552DF6A100EDF5C2AE2010EDBCF1AF0AF
:1009A000020EDBCF1BF0FD0EDB501A14186EFE0E8C
:1009B000DB501B14196E1850191005E0310EE66E4D
:1009C0006FDFE55204D0300EE66E6ADFE552D95093
:1009D000010FE96EDACFEAFF010E0F0B06E0EC52D1
:1009E000D890ED32EF32E806FAE1DF2AD3D7030ED2
:1009F000E15C02E2E16AE552E16EE552E7CFD9FF40
:100A00001200D9CFE6FFE1CFD9FFE652FE0EDB5050
:100A1000DF6E640E186E18C00EF0DFCF09F0EEEC3A
:100A20000BF009500DE0640E186E18C00EF0DFCF09
:100A300009F0EEEC0BF00950300FE66E31DFE552B5
:100A4000640E186E18C00EF0DFCF09F0EEEC0BF05C
:100A50000950640DF350DF5CDF6E0A0E186E18C08B
:100A60000EF0DFCF09F0EEEC0BF009500DE00A0EAE
:100A7000186E18C00EF0DFCF09F0EEEC0BF0095045
:100A8000300FE66E0DDFE5520A0E186E18C00EF03C
:100A9000DFCF09F0EEEC0BF009500A0DF350DF5CEC
:100AA000DF6E300EDF24E66EFBDEE552E552E552E6
:100AB000E7CFD9FF1200D9CFE6FFE1CFD9FF020E71
:100AC000E126FD0EDBCFDEFFDBCFDDFFDECF18F052
:100AD000DDCF19F0100E0D6E270E0E6E18C008F047
:100AE00019C009F0B8EC0BF008C018F009C019F0F3
:100AF000300E1824E66ED4DEE552DECF1AF0DDCFDC
:100B00001BF0100E0D6E270E0E6E1AC008F01BC0E3
:100B100009F0B8EC0BF008C01AF009C01BF0100E79
:100B20001B02F3CF1BF0270E1A02F3501B26100EE8
:100B30001A02F3CF1AF0F4501B261A50DE5C186E1E
:100B40001B50DD58196E18C0DEFF19C0DDFFDECF67
:100B500018F0DDCF19F0E80E0D6E030E0E6E18C002
:100B600008F019C009F0B8EC0BF008C018F009C083
:100B700019F0300E1824E66E93DEE552DECF1AF03F
:100B8000DDCF1BF0E80E0D6E030E0E6E1AC008F0DE
:100B90001BC009F0B8EC0BF008C01AF009C01BF03C
:100BA000E80E1B02F3CF1BF0030E1A02F3501B26B4
:100BB000E80E1A02F3CF1AF0F4501B261A50DE5C2E
:100BC000186E1B50DD58196E18C0DEFF19C0DDFF0E
:100BD000DECF18F0DDCF19F0640E0D6E0E6A18C06E
:100BE00008F019C009F0B8EC0BF008C018F009C003
:100BF00019F0300E1824E66E53DEE552DECF1AF0FF
:100C0000DDCF1BF0640E0D6E0E6A1AC008F01BC01B
:100C100009F0B8EC0BF008C01AF009C01BF0640E24
:100C20001B02F3CF1BF01A02F3CF1AF0F4501B266D
:100C30001A50DE5C186E1B50DD58196E18C0DEFFAE
:100C400019C0DDFFDECF18F0DDCF19F00A0E0D6EF2
:100C50000E6A18C008F019C009F0B8EC0BF008C013
:100C600018F009C019F0300E1824E66E19DEE552AE
:100C7000DECF1AF0DDCF1BF00A0E0D6E0E6A1AC021
:100C800008F01BC009F0B8EC0BF008C01AF009C05E
:100C90001BF00A0E1B02F3CF1BF01A02F3CF1AF05F
:100CA000F4501B261A50DE5C186E1B50DD58196E6E
:100CB00018C0DEFF19C0DDFFDECF18F0DDCF19F060
:100CC000300E1824E66EECDDE552020EE15C02E225
:100CD000E16AE552E16EE552E7CFD9FF1200D9CFC4
:100CE000E6FFE1CFD9FF020EE126260EE66E160ED4
:100CF000E66EE4DDE552E552FE0EDB380F0B0F0B1E
:100D0000DE6EDD6ADECFE9FFDDCFEAFFF00EE92619
:100D1000010EEA22EF50E66EC3DDE552FE0EDB5017
:100D20000F0BDE6EDD6ADECFE9FFDDCFEAFFF00EEE
:100D3000E926010EEA22EF50E66EB2DDE552020E20
:100D4000E15C02E2E16AE552E16EE552E7CFD9FFEC
:100D50001200D9CFE6FFE1CFD9FF020EE126260E21
:100D6000E66E160EE66EAADDE552E552FD0EDBCF0D
:100D700018F0FE0EDBCF19F01938196A0F0B186E38
:100D80000F0E1816000E191618C0DEFF19C0DDFF71
:100D9000DECFE9FFDDCFEAFFF00EE926010EEA2201
:100DA000EF50E66E7DDDE552FD0EDBCF18F0FE0E56
:100DB000DBCF19F019C018F0196A0F0E1816000EC3
:100DC000191618C0DEFF19C0DDFFDECFE9FFDDCF49
:100DD000EAFFF00EE926010EEA22EF50E66E60DD32
:100DE000E552FD0EDBCF18F0FE0EDBCF19F0040E3E
:100DF000D89019321832E804FBE10F0E1816000ED5
:100E0000191618C0DEFF19C0DDFFDECFE9FFDDCF08
:100E1000EAFFF00EE926010EEA22EF50E66E40DD11
:100E2000E5520F0EE76EFD0EDBCF18F0FE0EDBCFA6
:100E300019F0E7501816196A18C0DEFF19C0DDFF57
:100E4000DECFE9FFDDCFEAFFF00EE926010EEA2250
:100E5000EF50E66E25DDE552020EE15C02E2E16A4A
:0C0E6000E552E16EE552E7CFD9FF120029
:040E6C00019E0CD007
:100E7000019E09AE09D0066C071E081E091EE86A0D
:100E8000072208220922018E09C003F008C002F0DF
:100E900007C013F006C012F09E0E046E056A72EFD2
:100EA00008F0016AAEEC08F0C6EC08F001B656EFA7
:100EB00008F001A205D001B856EF08F05DEF08F088
:100EC00001AA05D001B056EF08F05DEF08F001B0BF
:100ED00002D001A802D069EF08F0056A0F500A2479
:100EE000046EE86A05227E0E045EE86A055A126AFC
:100EF000136A026A036A0E500902F4CF03F0F3CFBB
:100F000002F00D500902F3501326F4500222000E95
:100F100003220E500802F3501326F4500222000E52
:100F200003220C500902F3501226F4501322000E33
:100F3000022203220D500802F3501226F45013220D
:100F4000000E022203220E500702F3501226F45024
:100F50001322000E022203220C500802F450122623
:100F6000000E1322022203220D500702F450122613
:100F7000000E13220222032272EF08F0006AE86AD0
:100F80000EAECBEF07F00B6C0C1E0D1E0E1E0C22CE
:100F90000D220E22001E09AED6EF07F0066C071ECA
:100FA000081E091E072208220922001E16EC0BF05B
:100FB00009BEEDEF07F000AE000C066C071E081E20
:100FC000091EE86A072208220922026C031E041E79
:100FD000051E032204220522000C00BEDDEF07F0EF
:100FE0000188FF0C09C013F008C012F008500D0270
:100FF000F4CF07F0F3CF06F009500E02F4CF09F05A
:10100000F3CF08F00D02F3500726F4500822E86AE7
:10101000092212500E02F3500726F4500822E86A03
:1010200009220EAE18EF08F01250085E1350095A4C
:1010300013AE000C0D50085E0E50095A000C016AE8
:10104000AEEC08F001B629EF08F001A20FD001B410
:1010500007D07F0E096EFF0E086E076E066E25D054
:10106000800E096E01D0096A000EF6D701B0FBD7D9
:10107000066A9F0E0A60EBD77E0E0A64F4D79E0EB6
:101080000A5C07E0D89009320832073206320A2A91
:10109000F6D701A40AD0066C071E081E091EE86ACE
:1010A00007220822092209AEDED712007F0E0A6E3F
:1010B000FF0E096E086E076E12007F0E01BEFF0E56
:1010C0000A6E02D07F0E0A6E800E096E086A076AE9
:1010D000F3D701AE04D0800E0A6E096AF7D70A6A08
:1010E000096AF4D70350021013101210F8E005BE7D
:1010F000F0D703BE0CD004500510EBE0D8901236A8
:101100001336023603360406D8A00506F2D705507A
:10111000D4E10428D2E012AE11D07F0E121402E105
:1011200013A00CD0132AE86A0222032207E3D88016
:10113000033202321332042A0428BFE00450C9E00B
:1011400013C007F002C008F00334096E04300A6EC1
:1011500009320A9E01BE0A8E5CEF08F009360A3693
:1011600002E30184017E06E101800A6A096A086AD5
:10117000076A12000A2803E0D88009321200D890CA
:10118000093202E101821200018612000E360F368A
:1011900002E3018C017E06E101880F6A0E6A0D6A86
:1011A0000C6A12000F2803E0D8800E321200D8908B
:0811B0000E32EAE1018A12008F
:0811B8000001CF6BD06BD16B7D
:1011C000D26BD36BD46BD591D583D595D587D59973
:1011D000D59B1200D9CFE6FFE1CFD9FFE6529D5053
:1011E000100B01E0010E186E9E50100B01E0010E75
:1011F000181419E00001D5B314D0D051EA6A000FD9
:10120000E96E010EEA22EF50AD6ED5B1D591CF0750
:10121000CF5101E1D583D02B780ED05D01E1D06BA9
:1012200001D09D9832D09D50200B01E0010E186E28
:101230009E50200B01E0010E181427E0ABA403D050
:10124000AE50DF6E22D0ABA205D0AB98AB88AE50CB
:10125000DF6E1BD00001D5A503D0AE50DF6E15D0D8
:10126000D5B513D0D597D451EA6A780FE96E010E3F
:10127000EA22AECFEFFFD22B780ED25D01E1D58509
:10128000D42B780ED45D01E1D46BE552E552E7CF63
:10129000D9FF12000001D551020B01E0010E00D070
:1012A00012000001D551080B01E0010E00D0120020
:1012B0000001D551010B00D012000001D551040BE3
:1012C00001E0010E00D01200D9CFE6FFE1CFD9FF37
:1012D0000001D5B116D09D98D151EA6A000FE96E90
:1012E000010EEA22FE0EDBCFEFFFCF2BD593780E57
:1012F000CF5D01E1D581D12B780ED15D01E1D16BBC
:101300009D88E552E7CFD9FF1200D9CFE6FFE1CFA4
:10131000D9FF0001D5B516D09D9AD451EA6A780F4D
:10132000E96E010EEA22FE0EDBCFEFFFD22BD5973E
:10133000780ED25D01E1D585D42B780ED45D01E124
:10134000D46B9D8AE552E7CFD9FF1200D9CFE6FFD3
:10135000E1CFD9FF0001D5A302D0000E1FD09D9888
:10136000D591D051EA6A000FE96E010EEA22EF50E2
:10137000E66EFD0EDBCFE9FFFE0EDBCFEAFFE552A6
:10138000E750EF6ECF07CF5101E1D583D02B780E18
:10139000D05D01E1D06B9D88010E00D0E552E7CF12
:1013A000D9FF1200D9CFE6FFE1CFD9FF0001D5A7C1
:1013B00002D0000E1FD09D9AD595D351EA6A780FBE
:1013C000E96E010EEA22EF50E66EFD0EDBCFE9FF7B
:1013D000FE0EDBCFEAFFE552E750EF6ED207D251A7
:1013E00001E1D587D32B780ED35D01E1D36B9D8AC4
:0C13F000010E00D0E552E7CFD9FF12003B
:0413FC000BD80ED824
:1014000011D84FD83ED8936A010E8A6EF36EF46AF3
:1014100000D01200700ED36E9B8C1200D08EF28C16
:10142000F28E1200D9CFE6FFE1CFD9FF020EE126FE
:10143000440EDE6EDD6AAC6AAB6AAB88AC84B886FB
:10144000AC9AAB9EDF50AF6EDECF18F0DDCF19F057
:1014500019C018F0196A1850B06EAC8AAB8E949C03
:10146000948E9E9A9D8A9F8A9E989D889F88020E40
:10147000E15C02E2E16AE552E16EE552E7CFD9FFB5
:101480001200120EE66E56EC0BF0E552CE0EE66E32
:10149000E6683AEC0BF0E552E552F294F194F29AD8
:1014A000120092809282928492860B0EE66E040E57
:1014B000E66EAB0EE66EB0EC0AF0E552E552E55290
:0214C000120018
:0E14C2001E0EF66E000EF76E000EF86E0001A4
:1014D0000900F550CA6F0900F550CB6F03E1CA67E8
:1014E00001D03DD00900F550C56F0900F550C66F19
:1014F0000900F550C76F09000900F550E96E0900B1
:10150000F550EA6E090009000900F550C86F09009E
:10151000F550C96F09000900F6CFCCF0F7CFCDF038
:10152000F8CFCEF0C5C0F6FFC6C0F7FFC7C0F8FFC2
:101530000001C85302E1C95307E00900F550EE6EFF
:10154000C807F8E2C907F9D7CCC0F6FFCDC0F7FF4E
:10155000CEC0F8FF0001CA07000ECB5BBFD7120058
:10156000D9CFE6FFDACFE6FFE1CFD9FFE2CFDAFF4E
:10157000C26AC06AFC0EDB407F0B3C0BC26EFB0EE6
:10158000DBCFE6FFFC0EDB38F00B300BE552E7104B
:10159000C16EFD0EDB50040DF350380B196EFD0EBD
:1015A000DB380F0B070B186EFD0EDB50800B18108D
:1015B0001910C06EFC0EDBAE03D09E9C9D8CF28C8D
:0E15C000C280E552E5CFDAFFE7CFD9FF120077
:0215CE000D0A04
:1015D000005253542041525241590A0D0052535463
:1015E000204152524159202D20424F520A0D0052A3
:1015F0005354204152524159202D20504F520A0D30
:1016000000525354204152524159202D204D434CF9
:10161000520A0D00525354204152524159202D205C
:0C1620005744540A0D003078003062007E
:04162C00056A046ADD
:10163000036A026A200EE76ED8900636073608362F
:10164000093602360336043605360B50025C0C5060
:1016500003580D5004580E50055809E30B50025E14
:101660000C50035A0D50045A0E50055A062AE72E04
:04167000E4D71200A9
:0C167400D9CFE6FFDACFE6FFE1CFD9FFC7
:10168000E2CFDAFFE652E652FC0EDBCFDEFFDBCF25
:10169000DDFF010EDB50D76EDF50D66EE552E5520E
:0C16A000E552E5CFDAFFE7CFD9FF1200DA
:0416AC00D9CFE6FFAD
:1016B000DACFE6FFE1CFD9FFE2CFDAFFFD0EDB5054
:1016C0007F0BD56ED76AD66AF294FD0EDBAE02D0E0
:1016D000F28A01D0F29AD58EE552E5CFDAFFE7CF54
:0416E000D9FF12001C
:0C16E400D9CFE6FFDACFE6FFE1CFD9FF57
:1016F000E2CFDAFFFD0EDB407F0B3C0B186EC30E12
:10170000C2141810C26EC282E552E5CFDAFFE7CFED
:04171000D9FF1200EB
:0C171400FF0EE3501D6EEF0E01D0F30E2F
:10172000E76EE72E91EF0BF00C0E1C6EE76AE72ECA
:1017300097EF0BF01C2E96EF0BF01D2E8FEF0BF09A
:02174000120095
:0E174200D9CFE6FFDACFE6FFE1CFD9FFE2CF45
:10175000DAFFC30EC214186EFD0EDB407F0B3C0B8C
:101760001810C26EE552E5CFDAFFE7CFD9FF1200BD
:10177000056A046A100EE76ED890083609360436FA
:1017800005360D50045C0E50055805E30D50045EFF
:0C1790000E50055A082AE72EF0D7120070
:04179C00D0A20FD0F8
:1017A000D0A40CD0D0A009D0D0A6000CD0A8000C9A
:1017B000FCBE000CFCBC000C010C000C000C000C6E
:1017C0001CEE00F02CEE00F0F86A019C61EC0AF0CF
:0C17D00003EC00F02CEC01F0FBD7120041
:0417DC00056A080E84
:1017E000E76ED890093605360E50055C02E3056EAB
:0817F000092AE72EF7D71200C9
:0817F800D0A209D0D0A406D054
:10180000D0A003D0D0B6000C010C000C000C000CD2
:10181000D0B209D0D0A406D0D0B003D0D0A6000C4E
:08182000010C000C000C000C8F
:08182800C4501B6E1A6AC35084
:0A1830001A10F36E1BC0F4FF120043
:06183A0000EE00F00D0EAF
:08184000EE6AEA62FDD7120016
:08184800D0B003D0D0A2000CC7
:04185000010C000C7B
:06185400D082D0801200DA
:04185A00C282120034
:02185E00303127
:0E186000323334353637383941424344454639
:02186E00000078
:05187000000000000A69
:0B187500000000000000000000000068
:101880000000000000000000000000000000000058
:101890000000000000000000000000878F979F00FC
:1018A00000001E0014002888130000000000000043
:0318B00000230012
:020000040030CA
:0100010008F6
:010002001FDE
:010003001FDD
:010005008278
:00000001FF
