:020000040000FA
:0600000008EF09F01200F8
:020006001200E6
:0600080022EF00F01200DF
:02000E00C250DE
:08001000020B01E0010E1200D9
:0600180073EF00F012007E
:02001E000300DD
:10002000C51200006000000032000000BE12000097
:10003000BD00000007000000AE120000F00100004B
:0400400010000000AC
:0C004400DACFE4FFE2CFDAFFE9CFE4FFFF
:10005000EACFE4FFF6CFE4FFF7CFE4FFF5CFE4FF0C
:10006000F3CFE4FFF4CFE4FFFACFE4FF00EE00F0BB
:10007000100EE80403E3EECFE4FFFBD700EE10F030
:10008000040EE80403E3EECFE4FFFBD7E6529E50F4
:10009000100B03E19E50200B02E035EC06F0E55218
:1000A00000EE13F0040EE80403E3E5CFEDFFFBD709
:1000B00000EE0FF0100EE80403E3E5CFEDFFFBD7F1
:1000C000E5CFFAFFE5CFF4FFE5CFF3FFE5CFF5FF8E
:1000D000E5CFF7FFE5CFF6FFE5CFEAFFE5CFE9FF94
:1000E000E5CFDAFF1100D8CFE4FFE0CFE4FFE46E04
:1000F000DACFE4FFE2CFDAFFE9CFE4FFEACFE4FFB3
:10010000F6CFE4FFF7CFE4FFF5CFE4FFF3CFE4FF52
:10011000F4CFE4FFFACFE4FF00EE00F0100EE804A5
:1001200003E3EECFE4FFFBD700EE10F0040EE8048B
:1001300003E3EECFE4FFFBD7E652D9CFE6FFE1CFF2
:10014000D9FF020EE126F2A440D03CEC09F0F3CF37
:10015000DEFFF4CFDDFF030E0001705D10E2705191
:10016000E96EEA6AD890E936EA36660EE926000EAC
:10017000EA22DECFEEFFDDCFEDFF702B12D06C5107
:10018000DE5C146E6D51DD58156E000114500001D7
:1001900072270001155000017323000E742375238C
:1001A000706B7051EA6A7A0FE96E000EEA22EF5026
:1001B000E66E9AEC08F0E552180EE66EFC0EE66E5E
:1001C00062EC08F0E552E552F294020EE15C02E2C4
:1001D000E16AE552E16EE552E7CFD9FFE55200EE64
:1001E00013F0040EE80403E3E5CFEDFFFBD700EEC8
:1001F0000FF0100EE80403E3E5CFEDFFFBD7E5CFEA
:10020000FAFFE5CFF4FFE5CFF3FFE5CFF5FFE5CF4C
:10021000F7FFE5CFF6FFE5CFEAFFE5CFE9FFE5CF52
:10022000DAFFE550E5CFE0FFE5CFD8FF100049EC5D
:1002300007F027EC06F0010EE66EB2EC08F0E5528E
:1002400024EC09F0000909E0AC0EE66E100EE66E33
:100250004FEC03F0E552E5522FD0F6EC08F0000920
:1002600009E0990EE66E100EE66E4FEC03F0E552D3
:10027000E55222D030EC09F0000909E0870EE66E65
:10028000100EE66E4FEC03F0E552E55215D04CEC43
:1002900009F0000909E0750EE66E100EE66E4FECEF
:1002A00003F0E552E55208D0690EE66E100EE66ED8
:1002B0004FEC03F0E552E55252EC09F0020EE66E07
:1002C000B2EC08F0E55280D8B4D8F294F28A040077
:1002D0009CEC06F000096DE100017EA114D0B20E85
:1002E000E66E000EE66E1DEC07F0E552E5520001E9
:1002F0008051EA6A920FE96E000EEA22B2C0EFFF67
:100300000001802B0CD000017E81B20EE66E000E43
:10031000E66E1DEC07F0E552E552B2C07FF0000139
:100320007F51430A34E0010A21E0030A0EE0700A1B
:1003300007E0010A01E03CD0FF0000017E9138D0C7
:1003400000017E910001806B33D00001010E806FAF
:10035000000180510AE00001925100017E95E8B051
:100360007E8500017E910001806B22D00001010E8C
:10037000806F000180510AE00001925100017E97D8
:10038000E8B07E8700017E910001806B11D00001F2
:10039000010E806F000180510AE0000192510001BE
:1003A0007E99E8B07E8900017E910001806B00D0CB
:1003B0008FD700017EB5ACD800017EB706D9000109
:1003C0007EB919D984D712000001706B030E705DDD
:1003D00029E27051EA6A7A0FE96E000EEA22EF50C4
:1003E000E66EC9EC08F0E55255EC09F007EC00F0B8
:1003F000000901E0FBD73CEC09F0F3CF10F0F4CF9B
:1004000011F000017051E96EEA6AD890E936EA36D7
:10041000600EE926000EEA2210C0EEFF11C0EDFFCB
:10042000702BD4D76251605D906F63516159916FA9
:100430001200D9CFE6FFE1CFD9FF030EE126DE6A35
:10044000DD6A020EDB6ADB6ADBCF10F0080EE76EB6
:100450001018E8AE02D0E73402D0E750105C26E274
:100460000001030E706F7051EA6A7A0FE96E000E98
:10047000EA22EF50E66EC9EC08F0E55255EC09F0BF
:1004800007EC00F0000901E0FBD73CEC09F0F3CFEA
:1004900010F0F4CF11F0D9CFE9FFDACFEAFF105016
:1004A000EE261150ED22020EDB2ACED7DECF10F061
:1004B000DDCF11F0030ED89011321032E804FBE1C9
:1004C00010C0DEFF11C0DDFFDECF6CF0DDCF6DF0C0
:1004D000030EE15C02E2E16AE552E16EE552E7CF2C
:1004E000D9FF1200D9CFE6FFE1CFD9FFFE0EDBCF57
:1004F000E6FFAFEC06F0E552660EE66E100EE66E15
:100500004FEC03F0E552E552E552E7CFD9FF120078
:1005100066C088F067C089F068C08AF069C08BF057
:10052000000160518125106E61518221116E1050C1
:10053000885D1150895910E262518125126E635114
:100540008221136E12508A5D13508B5905E2490EB9
:10055000E66EC8DFE55238D08A519025106E8B5177
:100560009121116E1050885D8E6F115089598F6FD7
:1005700084518F19E8AE02D08F3504D08E51835D3F
:100580008F51845905E2410EE66EACDFE5521CD076
:1005900083C010F084C011F0106C111E000E1122E7
:1005A0008F511118E8AE02D0113404D010508E5D76
:1005B00011508F5905E2420EE66E94DFE55204D0E9
:1005C000430EE66E8FDFE552120000018551116A7D
:1005D0006425106E655111226A51105C6B511158DF
:1005E00005E2440EE66E7EDFE55204D0450EE66E6F
:1005F00079DFE5521200000160518125106E6151D2
:100600008221116E6651105C6751115804E2460E4A
:10061000E66E68DFE552000162518125106E63517C
:100620008221116E6851105C6951115804E2470E25
:10063000E66E58DFE55200018551116A6425106E9F
:10064000655111226A51105C6B51115804E2480E39
:08065000E66E48DFE5521200DE
:080658009EAA02D0010E02D09F
:10066000000E00D01200D9CFE6FFE1CFD9FFE6524D
:10067000AE50DF6EDF5000D0E552E552E7CFD9FF34
:100680001200D9CFE6FFE1CFD9FFFE0EDBCFE6FFA8
:10069000AFEC06F0E552E552E7CFD9FF1200D9CF13
:1006A000E6FFE1CFD9FFFD0EDBCFF6FFFE0EDBCF7D
:1006B000F7FF0800F550E66EE4DFE552FD0EDB2A99
:1006C000DBCFF6FFFE0E01E3DB2ADBCFF7FF0800EE
:1006D000F550E9E1E552E7CFD9FF1200D9CFE6FFA7
:1006E000E1CFD9FF020EE126DE52800EDD6EC10E93
:1006F000E66E100EE66ED3DFE552E552DF6A080EB5
:10070000DF5C1AE2010EDBCFE6FFFE0EDB50E552A6
:10071000E71405E0310EE66EB4DFE55204D0300E8A
:10072000E66EAFDFE552010EDBCFF3FFF390F3424D
:10073000F3CFDBFFDF2AE3D7020EE15C02E2E16ADE
:10074000E552E16EE552E7CFD9FF1200D9CFE6FFBF
:10075000E1CFD9FF030EE126010EDB6A800EF36EB6
:10076000020EF3CFDBFFC10EE66E100EE66E97DFD2
:10077000E552E552DF6A100EDF5C2AE2010EDBCFA4
:1007800012F0020EDBCF13F0FD0EDB501214106ED0
:10079000FE0EDB501314116E1050111005E0310ED7
:1007A000E66E6FDFE55204D0300EE66E6ADFE5528A
:1007B000D950010FE96EDACFEAFF010E0F0B06E008
:1007C000EC52D890ED32EF32E806FAE1DF2AD3D7C7
:1007D000030EE15C02E2E16AE552E16EE552E7CF29
:1007E000D9FF1200D9CFE6FFE1CFD9FFE652FE0EC6
:1007F000DB50DF6E640E106E10C00CF0DFCF07F020
:1008000016EC09F007500DE0640E106E10C00CF0ED
:10081000DFCF07F016EC09F00750300FE66E31DF3E
:10082000E552640E106E10C00CF0DFCF07F016EC2E
:1008300009F00750640DF350DF5CDF6E0A0E106E96
:1008400010C00CF0DFCF07F016EC09F007500DE0F8
:100850000A0E106E10C00CF0DFCF07F016EC09F096
:100860000750300FE66E0DDFE5520A0E106E10C015
:100870000CF0DFCF07F016EC09F007500A0DF3502B
:10088000DF5CDF6E300EDF24E66EFBDEE552E55204
:10089000E552E7CFD9FF1200D9CFE6FFE1CFD9FF6C
:1008A000020EE126FD0EDBCFDEFFDBCFDDFFDECF6C
:1008B00010F0DDCF11F0100E0B6E270E0C6E10C075
:1008C00006F011C007F0E0EC08F006C010F007C019
:1008D00011F0300E1024E66ED4DEE552DECF12F0B9
:1008E000DDCF13F0100E0B6E270E0C6E12C006F04B
:1008F00013C007F0E0EC08F006C012F007C013F0D8
:10090000100E1302F3CF13F0270E1202F35013262A
:10091000100E1202F3CF12F0F45013261250DE5CC8
:10092000106E1350DD58116E10C0DEFF11C0DDFFD8
:10093000DECF10F0DDCF11F0E80E0B6E030E0C6E63
:1009400010C006F011C007F0E0EC08F006C010F08F
:1009500007C011F0300E1024E66E93DEE552DECFB4
:1009600012F0DDCF13F0E80E0B6E030E0C6E12C00A
:1009700006F013C007F0E0EC08F006C012F007C064
:1009800013F0E80E1302F3CF13F0030E1202F3502C
:100990001326E80E1202F3CF12F0F4501326125071
:1009A000DE5C106E1350DD58116E10C0DEFF11C0FA
:1009B000DDFFDECF10F0DDCF11F0640E0B6E0C6AA0
:1009C00010C006F011C007F0E0EC08F006C010F00F
:1009D00007C011F0300E1024E66E53DEE552DECF74
:1009E00012F0DDCF13F0640E0B6E0C6A12C006F02D
:1009F00013C007F0E0EC08F006C012F007C013F0D7
:100A0000640E1302F3CF13F01202F3CF12F0F4507E
:100A100013261250DE5C106E1350DD58116E10C09C
:100A2000DEFF11C0DDFFDECF10F0DDCF11F00A0ECA
:100A30000B6E0C6A10C006F011C007F0E0EC08F075
:100A400006C010F007C011F0300E1024E66E19DE5B
:100A5000E552DECF12F0DDCF13F00A0E0B6E0C6AFA
:100A600012C006F013C007F0E0EC08F006C012F068
:100A700007C013F00A0E1302F3CF13F01202F3CFE4
:100A800012F0F45013261250DE5C106E1350DD5835
:100A9000116E10C0DEFF11C0DDFFDECF10F0DDCF24
:100AA00011F0300E1024E66EECDDE552020EE15C32
:100AB00002E2E16AE552E16EE552E7CFD9FF1200AA
:100AC000D9CFE6FFE1CFD9FF020EE126BE0EE66EDA
:100AD000100EE66EE4DDE552E552FE0EDB380F0B3C
:100AE0000F0BDE6EDD6ADECFE9FFDDCFEAFFF00E31
:100AF000E926010EEA22EF50E66EC3DDE552FE0E56
:100B0000DB500F0BDE6EDD6ADECFE9FFDDCFEAFFE3
:100B1000F00EE926010EEA22EF50E66EB2DDE55254
:100B2000020EE15C02E2E16AE552E16EE552E7CFD6
:100B3000D9FF1200D9CFE6FFE1CFD9FF020EE1269F
:100B4000BE0EE66E100EE66EAADDE552E552FD0E13
:100B5000DBCF10F0FE0EDBCF11F01138116A0F0B56
:100B6000106E0F0E1016000E111610C0DEFF11C011
:100B7000DDFFDECFE9FFDDCFEAFFF00EE926010E53
:100B8000EA22EF50E66E7DDDE552FD0EDBCF10F080
:100B9000FE0EDBCF11F011C010F0116A0F0E10160F
:100BA000000E111610C0DEFF11C0DDFFDECFE9FF21
:100BB000DDCFEAFFF00EE926010EEA22EF50E66EE5
:100BC00060DDE552FD0EDBCF10F0FE0EDBCF11F045
:100BD000040ED89011321032E804FBE10F0E10160B
:100BE000000E111610C0DEFF11C0DDFFDECFE9FFE1
:100BF000DDCFEAFFF00EE926010EEA22EF50E66EA5
:100C000040DDE5520F0EE76EFD0EDBCF10F0FE0E5D
:100C1000DBCF11F0E7501016116A10C0DEFF11C0D3
:100C2000DDFFDECFE9FFDDCFEAFFF00EE926010EA2
:100C3000EA22EF50E66E25DDE552020EE15C02E2AB
:0E0C4000E16AE552E16EE552E7CFD9FF1200FE
:020C4E000001A3
:100C5000BD6BBE6BBF6BC06BC16BC26BC391C383FB
:100C6000C395C387C399C39B1200D9CFE6FFE1CFD9
:100C7000D9FFE6529D50100B01E0010E106E9E5000
:100C8000100B01E0010E101419E00001C3B314D0E1
:100C9000BE51EA6A000FE96E010EEA22EF50AD6E16
:100CA000C3B1C391BD07BD5101E1C383BE2B780E13
:100CB000BE5D01E1BE6B01D09D9832D09D50200BEE
:100CC00001E0010E106E9E50200B01E0010E101489
:100CD00027E0ABA403D0AE50DF6E22D0ABA205D08C
:100CE000AB98AB88AE50DF6E1BD00001C3A503D01C
:100CF000AE50DF6E15D0C3B513D0C397C251EA6AA8
:100D0000780FE96E010EEA22AECFEFFFC02B780E0E
:100D1000C05D01E1C385C22B780EC25D01E1C26BEB
:100D2000E552E552E7CFD9FF12000001C351020B93
:100D300001E0010E00D012000001C351080B01E0D8
:100D4000010E00D012000001C351010B00D01200AF
:100D50000001C351040B01E0010E00D01200D9CFF5
:100D6000E6FFE1CFD9FF0001C3B116D09D98BF5176
:100D7000EA6A000FE96E010EEA22FE0EDBCFEFFFFA
:100D8000BD2BC393780EBD5D01E1C381BF2B780EEF
:100D9000BF5D01E1BF6B9D88E552E7CFD9FF12002F
:100DA000D9CFE6FFE1CFD9FF0001C3B516D09D9A98
:100DB000C251EA6A780FE96E010EEA22FE0EDBCF1D
:100DC000EFFFC02BC397780EC05D01E1C385C22B36
:100DD000780EC25D01E1C26B9D8AE552E7CFD9FF73
:100DE0001200D9CFE6FFE1CFD9FF0001C3A302D0A3
:100DF000000E1FD09D98C391BE51EA6A000FE96EA4
:100E0000010EEA22EF50E66EFD0EDBCFE9FFFE0E8B
:100E1000DBCFEAFFE552E750EF6EBD07BD5101E1C0
:100E2000C383BE2B780EBE5D01E1BE6B9D88010EB3
:100E300000D0E552E7CFD9FF1200D9CFE6FFE1CFCE
:100E4000D9FF0001C3A702D0000E1FD09D9AC39501
:100E5000C151EA6A780FE96E010EEA22EF50E66EA0
:100E6000FD0EDBCFE9FFFE0EDBCFEAFFE552E750D8
:100E7000EF6EC007C05101E1C387C12B780EC15D81
:100E800001E1C16B9D8A010E00D0E552E7CFD9FF89
:020E900012004E
:0E0E92000BD80ED811D850D83ED8936A010E56
:100EA0008A6EF36EF46A00D01200700ED36E9B8CC3
:100EB0001200D08EF28CF28E1200D9CFE6FFE1CF75
:100EC000D9FF020EE126440EDE6EDD6AAC6AAB6A23
:100ED000AB88AC84B886AC9AAB9EDF50AF6EDECFE9
:100EE00010F0DDCF11F011C010F0116A1050B06E8B
:100EF000AC8AAB8E949C948E9E9A9D8A9F8A9E9873
:100F00009D889F88020EE15C02E2E16AE552E16E93
:100F1000E552E7CFD9FF1200120EE66E7EEC08F024
:100F2000E552180EE66EFC0EE66E62EC08F0E55235
:100F3000E552F294F194F29A120092809282928495
:100F400092860B0EE66E040EE66EAB0EE66EFCECC1
:0A0F500007F0E552E552E5521200E9
:060F5A001E0EF66E000EF3
:100F6000F76E000EF86E00010900F550B86F090029
:100F7000F550B96F03E1B86701D03DD00900F550D5
:100F8000B36F0900F550B46F0900F550B56F090053
:100F90000900F550E96E0900F550EA6E09000900F4
:100FA0000900F550B66F0900F550B76F0900090048
:100FB000F6CFBAF0F7CFBBF0F8CFBCF0B3C0F6FF76
:100FC000B4C0F7FFB5C0F8FF0001B65302E1B75354
:100FD00007E00900F550EE6EB607F8E2B707F9D75B
:100FE000BAC0F6FFBBC0F7FFBCC0F8FF0001B807EE
:080FF000000EB95BBFD712002F
:080FF800D9CFE6FFDACFE6FFD6
:10100000E1CFD9FFE2CFDAFFC26AC06AFC0EDB4053
:101010007F0B3C0BC26EFB0EDBCFE6FFFC0EDB381A
:10102000F00B300BE552E710C16EFD0EDB50040DE6
:10103000F350380B116EFD0EDB380F0B070B106EE3
:10104000FD0EDB50800B10101110C06EFC0EDBAEDD
:1010500003D09E9C9D8CF28CC280E552E5CFDAFFD6
:06106000E7CFD9FF1200EA
:0A1066000D0A00525354204152526B
:1010700041590A0D00525354204152524159202DDA
:1010800020424F520A0D00525354204152524159AE
:10109000202D20504F520A0D0052535420415252DD
:1010A0004159202D204D434C520A0D0052535420DB
:1010B0004152524159202D205744540A0D00307896
:0410C000003062009A
:0C10C400D9CFE6FFDACFE6FFE1CFD9FF7D
:1010D000E2CFDAFFE652E652FC0EDBCFDEFFDBCFDB
:1010E000DDFF010EDB50D76EDF50D66EE552E552C4
:0C10F000E552E5CFDAFFE7CFD9FF120090
:0410FC00D9CFE6FF63
:10110000DACFE6FFE1CFD9FFE2CFDAFFFD0EDB5009
:101110007F0BD56ED76AD66AF294FD0EDBAE02D095
:10112000F28A01D0F29AD58EE552E5CFDAFFE7CF09
:04113000D9FF1200D1
:0C113400D9CFE6FFDACFE6FFE1CFD9FF0C
:10114000E2CFDAFFFD0EDB407F0B3C0B106EC30ECF
:10115000C2141010C26EC282E552E5CFDAFFE7CFAB
:04116000D9FF1200A1
:0C116400FF0EE350176EEF0E01D0F30EEB
:10117000E76EE72EB9EF08F00C0E166EE76AE72E61
:10118000BFEF08F0162EBEEF08F0172EB7EF08F0ED
:0211900012004B
:0E119200D9CFE6FFDACFE6FFE1CFD9FFE2CFFB
:1011A000DAFFC30EC214106EFD0EDB407F0B3C0B4A
:1011B0001010C26EE552E5CFDAFFE7CFD9FF12007B
:1011C000036A026A100EE76ED890063607360236BA
:1011D00003360B50025C0C50035805E30B50025EC3
:0C11E0000C50035A062AE72EF0D712002C
:0411EC00D0A20FD0AE
:1011F000D0A40CD0D0A009D0D0A6000CD0A8000C50
:10120000FCBE000CFCBC000C010C000C000C000C23
:101210001CEE00F02CEE00F0F86A0F9CADEC07F02D
:0C12200003EC00F017EC01F0FBD712000B
:04122C00036A080E3B
:10123000E76ED890073603360C50035C02E3036E6A
:08124000072AE72EF7D7120080
:08124800D0A209D0D0A406D009
:10125000D0A003D0D0B6000C010C000C000C000C88
:10126000D0B209D0D0A406D0D0B003D0D0A6000C04
:08127000010C000C000C000C45
:08127800C450136E126AC3504A
:0A1280001210F36E13C0F4FF120009
:06128A0000EE00F00D0E65
:08129000EE6AEA62FDD71200CC
:08129800D0B003D0D0A2000C7D
:0412A000010C000C31
:0612A400D082D080120090
:0412AA00C2821200EA
:0212AE003031DD
:0E12B0003233343536373839414243444546EF
:0212BE0000002E
:0512C000000000000A1F
:0B12C50000000000000000000000001E
:1012D0000000000000000000000000000000008787
:1012E0008F979F0000001E00140028881300000044
:0712F00000000000002300D4
:020000040030CA
:0100010008F6
:010002001FDE
:010003001FDD
:010005008278
:00000001FF
