:020000040000FA
:0600000091EF0BF012006D
:020006001200E6
:0600080022EF00F01200DF
:02000E00C250DE
:08001000020B01E0010E1200D9
:0600180073EF00F012007E
:02001E000300DD
:10002000D7170000600000003A000000D017000061
:10003000CB00000007000000C0170000F001000026
:0400400010000000AC
:0C004400DACFE4FFE2CFDAFFE9CFE4FFFF
:10005000EACFE4FFF6CFE4FFF7CFE4FFF5CFE4FF0C
:10006000F3CFE4FFF4CFE4FFFACFE4FF00EE00F0BB
:10007000140EE80403E3EECFE4FFFBD700EE18F024
:10008000040EE80403E3EECFE4FFFBD7E6529E50F4
:10009000100B03E19E50200B02E0BEEC08F0E5528D
:1000A00000EE1BF0040EE80403E3E5CFEDFFFBD701
:1000B00000EE13F0140EE80403E3E5CFEDFFFBD7E9
:1000C000E5CFFAFFE5CFF4FFE5CFF3FFE5CFF5FF8E
:1000D000E5CFF7FFE5CFF6FFE5CFEAFFE5CFE9FF94
:1000E000E5CFDAFF1100D8CFE4FFE0CFE4FFE46E04
:1000F000DACFE4FFE2CFDAFFE9CFE4FFEACFE4FFB3
:10010000F6CFE4FFF7CFE4FFF5CFE4FFF3CFE4FF52
:10011000F4CFE4FFFACFE4FF00EE00F0140EE804A1
:1001200003E3EECFE4FFFBD700EE18F0040EE80483
:1001300003E3EECFE4FFFBD7E652D9CFE6FFE1CFF2
:10014000D9FF020EE126F2A456D0C5EC0BF0F3CF96
:10015000DEFFF4CFDDFF030E0001705D10E2705191
:10016000E96EEA6AD890E936EA36660EE926000EAC
:10017000EA22DECFEEFFDDCFEDFF702B28D06C51F1
:10018000DE5C766F6D51DD58776F773504E276511E
:100190000408000E775508E3D880775104E7FC0E79
:1001A000765DFF0E775913E276C014F077C015F034
:1001B000166A176A15AE02D01668176814507827A9
:1001C0001550792316507A2317507B23706B70518A
:1001D000EA6A820FE96E000EEA22EF50E66E23EC27
:1001E0000BF0E5520C0EE66EFE0EE66EEBEC0AF03E
:1001F000E552E552F294020EE15C02E2E16AE55258
:10020000E16EE552E7CFD9FFE55200EE1BF0040E98
:10021000E80403E3E5CFEDFFFBD700EE13F0140E87
:10022000E80403E3E5CFEDFFFBD7E5CFFAFFE5CF29
:10023000F4FFE5CFF3FFE5CFF5FFE5CFF7FFE5CF1F
:10024000F6FFE5CFEAFFE5CFE9FFE5CFDAFFE550BE
:10025000E5CFE0FFE5CFD8FF1000D2EC09F0B0EC1D
:1002600008F00001D10EBA6F860EBB6F120EBC6F84
:10027000440EBD6F010EE66E3BEC0BF0E552ADECAB
:100280000BF0000909E0BE0EE66E150EE66E62EC9C
:1002900004F0E552E5522FD07FEC0BF0000909E0A5
:1002A000AB0EE66E150EE66E62EC04F0E552E5521A
:1002B00022D0B9EC0BF0000909E0990EE66E150E9C
:1002C000E66E62EC04F0E552E55215D0D5EC0BF089
:1002D000000909E0870EE66E150EE66E62EC04F08A
:1002E000E552E55208D07B0EE66E150EE66E62EC26
:1002F00004F0E552E552DBEC0BF0020EE66E3BEC4F
:100300000BF0E552A5D8D9D8F294F28A040025EC76
:1003100009F0000901E088D0000186A114D0C00EC8
:10032000E66E000EE66EA6EC09F0E552E55200011D
:100330008851EA6A9A0FE96E000EEA22C0C0EFFF08
:100340000001882B0CD000018681C00EE66E000EE5
:10035000E66EA6EC09F0E552E552C0C087F0000158
:100360008751620A5AE0020A47E0230A34E0010A90
:1003700021E0030A0EE0700A07E0010A01E053D011
:10038000FF00000186914FD0000186910001886B2B
:100390004AD0000188050DE1310E00019A5D03E1AC
:1003A0000001868502D0000186950001869100013A
:1003B000886B39D0000188050DE1310E00019A5D8E
:1003C00003E10001868702D0000186970001869133
:1003D0000001886B28D0000188050DE1310E000175
:1003E0009A5D03E10001868902D00001869900012F
:1003F00086910001886B17D0000188050DE1310E50
:1004000000019A5D03E10001868B02D00001869B0A
:10041000000186910001886B06D00001868D0001E5
:1004200086910001886B73D7000186B5B5D80001AD
:1004300086B733D9000186B952D9000186BB90D95D
:10044000000186AD03D015DA0001869D5FD712004A
:100450000001706B030E705D29E27051EA6A820F31
:10046000E96E000EEA22EF50E66E52EC0BF0E55218
:10047000DEEC0BF007EC00F0000901E0FBD7C5EC67
:100480000BF0F3CF18F0F4CF19F000017051E96EC2
:10049000EA6AD890E936EA36600EE926000EEA22CA
:1004A00018C0EEFF19C0EDFF702BD4D76251605D0C
:1004B000986F63516159996F1200D9CFE6FFE1CF70
:1004C000D9FF030EE126DE6ADD6A020EDB6ADB6A13
:1004D000DBCF18F0080EE76E1818E8AE02D0E7344C
:1004E00002D0E750185C26E20001030E706F7051D5
:1004F000EA6A820FE96E000EEA22EF50E66E52ECD5
:100500000BF0E552DEEC0BF007EC00F0000901E027
:10051000FBD7C5EC0BF0F3CF18F0F4CF19F0D9CF1F
:10052000E9FFDACFEAFF1850EE261950ED22020E4D
:10053000DB2ACED7DECF18F0DDCF19F0030ED8902E
:1005400019321832E804FBE118C0DEFF19C0DDFFE4
:10055000DECF6CF0DDCF6DF0030EE15C02E2E16A0C
:10056000E552E16EE552E7CFD9FF1200D9CFE6FFA1
:10057000E1CFD9FFFE0EDBCFE6FF54EC04F0E552ED
:10058000780EE66E150EE66E62EC04F0E552E5526A
:10059000E552E7CFD9FF120066C090F067C091F036
:1005A00068C092F069C093F0000160518925186E0F
:1005B00061518A21196E1850905D1950915919E2B4
:1005C000625189251A6E63518A211B6E1A50925D01
:1005D0001B5093590EE2490E0001BE5D09E0490E21
:1005E000E66EC4DFE5520001490EBE6F000186953C
:1005F00053D092519825186E93519921196E185025
:10060000905D966F19509159976F8C519719E8AE7C
:1006100002D0973504D096518B5D97518C590EE2DC
:10062000410E0001BE5D09E0410EE66E9FDFE5521E
:100630000001410EBE6F000186952ED08BC018F0D0
:100640008CC019F0186C191E000E19229751191838
:10065000E8AE02D0193404D01850965D195097595D
:100660000EE2420E0001BE5D09E0420EE66E7EDF44
:10067000E5520001420EBE6F000186950DD0430E7B
:100680000001BE5D09E0430EE66E70DFE552000139
:10069000430EBE6F0001869512006AC094F06BC0D5
:1006A00095F000018D51196A6425186E6551192263
:1006B0009451185C955119580EE2430E0001BF5D2C
:1006C00009E0440EE66E52DFE5520001440EBF6FB2
:1006D0000001869703D00001450EBF6F120066C06F
:1006E00090F067C091F068C092F069C093F06AC062
:1006F00094F06BC095F0000160518925186E61512E
:100700008A21196E9051185C9151195806E2460ED3
:10071000E66E2CDFE5520001869962518925186E3C
:1007200063518A21196E9251185C9351195806E24F
:10073000470EE66E1BDFE552000186998D51196A5E
:100740006425186E655119229451185C95511958F9
:1007500006E2480EE66E0ADFE552000186991200B5
:1007600078C07CF079C07DF07AC07EF07BC07FF0ED
:100770007CC006F07DC007F07EC008F07FC009F0A5
:100780003CEC07F007C018F008C019F009C01AF0D7
:100790000AC01BF0BAC00CF0BBC00DF0BCC00EF01C
:1007A000BDC00FF018C007F019C008F01AC009F05A
:1007B0001BC00AF055EC07F0FBEC07F008C072F024
:1007C00009C073F072C080F073C081F0680E0D6EC6
:1007D000010E0E6E80C008F081C009F0A8EC07F091
:1007E00008C080F009C081F0010E000181AF02D085
:1007F000D89003D0805D000E815907E2813504E373
:100800008051FF08FF0E815512E3680E086E010E3D
:10081000096E80C00DF081C00EF0CEEC07F00650DE
:100820000001725D746F07507359756F04D072C008
:1008300074F073C075F0800E751504E0680E7427AF
:10084000010E7523600EE66E54EC04F0E552200EA6
:10085000E66E54EC04F0E55274C0E6FF75C0E6FFA6
:100860005FEC05F0E552E5520001746B756B869BF9
:0E08700012000001786B796B7A6B7B6B1200C3
:02087E009EAA30
:1008800002D0010E02D0000E00D01200D9CFE6FF38
:10089000E1CFD9FFE652AE50DF6EDF5000D0E55217
:1008A000E552E7CFD9FF1200D9CFE6FFE1CFD9FF5C
:1008B000FE0EDBCFE6FF38EC09F0E552E552E7CF5C
:1008C000D9FF1200D9CFE6FFE1CFD9FFFD0EDBCF74
:1008D000F6FFFE0EDBCFF7FF0800F550E66EE4DF13
:1008E000E552FD0EDB2ADBCFF6FFFE0E01E3DB2A2D
:1008F000DBCFF7FF0800F550E9E1E552E7CFD9FF7C
:100900001200D9CFE6FFE1CFD9FF020EE126DE5279
:10091000800EDD6ED30EE66E150EE66ED3DFE55269
:10092000E552DF6A080EDF5C1AE2010EDBCFE6FF5C
:10093000FE0EDB50E552E71405E0310EE66EB4DF43
:10094000E55204D0300EE66EAFDFE552010EDBCF8C
:10095000F3FFF390F342F3CFDBFFDF2AE3D7020E7E
:10096000E15C02E2E16AE552E16EE552E7CFD9FFD0
:100970001200D9CFE6FFE1CFD9FF030EE126010E29
:10098000DB6A800EF36E020EF3CFDBFFD30EE66E52
:10099000150EE66E97DFE552E552DF6A100EDF5C5A
:1009A0002AE2010EDBCF1AF0020EDBCF1BF0FD0EA8
:1009B000DB501A14186EFE0EDB501B14196E185003
:1009C000191005E0310EE66E6FDFE55204D0300EEF
:1009D000E66E6ADFE552D950010FE96EDACFEAFF21
:1009E000010E0F0B06E0EC52D890ED32EF32E80624
:1009F000FAE1DF2AD3D7030EE15C02E2E16AE552B5
:100A0000E16EE552E7CFD9FF1200D9CFE6FFE1CF83
:100A1000D9FFE652FE0EDB50DF6E640E186E18C072
:100A20000EF0DFCF09F09FEC0BF009500DE0640EE3
:100A3000186E18C00EF0DFCF09F09FEC0BF00950D4
:100A4000300FE66E31DFE552640E186E18C00EF0FE
:100A5000DFCF09F09FEC0BF00950640DF350DF5C21
:100A6000DF6E0A0E186E18C00EF0DFCF09F09FEC93
:100A70000BF009500DE00A0E186E18C00EF0DFCF13
:100A800009F09FEC0BF00950300FE66E0DDFE552D8
:100A90000A0E186E18C00EF0DFCF09F09FEC0BF0B5
:100AA00009500A0DF350DF5CDF6E300EDF24E66E76
:100AB000FBDEE552E552E552E7CFD9FF1200D9CF70
:100AC000E6FFE1CFD9FF020EE126FD0EDBCFDEFF10
:100AD000DBCFDDFFDECF18F0DDCF19F0100E0D6E8D
:100AE000270E0E6E18C008F019C009F069EC0BF063
:100AF00008C018F009C019F0300E1824E66ED4DED4
:100B0000E552DECF1AF0DDCF1BF0100E0D6E270E72
:100B10000E6E1AC008F01BC009F069EC0BF008C09B
:100B20001AF009C01BF0100E1B02F3CF1BF0270EAA
:100B30001A02F3501B26100E1A02F3CF1AF0F450CB
:100B40001B261A50DE5C186E1B50DD58196E18C03B
:100B5000DEFF19C0DDFFDECF18F0DDCF19F0E80EA3
:100B60000D6E030E0E6E18C008F019C009F069EC86
:100B70000BF008C018F009C019F0300E1824E66E0A
:100B800093DEE552DECF1AF0DDCF1BF0E80E0D6EDE
:100B9000030E0E6E1AC008F01BC009F069EC0BF0D2
:100BA00008C01AF009C01BF0E80E1B02F3CF1BF0BF
:100BB000030E1A02F3501B26E80E1A02F3CF1AF0A6
:100BC000F4501B261A50DE5C186E1B50DD58196E4F
:100BD00018C0DEFF19C0DDFFDECF18F0DDCF19F041
:100BE000640E0D6E0E6A18C008F019C009F069ECA9
:100BF0000BF008C018F009C019F0300E1824E66E8A
:100C000053DEE552DECF1AF0DDCF1BF0640E0D6E21
:100C10000E6A1AC008F01BC009F069EC0BF008C09E
:100C20001AF009C01BF0640E1B02F3CF1BF01A026E
:100C3000F3CF1AF0F4501B261A50DE5C186E1B50CE
:100C4000DD58196E18C0DEFF19C0DDFFDECF18F0C9
:100C5000DDCF19F00A0E0D6E0E6A18C008F019C02B
:100C600009F069EC0BF008C018F009C019F0300E5B
:100C70001824E66E19DEE552DECF1AF0DDCF1BF048
:100C80000A0E0D6E0E6A1AC008F01BC009F069EC5E
:100C90000BF008C01AF009C01BF00A0E1B02F3CFBC
:100CA0001BF01A02F3CF1AF0F4501B261A50DE5C28
:100CB000186E1B50DD58196E18C0DEFF19C0DDFF1D
:100CC000DECF18F0DDCF19F0300E1824E66EECDD23
:100CD000E552020EE15C02E2E16AE552E16EE552A4
:100CE000E7CFD9FF1200D9CFE6FFE1CFD9FF020E3F
:100CF000E126D00EE66E150EE66EE4DDE552E55215
:100D0000FE0EDB380F0B0F0BDE6EDD6ADECFE9FF68
:100D1000DDCFEAFFF00EE926010EEA22EF50E66E83
:100D2000C3DDE552FE0EDB500F0BDE6EDD6ADECF5B
:100D3000E9FFDDCFEAFFF00EE926010EEA22EF50CF
:100D4000E66EB2DDE552020EE15C02E2E16AE552D6
:100D5000E16EE552E7CFD9FF1200D9CFE6FFE1CF30
:100D6000D9FF020EE126D00EE66E150EE66EAADD64
:100D7000E552E552FD0EDBCF18F0FE0EDBCF19F089
:100D80001938196A0F0B186E0F0E1816000E191667
:100D900018C0DEFF19C0DDFFDECFE9FFDDCFEAFFBF
:100DA000F00EE926010EEA22EF50E66E7DDDE552F7
:100DB000FD0EDBCF18F0FE0EDBCF19F019C018F0D6
:100DC000196A0F0E1816000E191618C0DEFF19C08A
:100DD000DDFFDECFE9FFDDCFEAFFF00EE926010EF1
:100DE000EA22EF50E66E60DDE552FD0EDBCF18F033
:100DF000FE0EDBCF19F0040ED89019321832E80439
:100E0000FBE10F0E1816000E191618C0DEFF19C0F0
:100E1000DDFFDECFE9FFDDCFEAFFF00EE926010EB0
:100E2000EA22EF50E66E40DDE5520F0EE76EFD0E52
:100E3000DBCF18F0FE0EDBCF19F0E7501816196A59
:100E400018C0DEFF19C0DDFFDECFE9FFDDCFEAFF0E
:100E5000F00EE926010EEA22EF50E66E25DDE5529E
:100E6000020EE15C02E2E16AE552E16EE552E7CF93
:040E7000D9FF120094
:0C0E7400019E0CD0019E09AE09D0066C56
:100E8000071E081E091EE86A072208220922018E91
:100E900009C003F008C002F007C013F006C012F04A
:100EA0009E0E046E056A46EF08F0016A82EC08F0B7
:100EB0009AEC08F001B62AEF08F001A205D001BAB9
:100EC0002AEF08F031EF08F001BA3DEF08F001A079
:100ED00005D001B82AEF08F03DEF08F001B831EF76
:100EE00008F0056A7F0E0A24046EE86A05220F5096
:100EF000045EE86A055A1A0E106E0A6A126A136ACC
:100F0000026A036A0C50075E0D50085A0E50095AC7
:100F1000000E0A5A09E70C5007260D5008220E5001
:100F20000922000E0A2201D0128AD890073608360C
:100F300009360A36D8901236133602360336102E8A
:100F4000E1D7095008100710D8A4128A46EF08F01C
:100F5000006A0EAEB1EF07F00D6C0E1EE86A0E22AD
:100F6000001E09AEB9EF07F0086C091EE86A0922F5
:100F7000001E69EC0BF009BEC9EF07F000AE000CD3
:100F8000086C091EE86A0922046C051EE86A05223D
:100F9000000C00BEC0EF07F00188FF0C09C013F081
:100FA00008C012F008500D02F4CF07F0F3CF06F09E
:100FB00009500E02F4CF09F0F3CF08F00D02F35000
:100FC0000726F4500822E86A092212500E02F35054
:100FD0000726F4500822E86A09220EAEF4EF07F063
:100FE0001250085E1350095A13AE000C0D50085EE3
:100FF0000E50095A000C016A82EC08F001B605EFA8
:1010000008F001A20ED001B405D07F0E096EFF0ECC
:10101000086E1FD0800E096E086A1BD0096A086A24
:1010200018D001B0FBD78F0E0A60EDD77E0E0A6490
:10103000F5D78E0E0A5C05E0D890093208320A2AEC
:10104000F8D701A406D0086C091EE86A092209AE87
:10105000E5D712007F0E0A6EFF0E096E086E076E4E
:1010600012007F0E01BEFF0E0A6E02D07F0E0A6EC6
:10107000800E096E086A076AF3D701AE04D0800EAD
:101080000A6E096AF7D70A6A096AF4D70350021090
:1010900013101210F8E005BEF0D703BE0CD00450B8
:1010A0000510EBE0D89012361336023603360406EC
:1010B000D8A00506F2D70550D4E10428D2E012AE3C
:1010C00011D07F0E121402E113A00CD0132AE86A8B
:1010D0000222032207E3D880033202321332042AA9
:1010E0000428BFE00450C9E013C007F002C008F0B4
:1010F0000334096E04300A6E09320A9E01BE0A8E5C
:1011000030EF08F009360A3602E30184017E06E179
:1011100001800A6A096A086A076A12000A2803E05D
:10112000D88009321200D890093202E101821200FF
:10113000018612000E360F3602E3018C017E06E1B5
:1011400001880F6A0E6A0D6A0C6A12000F2803E00C
:10115000D8800E321200D8900E32EAE1018A1200D5
:101160000001CB6BCC6BCD6BCE6BCF6BD06BD191C9
:10117000D183D195D187D199D19B1200D9CFE6FFE8
:10118000E1CFD9FFE6529D50100B01E0010E186E21
:101190009E50100B01E0010E181419E00001D1B3AC
:1011A00014D0CC51EA6A000FE96E010EEA22EF502A
:1011B000AD6ED1B1D191CB07CB5101E1D183CC2B15
:1011C000780ECC5D01E1CC6B01D09D9832D09D5062
:1011D000200B01E0010E186E9E50200B01E0010E65
:1011E000181427E0ABA403D0AE50DF6E22D0ABA220
:1011F00005D0AB98AB88AE50DF6E1BD00001D1A5F7
:1012000003D0AE50DF6E15D0D1B513D0D197D051E9
:10121000EA6A780FE96E010EEA22AECFEFFFCE2B1D
:10122000780ECE5D01E1D185D02B780ED05D01E145
:10123000D06BE552E552E7CFD9FF12000001D15142
:10124000020B01E0010E00D012000001D151080B89
:1012500001E0010E00D012000001D151010B00D0BD
:1012600012000001D151040B01E0010E00D0120068
:10127000D9CFE6FFE1CFD9FF0001D1B116D09D98BB
:10128000CD51EA6A000FE96E010EEA22FE0EDBCFB5
:10129000EFFFCB2BD193780ECB5D01E1D181CD2B2C
:1012A000780ECD5D01E1CD6B9D88E552E7CFD9FF8A
:1012B0001200D9CFE6FFE1CFD9FF0001D1B516D09A
:1012C0009D9AD051EA6A780FE96E010EEA22FE0E6D
:1012D000DBCFEFFFCE2BD197780ECE5D01E1D1852C
:1012E000D02B780ED05D01E1D06B9D8AE552E7CF1F
:1012F000D9FF1200D9CFE6FFE1CFD9FF0001D1A37A
:1013000002D0000E1FD09D98D191CC51EA6A000FF7
:10131000E96E010EEA22EF50E66EFD0EDBCFE9FF2B
:10132000FE0EDBCFEAFFE552E750EF6ECB07CB5165
:1013300001E1D183CC2B780ECC5D01E1CC6B9D8893
:10134000010E00D0E552E7CFD9FF1200D9CFE6FF5A
:10135000E1CFD9FF0001D1A702D0000E1FD09D9A86
:10136000D195CF51EA6A780FE96E010EEA22EF506B
:10137000E66EFD0EDBCFE9FFFE0EDBCFEAFFE552A6
:10138000E750EF6ECE07CE5101E1D187CF2B780E1B
:10139000CF5D01E1CF6B9D8A010E00D0E552E7CF12
:0413A000D9FF12005F
:0C13A4000BD80ED811D850D83ED8936A50
:1013B000010E8A6EF36EF46A00D01200700ED36EC6
:1013C0009B8C1200D08EF28CF28E1200D9CFE6FFE9
:1013D000E1CFD9FF020EE126440EDE6EDD6AAC6A73
:1013E000AB6AAB88AC84B886AC9AAB9EDF50AF6E6C
:1013F000DECF18F0DDCF19F019C018F0196A1850B7
:10140000B06EAC8AAB8E949C948E9E9A9D8A9F8A75
:101410009E989D889F88020EE15C02E2E16AE55297
:10142000E16EE552E7CFD9FF1200120EE66E07EC2F
:101430000BF0E5520C0EE66EFE0EE66EEBEC0AF0DB
:10144000E552E552F294F194F29A1200928092825F
:10145000928492860B0EE66E040EE66EAB0EE66E7E
:0C14600085EC0AF0E552E552E55212005E
:04146C001E0EF66EEC
:10147000000EF76E000EF86E00010900F550C66F01
:101480000900F550C76F03E1C66701D03DD00900E0
:10149000F550C16F0900F550C26F0900F550C36FD8
:1014A00009000900F550E96E0900F550EA6E0900DF
:1014B00009000900F550C46F0900F550C56F090017
:1014C0000900F6CFC8F0F7CFC9F0F8CFCAF0C1C015
:1014D000F6FFC2C0F7FFC3C0F8FF0001C45302E12A
:1014E000C55307E00900F550EE6EC407F8E2C507E2
:1014F000F9D7C8C0F6FFC9C0F7FFCAC0F8FF00019E
:0A150000C607000EC75BBFD712003C
:06150A00D9CFE6FFDACFA5
:10151000E6FFE1CFD9FFE2CFDAFFC26AC06AFC0E74
:10152000DB407F0B3C0BC26EFB0EDBCFE6FFFC0EFD
:10153000DB38F00B300BE552E710C16EFD0EDB50CF
:10154000040DF350380B196EFD0EDB380F0B070B33
:10155000186EFD0EDB50800B18101910C06EFC0EBB
:10156000DBAE03D09E9C9D8CF28CC280E552E5CF11
:08157000DAFFE7CFD9FF1200FA
:081578000D0A005253542041FA
:10158000525241590A0D005253542041525241596E
:10159000202D20424F520A0D0052535420415252E6
:1015A0004159202D20504F520A0D005253542041D2
:1015B00052524159202D204D434C520A0D00525396
:1015C00054204152524159202D205744540A0D00B5
:0615D000307800306200DB
:0A15D600D9CFE6FFDACFE6FFE1CF40
:1015E000D9FFE2CFDAFFE652E652FC0EDBCFDEFF98
:1015F000DBCFDDFF010EDB50D76EDF50D66EE5523C
:0E160000E552E552E5CFDAFFE7CFD9FF120041
:02160E00D9CF32
:10161000E6FFDACFE6FFE1CFD9FFE2CFDAFFFD0E3A
:10162000DB507F0BD56ED76AD66AF294FD0EDBAE27
:1016300002D0F28A01D0F29AD58EE552E5CFDAFFD8
:06164000E7CFD9FF120004
:0A164600D9CFE6FFDACFE6FFE1CFCF
:10165000D9FFE2CFDAFFFD0EDB407F0B3C0B186EAB
:10166000C30EC2141810C26EC282E552E5CFDAFF73
:06167000E7CFD9FF1200D4
:0A167600FF0EE3501D6EEF0E01D0D1
:10168000F30EE76EE72E42EF0BF00C0E1C6EE76ACE
:10169000E72E48EF0BF01C2E47EF0BF01D2E40EF0E
:0416A0000BF0120039
:0C16A400D9CFE6FFDACFE6FFE1CFD9FF97
:1016B000E2CFDAFFC30EC214186EFD0EDB407F0BC3
:1016C0003C0B1810C26EE552E5CFDAFFE7CFD9FF29
:0216D000120006
:0E16D200056A046A100EE76ED89008360936D5
:1016E000043605360D50045C0E50055805E30D50C8
:0E16F000045E0E50055A082AE72EF0D71200AD
:0216FE00D0A278
:101700000FD0D0A40CD0D0A009D0D0A6000CD0A867
:10171000000CFCBE000CFCBC000C010C000C000C0E
:02172000000CBB
:0E1722001CEE00F02CEE00F0F86A019C36EC94
:0E1730000AF003EC00F02DEC01F0FBD71200E4
:02173E00056A3A
:10174000080EE76ED890093605360E50055C02E3A8
:0A175000056E092AE72EF7D71200F4
:06175A00D0A209D0D0A4CA
:1017600006D0D0A003D0D0B6000C010C000C000CA9
:02177000000C6B
:0E177200D0B209D0D0A406D0D0B003D0D0A6FB
:0A178000000C010C000C000C000C22
:06178A00C4501B6E1A6A38
:0C179000C3501A10F36E1BC0F4FF1200CF
:04179C0000EE00F06B
:0A17A0000D0EEE6AEA62FDD712009A
:0617AA00D0B003D0D0A274
:0617B000000C010C000C0E
:0617B600D082D080120079
:0417BC00C2821200D3
:1017C0003031323334353637383941424344454677
:0717D0000000000000000A08
:0917D70000000000000000000009
:1017E00000000000000000000000000000000000F9
:1017F000000000000000000000878F979F0000009D
:101800001E001400288813000000000000000023C0
:0118100000D7
:020000040030CA
:0100010008F6
:010002001FDE
:010003001FDD
:010005008278
:00000001FF
