:020000040000FA
:06000000ACEF0BF0120052
:020006001200E6
:0600080022EF00F01200DF
:02000E00C250DE
:08001000020B01E0010E1200D9
:0600180073EF00F012007E
:02001E000300DD
:100020000D180000600000003600000006180000F7
:10003000C500000007000000F6170000F0010000F6
:0400400010000000AC
:0C004400DACFE4FFE2CFDAFFE9CFE4FFFF
:10005000EACFE4FFF6CFE4FFF7CFE4FFF5CFE4FF0C
:10006000F3CFE4FFF4CFE4FFFACFE4FF00EE00F0BB
:10007000140EE80403E3EECFE4FFFBD700EE1CF020
:10008000040EE80403E3EECFE4FFFBD7E6529E50F4
:10009000100B03E19E50200B02E07DEC08F0E552CE
:1000A00000EE1FF0040EE80403E3E5CFEDFFFBD7FD
:1000B00000EE13F0140EE80403E3E5CFEDFFFBD7E9
:1000C000E5CFFAFFE5CFF4FFE5CFF3FFE5CFF5FF8E
:1000D000E5CFF7FFE5CFF6FFE5CFEAFFE5CFE9FF94
:1000E000E5CFDAFF1100D8CFE4FFE0CFE4FFE46E04
:1000F000DACFE4FFE2CFDAFFE9CFE4FFEACFE4FFB3
:10010000F6CFE4FFF7CFE4FFF5CFE4FFF3CFE4FF52
:10011000F4CFE4FFFACFE4FF00EE00F0140EE804A1
:1001200003E3EECFE4FFFBD700EE1CF0040EE8047F
:1001300003E3EECFE4FFFBD7E652D9CFE6FFE1CFF2
:10014000D9FF020EE126F2A463D0E0EC0BF0F3CF6E
:10015000DEFFF4CFDDFF030E0001705D10E2705191
:10016000E96EEA6AD890E936EA36660EE926000EAC
:10017000EA22DECFEEFFDDCFEDFF702B35D0DECFF4
:1001800014F0DDCF15F0050E176A6C25166E6D5153
:1001900017221450165C1550175811E3DECF18F0D3
:1001A000DDCF19F06CC01AF06DC01BF0050E1A5EA1
:1001B000000E1B5A1A50185C1B50195815E26C514E
:1001C000DE5C146E6D51DD58156E166A176A15AE39
:1001D00002D01668176814507227155073231650F2
:1001E000742317507523706B7051EA6A7E0FE96EA5
:1001F000000EEA22EF50E66E3EEC0BF0E552180ED0
:10020000E66EFC0EE66E06EC0BF0E552E552F2945B
:10021000020EE15C02E2E16AE552E16EE552E7CFEF
:10022000D9FFE55200EE1FF0040EE80403E3E5CF2A
:10023000EDFFFBD700EE13F0140EE80403E3E5CF67
:10024000EDFFFBD7E5CFFAFFE5CFF4FFE5CFF3FFF6
:10025000E5CFF5FFE5CFF7FFE5CFF6FFE5CFEAFF06
:10026000E5CFE9FFE5CFDAFFE550E5CFE0FFE5CFE9
:10027000D8FF100091EC09F06FEC08F00001C60EF9
:10028000B66FE70EB76F320EB86F3C0EB96F010E46
:10029000E66E56EC0BF0E552C8EC0BF0000909E0F5
:1002A000AC0EE66E150EE66E1EEC04F0E552E5525D
:1002B0002FD09AEC0BF0000909E0990EE66E150EAE
:1002C000E66E1EEC04F0E552E55222D0D4EC0BF0C1
:1002D000000909E0870EE66E150EE66E1EEC04F0CE
:1002E000E552E55215D0F0EC0BF0000909E0750E6F
:1002F000E66E150EE66E1EEC04F0E552E55208D0EF
:10030000690EE66E150EE66E1EEC04F0E552E5523F
:10031000F6EC0BF0020EE66E56EC0BF0E55291D8BF
:10032000C5D8F294F28A0400E4EC08F0000901E078
:1003300076D0000182A114D0BA0EE66E000EE66EF1
:1003400065EC09F0E552E55200018451EA6A960F26
:10035000E96E000EEA22BAC0EFFF0001842B0CD038
:1003600000018281BA0EE66E000EE66E65EC09F0C1
:10037000E552E552BAC083F000018351440A47E0D8
:10038000070A34E0010A21E0030A0EE0700A07E0E0
:10039000010A01E043D0FF00000182913FD000013B
:1003A00082910001846B3AD00001010E846F00013C
:1003B00084510AE00001965100018295E8B08285DF
:1003C000000182910001846B29D00001010E846F2D
:1003D000000184510AE00001965100018297E8B0C3
:1003E0008287000182910001846B18D00001010E08
:1003F000846F000184510AE0000196510001829946
:10040000E8B08289000182910001846B07D000016D
:10041000828B000182910001846B00D085D700019E
:1004200082B5B3D8000182B70DD9000182B920D9B5
:1004300050D9000182AB03D04CD90001829B73D705
:1004400012000001706B030E705D29E27051EA6AC0
:100450007E0FE96E000EEA22EF50E66E6DEC0BF0B7
:10046000E552F9EC0BF007EC00F0000901E0FBD7D6
:10047000E0EC0BF0F3CF1CF0F4CF1DF00001705155
:10048000E96EEA6AD890E936EA36600EE926000E8F
:10049000EA221CC0EEFF1DC0EDFF702BD4D76251C5
:1004A000605D946F63516159956F1200D9CFE6FF7B
:1004B000E1CFD9FF030EE126DE6ADD6A020EDB6AB8
:1004C000DB6ADBCF1CF0080EE76E1C18E8AE02D02A
:1004D000E73402D0E7501C5C26E20001030E706F87
:1004E0007051EA6A7E0FE96E000EEA22EF50E66E66
:1004F0006DEC0BF0E552F9EC0BF007EC00F00009A5
:1005000001E0FBD7E0EC0BF0F3CF1CF0F4CF1DF0D3
:10051000D9CFE9FFDACFEAFF1C50EE261D50ED22BD
:10052000020EDB2ACED7DECF1CF0DDCF1DF0030E8E
:10053000D8901D321C32E804FBE11CC0DEFF1DC058
:10054000DDFFDECF6CF0DDCF6DF0030EE15C02E28B
:10055000E16AE552E16EE552E7CFD9FF1200D9CF4B
:10056000E6FFE1CFD9FFFE0EDBCFE6FFF7EC08F0A8
:10057000E552660EE66E150EE66E1EEC04F0E552D0
:10058000E552E552E7CFD9FF120066C08CF067C094
:100590008DF068C08EF069C08FF000016051852534
:1005A0001C6E615186211D6E1C508C5D1D508D5935
:1005B00010E2625185251E6E635186211F6E1E500A
:1005C0008E5D1F508F5905E2490EE66EC8DFE55279
:1005D00038D08E5194251C6E8F5195211D6E1C5064
:1005E0008C5D926F1D508D59936F88519319E8AEB1
:1005F00002D0933504D09251875D9351885905E21A
:10060000410EE66EACDFE5521CD087C01CF088C0FE
:100610001DF01C6C1D1E000E1D2293511D18E8AE0E
:1006200002D01D3404D01C50925D1D50935905E238
:10063000420EE66E94DFE55204D0430EE66E8FDF85
:10064000E5521200000189511D6A64251C6E655136
:100650001D226A511C5C6B511D5805E2440EE66E6A
:100660007EDFE55204D0450EE66E79DFE5521200DA
:100670000001605185251C6E615186211D6E6651F9
:100680001C5C67511D5804E2460EE66E68DFE552B9
:100690000001625185251C6E635186211D6E6851D3
:1006A0001C5C69511D5804E2470EE66E58DFE552A6
:1006B000000189511D6A64251C6E65511D226A5115
:1006C0001C5C6B511D5804E2480EE66E48DFE55293
:1006D000120072C076F073C077F074C078F075C005
:1006E00079F076C006F077C007F078C008F079C0DE
:1006F00009F0F8EC06F007C01CF008C01DF009C0B6
:100700001EF00AC01FF0B6C00CF0B7C00DF0B8C0A4
:100710000EF0B9C00FF01CC007F01DC008F01EC0DD
:1007200009F01FC00AF011EC07F0B2EC07F006C0A8
:100730007AF007C07BF008C07CF009C07DF07AC079
:1007400006F07BC007F07CC008F07DC009F0680EA1
:100750000B6E010E0C6E0D6A0E6A7EEC07F00650F1
:1007600007100810091036E07AC006F07BC007F0C9
:100770007CC008F07DC009F0680E0B6E010E0C6E97
:100780000D6A0E6A7EEC07F0680E0B6E010E0C6EA1
:100790000D6A0E6A44EC0AF0025000017A5D1C6E8C
:1007A00003507B591D6E04507C591E6E05507D59B7
:1007B0001F6E1CC0E6FF1DC0E6FF1BEC05F0E552F6
:1007C000E552660EE66E150EE66E1EEC04F0E5527E
:1007D000E55210D07AC0E6FF7BC0E6FF1BEC05F0C7
:1007E000E552E552660EE66E150EE66E1EEC04F05E
:0607F000E552E552120083
:0A07F6009EAA02D0010E02D0000EF0
:1008000000D01200D9CFE6FFE1CFD9FFE652AE50BB
:10081000DF6EDF5000D0E552E552E7CFD9FF12007E
:10082000D9CFE6FFE1CFD9FFFE0EDBCFE6FFF7EC35
:1008300008F0E552E552E7CFD9FF1200D9CFE6FF25
:10084000E1CFD9FFFD0EDBCFF6FFFE0EDBCFF7FFCA
:100850000800F550E66EE4DFE552FD0EDB2ADBCF43
:10086000F6FFFE0E01E3DB2ADBCFF7FF0800F550B1
:10087000E9E1E552E7CFD9FF1200D9CFE6FFE1CF9A
:10088000D9FF020EE126DE52800EDD6EC10EE66E4D
:10089000150EE66ED3DFE552E552DF6A080EDF5C27
:1008A0001AE2010EDBCFE6FFFE0EDB50E552E71445
:1008B00005E0310EE66EB4DFE55204D0300EE66E90
:1008C000AFDFE552010EDBCFF3FFF390F342F3CF3E
:1008D000DBFFDF2AE3D7020EE15C02E2E16AE552C8
:1008E000E16EE552E7CFD9FF1200D9CFE6FFE1CFA5
:1008F000D9FF030EE126010EDB6A800EF36E020EB5
:10090000F3CFDBFFC10EE66E150EE66E97DFE55204
:10091000E552DF6A100EDF5C2AE2010EDBCF1EF02B
:10092000020EDBCF1FF0FD0EDB501E141C6EFE0E00
:10093000DB501F141D6E1C501D1005E0310EE66EBD
:100940006FDFE55204D0300EE66E6ADFE552D95013
:10095000010FE96EDACFEAFF010E0F0B06E0EC5251
:10096000D890ED32EF32E806FAE1DF2AD3D7030E52
:10097000E15C02E2E16AE552E16EE552E7CFD9FFC0
:100980001200D9CFE6FFE1CFD9FFE652FE0EDB50D1
:10099000DF6E640E1C6E1CC00EF0DFCF09F0BAECE7
:1009A0000BF009500DE0640E1C6E1CC00EF0DFCF82
:1009B00009F0BAEC0BF00950300FE66E31DFE5526A
:1009C000640E1C6E1CC00EF0DFCF09F0BAEC0BF009
:1009D0000950640DF350DF5CDF6E0A0E1C6E1CC004
:1009E0000EF0DFCF09F0BAEC0BF009500DE00A0E63
:1009F0001C6E1CC00EF0DFCF09F0BAEC0BF00950F2
:100A0000300FE66E0DDFE5520A0E1C6E1CC00EF0B4
:100A1000DFCF09F0BAEC0BF009500A0DF350DF5CA0
:100A2000DF6E300EDF24E66EFBDEE552E552E55266
:100A3000E7CFD9FF1200D9CFE6FFE1CFD9FF020EF1
:100A4000E126FD0EDBCFDEFFDBCFDDFFDECF1CF0CE
:100A5000DDCF1DF0100E0D6E270E0E6E1CC008F0BF
:100A60001DC009F084EC0BF008C01CF009C01DF09B
:100A7000300E1C24E66ED4DEE552DECF1EF0DDCF54
:100A80001FF0100E0D6E270E0E6E1EC008F01FC058
:100A900009F084EC0BF008C01EF009C01FF0100E26
:100AA0001F02F3CF1FF0270E1E02F3501F26100E59
:100AB0001E02F3CF1EF0F4501F261E50DE5C1C6E8B
:100AC0001F50DD581D6E1CC0DEFF1DC0DDFFDECFD8
:100AD0001CF0DDCF1DF0E80E0D6E030E0E6E1CC077
:100AE00008F01DC009F084EC0BF008C01CF009C030
:100AF0001DF0300E1C24E66E93DEE552DECF1EF0B4
:100B0000DDCF1FF0E80E0D6E030E0E6E1EC008F056
:100B10001FC009F084EC0BF008C01EF009C01FF0E4
:100B2000E80E1F02F3CF1FF0030E1E02F3501F2624
:100B3000E80E1E02F3CF1EF0F4501F261E50DE5C9E
:100B40001C6E1F50DD581D6E1CC0DEFF1DC0DDFF7A
:100B5000DECF1CF0DDCF1DF0640E0D6E0E6A1CC0E2
:100B600008F01DC009F084EC0BF008C01CF009C0AF
:100B70001DF0300E1C24E66E53DEE552DECF1EF073
:100B8000DDCF1FF0640E0D6E0E6A1EC008F01FC090
:100B900009F084EC0BF008C01EF009C01FF0640ED1
:100BA0001F02F3CF1FF01E02F3CF1EF0F4501F26DA
:100BB0001E50DE5C1C6E1F50DD581D6E1CC0DEFF1B
:100BC0001DC0DDFFDECF1CF0DDCF1DF00A0E0D6E67
:100BD0000E6A1CC008F01DC009F084EC0BF008C0C0
:100BE0001CF009C01DF0300E1C24E66E19DEE55223
:100BF000DECF1EF0DDCF1FF00A0E0D6E0E6A1EC096
:100C000008F01FC009F084EC0BF008C01EF009C00A
:100C10001FF00A0E1F02F3CF1FF01E02F3CF1EF0CB
:100C2000F4501F261E50DE5C1C6E1F50DD581D6EDA
:100C30001CC0DEFF1DC0DDFFDECF1CF0DDCF1DF0D0
:100C4000300E1C24E66EECDDE552020EE15C02E2A1
:100C5000E16AE552E16EE552E7CFD9FF1200D9CF44
:100C6000E6FFE1CFD9FF020EE126BE0EE66E150EBD
:100C7000E66EE4DDE552E552FE0EDB380F0B0F0B9E
:100C8000DE6EDD6ADECFE9FFDDCFEAFFF00EE9269A
:100C9000010EEA22EF50E66EC3DDE552FE0EDB5098
:100CA0000F0BDE6EDD6ADECFE9FFDDCFEAFFF00E6F
:100CB000E926010EEA22EF50E66EB2DDE552020EA1
:100CC000E15C02E2E16AE552E16EE552E7CFD9FF6D
:100CD0001200D9CFE6FFE1CFD9FF020EE126BE0E0A
:100CE000E66E150EE66EAADDE552E552FD0EDBCF8F
:100CF0001CF0FE0EDBCF1DF01D381D6A0F0B1C6EA5
:100D00000F0E1C16000E1D161CC0DEFF1DC0DDFFE1
:100D1000DECFE9FFDDCFEAFFF00EE926010EEA2281
:100D2000EF50E66E7DDDE552FD0EDBCF1CF0FE0ED2
:100D3000DBCF1DF01DC01CF01D6A0F0E1C16000E2F
:100D40001D161CC0DEFF1DC0DDFFDECFE9FFDDCFBD
:100D5000EAFFF00EE926010EEA22EF50E66E60DDB2
:100D6000E552FD0EDBCF1CF0FE0EDBCF1DF0040EB6
:100D7000D8901D321C32E804FBE10F0E1C16000E49
:100D80001D161CC0DEFF1DC0DDFFDECFE9FFDDCF7D
:100D9000EAFFF00EE926010EEA22EF50E66E40DD92
:100DA000E5520F0EE76EFD0EDBCF1CF0FE0EDBCF23
:100DB0001DF0E7501C161D6A1CC0DEFF1DC0DDFFC4
:100DC000DECFE9FFDDCFEAFFF00EE926010EEA22D1
:100DD000EF50E66E25DDE552020EE15C02E2E16ACB
:0C0DE000E552E16EE552E7CFD9FF1200AA
:040DEC00019E0CD088
:100DF000019E09AE09D0066C071E081E091EE86A8E
:100E0000072208220922018E09C003F008C002F05F
:100E100007C013F006C012F09E0E046E056A05EFBF
:100E200008F0016A41EC08F059EC08F001B6E9EF6E
:100E300007F001A205D001B8E9EF07F0F0EF07F0E5
:100E400001AA05D001B0E9EF07F0F0EF07F001B01B
:100E500002D001A802D0FCEF07F0056A0F500A2467
:100E6000046EE86A05227E0E045EE86A055A126A7C
:100E7000136A026A036A0E500902F4CF03F0F3CF3B
:100E800002F00D500902F3501326F4500222000E16
:100E900003220E500802F3501326F4500222000ED3
:100EA00003220C500902F3501226F4501322000EB4
:100EB000022203220D500802F3501226F45013228E
:100EC000000E022203220E500702F3501226F450A5
:100ED0001322000E022203220C500802F4501226A4
:100EE000000E1322022203220D500702F450122694
:100EF000000E13220222032205EF08F0006AE86ABE
:100F00000EAE8BEF07F00B6C0C1E0D1E0E1E0C228E
:100F10000D220E22001E09AE96EF07F0066C071E8A
:100F2000081E091E072208220922001EE2EC0AF010
:100F300009BEADEF07F000AE000C066C071E081EE0
:100F4000091EE86A072208220922026C031E041EF9
:100F5000051E032204220522000C00BE9DEF07F0AF
:100F60000188FF0C016A41EC08F001B6BCEF07F004
:100F700001A20FD001B407D07F0E096EFF0E086EDC
:100F8000076E066E25D0800E096E01D0096A000E2C
:100F9000F6D701B0FBD7066A9F0E0A60EBD77E0E2C
:100FA0000A64F4D79E0E0A5C07E0D8900932083232
:100FB000073206320A2AF6D701A40AD0066C071EA9
:100FC000081E091EE86A07220822092209AEDED798
:100FD00012007F0E0A6EFF0E096E086E076E120079
:100FE0007F0E01BEFF0E0A6E02D07F0E0A6E800ECB
:100FF000096E086A076AF3D701AE04D0800E0A6E44
:10100000096AF7D70A6A096AF4D703500210131065
:101010001210F8E005BEF0D703BE0CD00450051046
:10102000EBE0D89012361336023603360406D8A009
:101030000506F2D70550D4E10428D2E012AE11D053
:101040007F0E121402E113A00CD0132AE86A0222C8
:10105000032207E3D880033202321332042A042821
:10106000BFE00450C9E013C007F002C008F0033429
:10107000096E04300A6E09320A9E01BE0A8EEFEF35
:1010800007F009360A3602E30184017E06E1018099
:101090000A6A096A086A076A12000A2803E0D88007
:1010A00009321200D890093202E101821200018651
:1010B00012000E360F3602E3018C017E06E1018834
:1010C0000F6A0E6A0D6A0C6A12000F2803E0D880BE
:0E10D0000E321200D8900E32EAE1018A1200B0
:0210DE0000010F
:1010E000C56BC66BC76BC86BC96BCA6BCB91CB8327
:1010F000CB95CB87CB99CB9B1200D9CFE6FFE1CF25
:10110000D9FFE6529D50100B01E0010E1C6E9E505F
:10111000100B01E0010E1C1419E00001CBB314D038
:10112000C651EA6A000FE96E010EEA22EF50AD6E79
:10113000CBB1CB91C507C55101E1CB83C62B780E4E
:10114000C65D01E1C66B01D09D9832D09D50200B49
:1011500001E0010E1C6E9E50200B01E0010E1C14DC
:1011600027E0ABA403D0AE50DF6E22D0ABA205D0F7
:10117000AB98AB88AE50DF6E1BD00001CBA503D07F
:10118000AE50DF6E15D0CBB513D0CB97CA51EA6AFB
:10119000780FE96E010EEA22AECFEFFFC82B780E72
:1011A000C85D01E1CB85CA2B780ECA5D01E1CA6B2F
:1011B000E552E552E7CFD9FF12000001CB51020BF7
:1011C00001E0010E00D012000001CB51080B01E03C
:1011D000010E00D012000001CB51010B00D0120013
:1011E0000001CB51040B01E0010E00D01200D9CF59
:1011F000E6FFE1CFD9FF0001CBB116D09D98C751D2
:10120000EA6A000FE96E010EEA22FE0EDBCFEFFF65
:10121000C52BCB93780EC55D01E1CB81C72B780E32
:10122000C75D01E1C76B9D88E552E7CFD9FF12008A
:10123000D9CFE6FFE1CFD9FF0001CBB516D09D9AFB
:10124000CA51EA6A780FE96E010EEA22FE0EDBCF80
:10125000EFFFC82BCB97780EC85D01E1CB85CA2B79
:10126000780ECA5D01E1CA6B9D8AE552E7CFD9FFCE
:101270001200D9CFE6FFE1CFD9FF0001CBA302D006
:10128000000E1FD09D98CB91C651EA6A000FE96EFF
:10129000010EEA22EF50E66EFD0EDBCFE9FFFE0EF7
:1012A000DBCFEAFFE552E750EF6EC507C55101E11C
:1012B000CB83C62B780EC65D01E1C66B9D88010EFF
:1012C00000D0E552E7CFD9FF1200D9CFE6FFE1CF3A
:1012D000D9FF0001CBA702D0000E1FD09D9ACB955D
:1012E000C951EA6A780FE96E010EEA22EF50E66E04
:1012F000FD0EDBCFE9FFFE0EDBCFEAFFE552E75044
:10130000EF6EC807C85101E1CB87C92B780EC95DC4
:1013100001E1C96B9D8A010E00D0E552E7CFD9FFEC
:021320001200B9
:0E1322000BD80ED811D850D83ED8936A010EC1
:101330008A6EF36EF46A00D01200700ED36E9B8C2E
:101340001200D08EF28CF28E1200D9CFE6FFE1CFE0
:10135000D9FF020EE126440EDE6EDD6AAC6AAB6A8E
:10136000AB88AC84B886AC9AAB9EDF50AF6EDECF54
:101370001CF0DDCF1DF01DC01CF01D6A1C50B06EAE
:10138000AC8AAB8E949C948E9E9A9D8A9F8A9E98DE
:101390009D889F88020EE15C02E2E16AE552E16EFF
:1013A000E552E7CFD9FF1200120EE66E22EC0BF0E9
:1013B000E552180EE66EFC0EE66E06EC0BF0E552FA
:1013C000E552F294F194F29A120092809282928401
:1013D00092860B0EE66E040EE66EAB0EE66E7CECAD
:0A13E0000AF0E552E552E552120052
:0613EA001E0EF66E000E5F
:1013F000F76E000EF86E00010900F550C06F09008D
:10140000F550C16F03E1C06701D03DD00900F55030
:10141000BB6F0900F550BC6F0900F550BD6F0900A6
:101420000900F550E96E0900F550EA6E090009005F
:101430000900F550BE6F0900F550BF6F09000900A3
:10144000F6CFC2F0F7CFC3F0F8CFC4F0BBC0F6FFC1
:10145000BCC0F7FFBDC0F8FF0001BE5302E1BF539F
:1014600007E00900F550EE6EBE07F8E2BF07F9D7B6
:10147000C2C0F6FFC3C0F7FFC4C0F8FF0001C00739
:08148000000EC15BBFD7120092
:0814880006500B02F3CF02F045
:10149000F4CF03F00C02F3500326000EF420046E88
:1014A00006500D02F3500426000EF420056E06507F
:1014B0000E02F350052607500B02F3500326F4509A
:1014C0000422000E052207500C02F3500426F450AB
:1014D000052207500D02F350052608500B02F35069
:1014E0000426F450052208500C02F350052609503A
:0814F0000B02F3500526120067
:0814F800D9CFE6FFDACFE6FFD1
:10150000E1CFD9FFE2CFDAFFC26AC06AFC0EDB404E
:101510007F0B3C0BC26EFB0EDBCFE6FFFC0EDB3815
:10152000F00B300BE552E710C16EFD0EDB50040DE1
:10153000F350380B1D6EFD0EDB380F0B070B1C6EC6
:10154000FD0EDB50800B1C101D10C06EFC0EDBAEC0
:1015500003D09E9C9D8CF28CC280E552E5CFDAFFD1
:06156000E7CFD9FF1200E5
:0A1566000D0A005253542041525266
:1015700041590A0D00525354204152524159202DD5
:1015800020424F520A0D00525354204152524159A9
:10159000202D20504F520A0D0052535420415252D8
:1015A0004159202D204D434C520A0D0052535420D6
:1015B0004152524159202D205744540A0D00307891
:0415C0000030620095
:0C15C400056A046A036A026A200EE76EE2
:1015D000D890063607360836093602360336043602
:1015E00005360B50025C0C5003580D5004580E5039
:1015F000055809E30B50025E0C50035A0D50045A73
:0C1600000E50055A062AE72EE4D712000F
:04160C00D9CFE6FF4D
:10161000DACFE6FFE1CFD9FFE2CFDAFFE652E652BA
:10162000FC0EDBCFDEFFDBCFDDFF010EDB50D76E24
:10163000DF50D66EE552E552E552E5CFDAFFE7CF4F
:04164000D9FF1200BC
:0C164400D9CFE6FFDACFE6FFE1CFD9FFF7
:10165000E2CFDAFFFD0EDB507F0BD56ED76AD66A7C
:10166000F294FD0EDBAE02D0F28A01D0F29AD58E52
:0C167000E552E5CFDAFFE7CFD9FF12000A
:04167C00D9CFE6FFDD
:10168000DACFE6FFE1CFD9FFE2CFDAFFFD0EDB4094
:101690007F0B3C0B1C6EC30EC2141C10C26EC282A8
:0C16A000E552E5CFDAFFE7CFD9FF1200DA
:0416AC00FF0EE350FA
:1016B000216EEF0E01D0F30EE76EE72E5DEF0BF01B
:1016C0000C0E206EE76AE72E63EF0BF0202E62EF20
:0A16D0000BF0212E5BEF0BF012006F
:0616DA00D9CFE6FFDACFD4
:1016E000E6FFE1CFD9FFE2CFDAFFC30EC2141C6ED2
:1016F000FD0EDB407F0B3C0B1C10C26EE552E5CFAC
:08170000DAFFE7CFD9FF120068
:08170800056A046A100EE76E89
:10171000D89008360936043605360D50045C0E5054
:10172000055805E30D50045E0E50055A082AE72EB1
:04173000F0D71200DC
:0C173400D0A20FD0D0A40CD0D0A009D0BF
:10174000D0A6000CD0A8000CFCBE000CFCBC000C09
:08175000010C000C000C000C60
:081758001CEE00F02CEE00F085
:10176000F86A019CF5EC09F003EC00F03AEC01F0AA
:04177000FBD7120091
:0C177400056A080EE76ED89009360536AD
:101780000E50055C02E3056E092AE72EF7D712001A
:10179000D0A209D0D0A406D0D0A003D0D0B6000CDF
:0817A000010C000C000C000C10
:0817A800D0B209D0D0A406D094
:1017B000D0B003D0D0A6000C010C000C000C000C23
:1017C000C4501F6E1E6AC3501E10F36E1FC0F4FF7C
:0217D000120005
:0E17D20000EE00F00D0EEE6AEA62FDD7120086
:0C17E000D0B003D0D0A2000C010C000C13
:0417EC00D082D08057
:0217F0001200E5
:0417F200C28212009D
:0A17F60030313233343536373839DC
:061800004142434445464D
:071806000000000000000AD1
:03180D00000000D8
:1018100000000000000000000000000000000000C8
:101820000000000000000000000000878F979F006C
:1018300000001E00140028881300000000000000B3
:0318400000230082
:020000040030CA
:0100010008F6
:010002001FDE
:010003001FDD
:010005008278
:00000001FF
