:020000040000FA
:060000000BEF03F01200FB
:020006001200E6
:0600080041EF01F01200BF
:02000E000D0AD9
:0700100000307800306200AF
:06001800B6EF01F012003A
:02001E000200DE
:100020006C0600009A000000060000005C0600005C
:08003000800000001000000038
:080038009EAA02D0010E02D0C5
:10004000000E00D01200D9CFE6FFE1CFD9FFE65273
:10005000AE50DF6EDF5000D0E552E552E7CFD9FF5A
:100060001200D9CFE6FFE1CFD9FFFE0EDB50AD6E17
:10007000ACA2FED7E552E7CFD9FF1200D9CFE6FFF9
:10008000E1CFD9FFFD0EDBCFF6FFFE0EDBCFF7FF92
:100090000800F550E66EE5DFE552FD0EDBCFF6FF1A
:1000A000DB2AFE0EDBCFF7FF01E3DB2A0800F55069
:1000B000E9E1E552E7CFD9FF1200D9CFE6FFE1CF62
:1000C000D9FF020EE126DE52800EDD6E140EE66EC2
:1000D000000EE66ED3DFE552E552DF6A080EDF5C04
:1000E0001AE2010EDBCFE6FFFE0EDB50E552E7140D
:1000F00005E0310EE66EB5DFE55204D0300EE66E57
:10010000B0DFE552010EDBCFF3FFF390F342F3CF04
:10011000DBFFDF2AE3D7020EE15C02E2E16AE5528F
:10012000E16EE552E7CFD9FF1200D9CFE6FFE1CF6C
:10013000D9FFE652FE0EDB50DF6E640E106E10C06B
:100140000CF0DFCF07F019EC03F007500DE0640E60
:10015000106E10C00CF0DFCF07F019EC03F0075061
:10016000300FE66E7EDFE552640E106E10C00CF0AC
:10017000DFCF07F019EC03F00750640DF350DF5C9C
:10018000DF6E0A0E106E10C00CF0DFCF07F019EC16
:1001900003F007500DE00A0E106E10C00CF0DFCF18
:1001A00007F019EC03F00750300FE66E5ADFE55206
:1001B0000A0E106E10C00CF0DFCF07F019EC03F040
:1001C00007500A0DF350DF5CDF6E300EDF24E66E61
:1001D00048DFE552E552E552E7CFD9FF1200D9CF0B
:1001E000E6FFE1CFD9FF020EE126110EE66E000E0A
:1001F000E66E44DFE552E552FD0EDBCF10F0FE0E59
:10020000DBCF11F0040ED89011321032E804FBE17C
:100210000F0E1016000E111610C0DEFF11C0DDFF0C
:10022000DECFE9FFDDCFEAFF800EE926000EEA22ED
:10023000EF50E66E16DFE5520F0EE76EFD0EDBCFD8
:1002400010F0FE0EDBCF11F0E7501016116A10C04F
:10025000DEFF11C0DDFFDECFE9FFDDCFEAFF800E5C
:10026000E926000EEA22EF50E66EFBDEE552020EB2
:10027000E15C02E2E16AE552E16EE552E7CFD9FFC7
:0202800012006A
:0E028200DACFE4FFE2CFDAFFE9CFE4FFEACF04
:10029000E4FFF6CFE4FFF7CFE4FFF5CFE4FFF3CFC1
:1002A000E4FFF4CFE4FFFACFE4FF00EE00F0100E1D
:1002B000E80403E3EECFE4FFFBD700EE10F0020EFC
:1002C000E80403E3EECFE4FFFBD7E652D9CFE6FF25
:1002D000E1CFD9FFE6529EA620D0C7A40AD0F9EC00
:1002E00001F0000905E138EC02F0DF6EDF50C96E65
:1002F00012D0C7AA0ED0C7A00BD0C950DF6E07EC32
:1003000002F0000905E1DFCFE6FF13EC02F0E55251
:1003100002D0C950DF6E9E9601D0A196E552E552FB
:10032000E7CFD9FFE55200EE11F0020EE80403E337
:10033000E5CFEDFFFBD700EE0FF0100EE80403E36E
:10034000E5CFEDFFFBD7E5CFFAFFE5CFF4FFE5CF33
:10035000F3FFE5CFF5FFE5CFF7FFE5CFF6FFE5CFFC
:10036000EAFFE5CFE9FFE5CFDAFF1100D8CFE4FFE0
:10037000E0CFE4FFE46EDACFE4FFE2CFDAFFE6524B
:10038000E552E5CFDAFFE550E5CFE0FFE5CFD8FF56
:100390001000D9CFE6FFE1CFD9FFE6524EEC02F0D4
:1003A0000E0EE66E000EE66E3EEC00F0E552E552F3
:1003B0003E0EE66E31EC00F0E552F9EC01F000097A
:1003C00012E138EC02F0DF6EDFCFE6FFE66AEFEC19
:1003D00000F0E552E5520E0EE66E000EE66E3EECC3
:1003E00000F0E552E552E9D7E552E552E7CFD9FFF3
:0203F0001200F9
:0E03F20000019B3504E29A510008000E9B5555
:1004000003E2000E03D002D0010E00D01200000162
:100410001F0E9A1901E19B5103E1010E03D002D096
:10042000000E00D01200D9CFE6FFE1CFD9FF0001C6
:100430001F0E9A1901E19B5117E0600E9E25E96E8F
:10044000000E9F21EA6EFE0EDBCFEFFF1F0E9E19FE
:1004500001E19F5103E19E6B9F6B03D09E2B000E29
:100460009F239A2B000E9B23E552E7CFD9FF120062
:10047000C0DF000912E100019A07000E9B5B9C2B74
:100480009D239CC0E9FF9DC0EAFFE906EA5A600E81
:0C049000E926000EEA22EF5000D0120016
:04049C000AD810D892
:1004A0000BD825D8936A010E8A6EF36EF46A00D0D9
:1004B0001200700ED36E1200D08EF28CF28E1200EB
:1004C000800EE66E080EE66EF0EC02F0E552E552A4
:1004D0001B0EC86E800EE66E060EE66EF0EC02F0A5
:1004E000E552E552100EC86E9E969D861200D9CF39
:1004F000E6FFE1CFD9FF020EE126190EDE6EDD6ABE
:10050000AC6AAB6AAB88AC849E989D9A9E9A9D9883
:10051000DF50AF6EDECF10F0DDCF11F011C010F064
:10052000116A1050B06EAC8AAB8E949C948E020E01
:10053000E15C02E2E16AE552E16EE552E7CFD9FF04
:020540001200A7
:0E0542001E0EF66E000EF76E000EF86E000133
:100550000900F550956F0900F550966F03E1956716
:1005600001D03DD00900F550906F0900F550916F12
:100570000900F550926F09000900F550E96E090075
:10058000F550EA6E090009000900F550936F090063
:10059000F550946F09000900F6CF97F0F7CF98F067
:1005A000F8CF99F090C0F6FF91C0F7FF92C0F8FF26
:1005B0000001935302E1945307E00900F550EE6EF9
:1005C0009307F8E29407F9D797C0F6FF98C0F7FFB2
:1005D00099C0F8FF00019507000E965BBFD7120087
:1005E000D9CFE6FFDACFE6FFE1CFD9FFE2CFDAFFDE
:1005F0003F0EC716C66AC56AFD0EDB50C612FC0E5A
:10060000DB50C71294869488C68AE552E5CFDAFF9C
:06061000E7CFD9FF120044
:0A0616001CEE00F02CEE00F0F86A74
:100620000F9CA1EC02F003EC00F0C9EC01F0FBD749
:020630001200B6
:0E063200036A080EE76ED890073603360C50A8
:0E064000035C02E3036E072AE72EF7D71200D1
:02064E0000EEBC
:0C06500000F00D0EEE6AEA62FDD7120009
:04065C0030313233D4
:0C066000343536373839414243444546B2
:04066C00000000008A
:02067000000088
:020000040030CA
:0100010008F6
:010003001EDE
:0100050002F8
:00000001FF
