:020000040000FA
:06000000DAEF07F0120028
:020006001200E6
:0600080068EF03F0120096
:02000E000000F0
:0400100000000000EC
:06001800DDEF03F0120011
:02001E000200DE
:100020000E000000A700000006000000FA0F00000C
:08003000800000001000000038
:080038009EAA02D0010E02D0C5
:10004000000E00D01200D9CFE6FFE1CFD9FFE65273
:10005000AE50DF6EDF5000D0E552E552E7CFD9FF5A
:100060001200D9CFE6FFE1CFD9FFFE0EDB50AD6E17
:10007000ACA2FED7E552E7CFD9FF1200D9CFE6FFF9
:10008000E1CFD9FFFD0EDBCFF6FFFE0EDBCFF7FF92
:100090000800F550E66EE5DFE552FD0EDBCFF6FF1A
:1000A000DB2AFE0EDBCFF7FF01E3DB2A0800F55069
:1000B000E9E1E552E7CFD9FF1200D9CFE6FFE1CF62
:1000C000D9FF020EE126DE52800EDD6EB00EE66E26
:1000D0000F0EE66ED3DFE552E552DF6A080EDF5CF5
:1000E0001AE2010EDBCFE6FFFE0EDB50E552E7140D
:1000F00005E0310EE66EB5DFE55204D0300EE66E57
:10010000B0DFE552010EDBCFF3FFF390F342F3CF04
:10011000DBFFDF2AE3D7020EE15C02E2E16AE5528F
:10012000E16EE552E7CFD9FF1200D9CFE6FFE1CF6C
:10013000D9FF030EE126010EDB6A800EF36E020E7C
:10014000F3CFDBFFB00EE66E0F0EE66E97DFE552E3
:10015000E552DF6A100EDF5C2AE2010EDBCF12F0FF
:10016000020EDBCF13F0FD0EDB501214106EFE0EEC
:10017000DB501314116E1050111005E0310EE66EB5
:1001800070DFE55204D0300EE66E6BDFE552D950D9
:10019000010FE96EDACFEAFF010E0F0B06E0EC5219
:1001A000D890ED32EF32E806FAE1DF2AD3D7030E1A
:1001B000E15C02E2E16AE552E16EE552E7CFD9FF88
:1001C0001200D9CFE6FFE1CFD9FFE652FE0EDB5099
:1001D000DF6E640E106E10C00CF0DFCF07F0E8EC9D
:1001E00007F007500DE0640E106E10C00CF0DFCF6A
:1001F00007F0E8EC07F00750300FE66E32DFE5520B
:10020000640E106E10C00CF0DFCF07F0E8EC07F0C2
:100210000750640DF350DF5CDF6E0A0E106E10C0E5
:100220000CF0DFCF07F0E8EC07F007500DE00A0E06
:10023000106E10C00CF0DFCF07F0E8EC07F00750AD
:10024000300FE66E0EDFE5520A0E106E10C00CF095
:10025000DFCF07F0E8EC07F007500A0DF350DF5C42
:10026000DF6E300EDF24E66EFCDEE552E552E5522D
:10027000E7CFD9FF1200D9CFE6FFE1CFD9FF020EB9
:10028000E126FD0EDBCFDEFFDBCFDDFFDECF10F0A2
:10029000DDCF11F0100E0B6E270E0C6E10C006F0A5
:1002A00011C007F0B5EC07F006C010F007C011F060
:1002B0001050111017E0DECF10F0DDCF11F0100E4E
:1002C0000B6E270E0C6E10C006F011C007F0B5ECD7
:1002D00007F006C010F007C011F0300E1024E66ED3
:1002E000C0DEE552DECF12F0DDCF13F0100E0B6E44
:1002F000270E0C6E12C006F013C007F0B5EC07F025
:1003000006C012F007C013F0100E1302F3CF13F063
:10031000270E1202F3501326100E1202F3CF12F022
:10032000F45013261250DE5C106E1350DD58116E1F
:1003300010C0DEFF11C0DDFFDECF10F0DDCF11F009
:10034000E80E0B6E030E0C6E10C006F011C007F025
:10035000B5EC07F006C010F007C011F010501110F6
:1003600017E0DECF10F0DDCF11F0E80E0B6E030EBC
:100370000C6E10C006F011C007F0B5EC07F006C017
:1003800010F007C011F0300E1024E66E6ADEE55260
:10039000DECF12F0DDCF13F0E80E0B6E030E0C6E05
:1003A00012C006F013C007F0B5EC07F006C012F05B
:1003B00007C013F0E80E1302F3CF13F0030E12027E
:1003C000F3501326E80E1202F3CF12F0F450132666
:1003D0001250DE5C106E1350DD58116E10C0DEFF3F
:1003E00011C0DDFFDECF10F0DDCF11F0640E0B6E1B
:1003F0000C6A10C006F011C007F0B5EC07F006C09B
:1004000010F007C011F01050111016E0DECF10F000
:10041000DDCF11F0640E0B6E0C6A10C006F011C037
:1004200007F0B5EC07F006C010F007C011F0300E71
:100430001024E66E16DEE552DECF12F0DDCF13F0AB
:10044000640E0B6E0C6A12C006F013C007F0B5EC18
:1004500007F006C012F007C013F0640E1302F3CFCA
:1004600013F01202F3CF12F0F45013261250DE5C98
:10047000106E1350DD58116E10C0DEFF11C0DDFF8D
:10048000DECF10F0DDCF11F00A0E0B6E0C6A10C03B
:1004900006F011C007F0B5EC07F006C010F007C079
:1004A00011F01050111016E0DECF10F0DDCF11F07A
:1004B0000A0E0B6E0C6A10C006F011C007F0B5EC06
:1004C00007F006C010F007C011F0300E1024E66EE1
:1004D000C8DDE552DECF12F0DDCF13F00A0E0B6E51
:1004E0000C6A12C006F013C007F0B5EC07F006C0A6
:1004F00012F007C013F00A0E1302F3CF13F012022A
:10050000F3CF12F0F45013261250DE5C106E13502D
:10051000DD58116E10C0DEFF11C0DDFFDECF10F020
:10052000DDCF11F0300E1024E66E9BDDE552020E99
:10053000E15C02E2E16AE552E16EE552E7CFD9FF04
:100540001200D9CFE6FFE1CFD9FF020EE126AD0EB2
:10055000E66E0F0EE66E92DDE552E552FE0EDB38DA
:100560000F0B0F0BDE6EDD6ADECFE9FFDDCFEAFF9A
:10057000800EE926000EEA22EF50E66E72DDE552AB
:10058000FE0EDB500F0BDE6EDD6ADECFE9FFDDCF46
:10059000EAFF800EE926000EEA22EF50E66E61DDEA
:1005A000E552020EE15C02E2E16AE552E16EE552DB
:1005B000E7CFD9FF1200D9CFE6FFE1CFD9FF020E76
:1005C000E126AD0EE66E0F0EE66E58DDE552E55201
:1005D000FD0EDBCF10F0FE0EDBCF11F01138116AEB
:1005E0000F0B106E0F0E1016000E111610C0DEFF4E
:1005F00011C0DDFFDECFE9FFDDCFEAFF800EE92687
:10060000000EEA22EF50E66E2CDDE552FD0EDBCF48
:1006100010F0FE0EDBCF11F011C010F0116A0F0EBA
:100620001016000E111610C0DEFF11C0DDFFDECF68
:10063000E9FFDDCFEAFF800EE926000EEA22EF5047
:10064000E66E0FDDE552FD0EDBCF10F0FE0EDBCFC8
:1006500011F0040ED89011321032E804FBE10F0EB5
:100660001016000E111610C0DEFF11C0DDFFDECF28
:10067000E9FFDDCFEAFF800EE926000EEA22EF5007
:10068000E66EEFDCE5520F0EE76EFD0EDBCF10F0ED
:10069000FE0EDBCF11F0E7501016116A10C0DEFF1E
:1006A00011C0DDFFDECFE9FFDDCFEAFF800EE926D6
:1006B000000EEA22EF50E66ED4DCE552020EE15C59
:1006C00002E2E16AE552E16EE552E7CFD9FF12009E
:1006D000DACFE4FFE2CFDAFFE9CFE4FFEACFE4FFCD
:1006E000F6CFE4FFF7CFE4FFF5CFE4FFF3CFE4FF6D
:1006F000F4CFE4FFFACFE4FF00EE00F0100EE804C0
:1007000003E3EECFE4FFFBD700EE10F0040EE804A5
:1007100003E3EECFE4FFFBD7E652D9CFE6FFE1CF0C
:10072000D9FFE6529EA620D0C7A40AD0A3EC06F0BB
:10073000000905E1E2EC06F0DF6EDF50C96E12D071
:10074000C7AA0ED0C7A00BD0C950DF6EB1EC06F01F
:10075000000905E1DFCFE6FFBDEC06F0E55202D06F
:10076000C950DF6E9E9601D0A196E552E552E7CFC3
:10077000D9FFE55200EE13F0040EE80403E3E5CFE1
:10078000EDFFFBD700EE0FF0100EE80403E3E5CF1A
:10079000EDFFFBD7E5CFFAFFE5CFF4FFE5CFF3FFA1
:1007A000E5CFF5FFE5CFF7FFE5CFF6FFE5CFEAFFB1
:1007B000E5CFE9FFE5CFDAFF1100D8CFE4FFE0CFC6
:1007C000E4FFE46EDACFE4FFE2CFDAFFE652E5526F
:1007D000E5CFDAFFE550E5CFE0FFE5CFD8FF100029
:1007E000D9CFE6FFE1CFD9FF1C0EE76EFD0EDBCFC0
:1007F00010F0FE0EDBCF11F0E75010121050806E9B
:10080000FB0EDB50816E8096809880868088E55252
:10081000E7CFD9FF1200D9CFE6FFE1CFD9FFE652EB
:10082000936A1C0EE76EFD0EDBCF10F0FE0EDBCFE1
:1008300011F0E75010121050806E80948098815013
:10084000DF6E808480889368DF5000D0E552E552E7
:10085000E7CFD9FF1200D9CFE6FFE1CFD9FFC60E0F
:10086000E66EE66A010EE76EFD0EDBCF10F0FE0EBF
:10087000DBCF11F0E7501026000E112210C0E6FF6A
:1008800011C0E6FFADDFE552E552E552E552850EB7
:10089000E66EE66A010EE76EFD0EDBCF10F0FE0E8F
:1008A000DBCF11F0E7501026000E112210C0E6FF3A
:1008B00011C0E6FF95DFE552E552E552E552010E23
:1008C000E66EE66AFD0EDBCFE6FFFE0EDBCFE6FF4F
:1008D00087DFE552E552E552E552010EE66EE66A23
:1008E000020EE76EFD0EDBCF10F0FE0EDBCF11F037
:1008F000E7501026000E112210C0E6FF11C0E6FFDF
:100900006FDFE552E552E552E5529E0EE66EE66A6D
:10091000010EE76EFD0EDBCF10F0FE0EDBCF11F007
:10092000E7501026000E112210C0E6FF11C0E6FFAE
:1009300057DFE552E552E552E552830EE66EE66A70
:10094000010EE76EFD0EDBCF10F0FE0EDBCF11F0D7
:10095000E7501026000E112210C0E6FF11C0E6FF7E
:100960003FDFE552E552E552E552E10EE66EE66AFA
:10097000010EE76EFD0EDBCF10F0FE0EDBCF11F0A7
:10098000E7501026000E112210C0E6FF11C0E6FF4E
:1009900027DFE552E552E552E552A80EE66EE66A1B
:1009A000010EE76EFD0EDBCF10F0FE0EDBCF11F077
:1009B000E7501026000E112210C0E6FF11C0E6FF1E
:1009C0000FDFE552E552E552E552C10EE66EE66AEA
:1009D000010EE76EFD0EDBCF10F0FE0EDBCF11F047
:1009E000E7501026000E112210C0E6FF11C0E6FFEE
:1009F000F7DEE552E552E552E552E552E7CFD9FF81
:100A00001200D9CFE6FFE1CFD9FF810EE66EE66A8C
:100A1000010EE76EFD0EDBCF10F0FE0EDBCF11F006
:100A2000E7501026000E112210C0E6FF11C0E6FFAD
:100A3000D7DEE552E552E552E552FB0EDBCFE9FF8A
:100A4000FC0EDBCFEAFFEECFE6FFEFCFE6FFFD0EB9
:100A5000DBCFE6FFFE0EDBCFE6FFC2DEE552E5525E
:100A6000E552E552020EE76EFB0EDBCFE9FFFC0E0E
:100A7000DBCFEAFFE750E926000EEA22EECFE6FFE1
:100A8000EFCFE6FFFD0EDBCFE6FFFE0EDBCFE6FF8E
:100A9000A7DEE552E552E552E552040EE76EFB0E85
:100AA000DBCFE9FFFC0EDBCFEAFFE750E926000EC3
:100AB000EA22EECFE6FFEFCFE6FFFD0EDBCFE6FF4B
:100AC000FE0EDBCFE6FF8CDEE552E552E552E55245
:100AD000E552E7CFD9FF1200D9CFE6FFE1CFD9FF2A
:100AE000910EE66EE66A010EE76EFD0EDBCF10F0AA
:100AF000FE0EDBCF11F0E7501026000E112210C0C1
:100B0000E6FF11C0E6FF6CDEE552E552E552E55224
:100B1000FD0EDBCFE6FFFE0EDBCFE6FF7CDEE5520F
:100B2000E5520001906F916B800B01E09169FD0E21
:100B3000DBCFE6FFFE0EDBCFE6FF6DDEE552E552D2
:100B40000001926F936B800B01E09369FD0EDBCF88
:100B5000E6FFFE0EDBCFE6FF5EDEE552E55200016A
:100B6000946F956B800B01E09569020EE76EFD0EA8
:100B7000DBCF10F0FE0EDBCF11F0E7501026000E99
:100B8000112210C0E6FF11C0E6FF45DEE552E55236
:100B90000001966F976B800B01E09769020EE76E7C
:100BA000FD0EDBCF10F0FE0EDBCF11F0E75010266C
:100BB000000E112210C0E6FF11C0E6FF2CDEE55248
:100BC000E5520001986F996B800B01E09969020E64
:100BD000E76EFD0EDBCF10F0FE0EDBCF11F0E7501D
:100BE0001026000E112210C0E6FF11C0E6FF13DE32
:100BF000E552E55200019A6F9B6B800B01E09B6907
:100C0000E552E7CFD9FF1200D9CFE6FFE1CFD9FFF8
:100C1000820EE66EE66A010EE76EFD0EDBCF10F087
:100C2000FE0EDBCF11F0E7501026000E112210C08F
:100C3000E6FF11C0E6FFD4DDE552E552E552E5528C
:100C4000E552E7CFD9FF1200D9CFE6FFE1CFD9FFB8
:100C5000030EE1261F0E926E9368F8EC06F0AA0EC2
:100C6000E66E0F0EE66E3EEC00F0E552E5523E0EEB
:100C7000E66E31EC00F0E552000EE66EE66AEBDD62
:100C8000E552E552000EE66EE66A26DFE552E552D1
:100C9000A10EE66E0F0EE66E3EEC00F0E552E55258
:100CA00094C0E6FF5DEC00F0E55292C0E6FF5DEC1B
:100CB00000F0E55290C0E6FF5DEC00F0E5529F0EBB
:100CC000E66E31EC00F0E552960EE66E0F0EE66E23
:100CD0003EEC00F0E552E5529AC0E6FF5DEC00F014
:100CE000E55298C0E6FF5DEC00F0E55296C0E6FFE5
:100CF0005DEC00F0E5529F0EE66E31EC00F0E5523F
:100D0000010EDB6A020EDB6A010EDBCF10F0020E71
:100D1000DBCF11F0D890115004E6200E105C4E0E7F
:100D2000115806E2010EDB2A020E01E3DB2AECD7A2
:100D3000A9D7030EE15C02E2E16AE552E16EE552F9
:060D4000E7CFD9FF12000D
:0A0D46000001A83504E2A7510008DF
:100D5000000EA85503E2000E03D002D0010E00D011
:100D6000120000011F0EA71901E1A85103E1010EB5
:100D700003D002D0000E00D01200D9CFE6FFE1CFA1
:100D8000D9FF00011F0EA71901E1A85117E0600E5D
:100D9000AB25E96E000EAC21EA6EFE0EDBCFEFFF55
:100DA0001F0EAB1901E1AC5103E1AB6BAC6B03D08F
:100DB000AB2B000EAC23A72B000EA823E552E7CFE8
:100DC000D9FF1200C0DF000912E10001A707000EE1
:100DD000A85BA92BAA23A9C0E9FFAAC0EAFFE906DC
:100DE000EA5A600EE926000EEA22EF5000D0120007
:100DF0000AD810D80BD825D8936A010E8A6EF36EE4
:100E0000F46A00D01200700ED36E1200D08EF28CF5
:100E1000F28E1200800EE66E080EE66E9AEC07F077
:100E2000E552E5521B0EC86E800EE66E060EE66EAB
:100E30009AEC07F0E552E552100EC86E9E969D861C
:100E40001200D9CFE6FFE1CFD9FF020EE126190E3D
:100E5000DE6EDD6AAC6AAB6AAB88AC849E989D9A04
:100E60009E9A9D98DF50AF6EDECF10F0DDCF11F06F
:100E700011C010F0116A1050B06EAC8AAB8E949C09
:100E8000948E020EE15C02E2E16AE552E16EE55207
:060E9000E7CFD9FF1200BC
:0A0E96001E0EF66E000EF76E000E41
:100EA000F86E00010900F550A26F0900F550A36F1C
:100EB00003E1A26701D03DD00900F5509D6F090004
:100EC000F5509E6F0900F5509F6F09000900F5501D
:100ED000E96E0900F550EA6E090009000900F550B5
:100EE000A06F0900F550A16F09000900F6CFA4F02A
:100EF000F7CFA5F0F8CFA6F09DC0F6FF9EC0F7FF94
:100F00009FC0F8FF0001A05302E1A15307E00900D0
:100F1000F550EE6EA007F8E2A107F9D7A4C0F6FFDE
:100F2000A5C0F7FFA6C0F8FF0001A207000EA35B53
:040F3000BFD7120015
:0C0F3400D9CFE6FFDACFE6FFE1CFD9FF0E
:100F4000E2CFDAFF3F0EC716C66AC56AFD0EDB5058
:100F5000C612FC0EDB50C71294869488C68AE552EE
:0A0F6000E5CFDAFFE7CFD9FF12005A
:060F6A00036A026A100E8A
:100F7000E76ED89006360736023603360B50025C11
:100F80000C50035805E30B50025E0C50035A062A1E
:060F9000E72EF0D712006D
:0A0F96005920636F756E740A000A9B
:100FA000005820636F756E740A000D0A00307800D7
:030FB000306200AC
:0C0FB4001CEE00F02CEE00F0F86A0F9C20
:100FC0004BEC07F003EC00F024EC06F0FBD712002A
:100FD000036A080EE76ED890073603360C50035CA0
:0C0FE00002E3036E072AE72EF7D7120089
:040FEC0000EE00F023
:0A0FF0000D0EEE6AEA62FDD7120052
:060FFA00303132333435C2
:0A1000003637383941424344454673
:020000040030CA
:0100010008F6
:010003001EDE
:010005008278
:00000001FF
