:020000040000FA
:0600000061EF0AF012009E
:020006001200E6
:0600080068EF03F0120096
:02000E000D0AD9
:0700100000307800306200AF
:06001800DDEF03F0120011
:02001E000200DE
:1000200018150000B30000000600000008150000CD
:0800300099000000100000001F
:080038009EAA02D0010E02D0C5
:10004000000E00D01200D9CFE6FFE1CFD9FFE65273
:10005000AE50DF6EDF5000D0E552E552E7CFD9FF5A
:100060001200D9CFE6FFE1CFD9FFFE0EDB50AD6E17
:10007000ACA2FED7E552E7CFD9FF1200D9CFE6FFF9
:10008000E1CFD9FFFD0EDBCFF6FFFE0EDBCFF7FF92
:100090000800F550E66EE5DFE552FD0EDBCFF6FF1A
:1000A000DB2AFE0EDBCFF7FF01E3DB2A0800F55069
:1000B000E9E1E552E7CFD9FF1200D9CFE6FFE1CF62
:1000C000D9FF020EE126DE52800EDD6E140EE66EC2
:1000D000000EE66ED3DFE552E552DF6A080EDF5C04
:1000E0001AE2010EDBCFE6FFFE0EDB50E552E7140D
:1000F00005E0310EE66EB5DFE55204D0300EE66E57
:10010000B0DFE552010EDBCFF3FFF390F342F3CF04
:10011000DBFFDF2AE3D7020EE15C02E2E16AE5528F
:10012000E16EE552E7CFD9FF1200D9CFE6FFE1CF6C
:10013000D9FF030EE126010EDB6A800EF36E020E7C
:10014000F3CFDBFF140EE66E000EE66E97DFE5528E
:10015000E552DF6A100EDF5C2AE2010EDBCF16F0FB
:10016000020EDBCF17F0FD0EDB501614146EFE0EE0
:10017000DB501714156E1450151005E0310EE66EA5
:1001800070DFE55204D0300EE66E6BDFE552D950D9
:10019000010FE96EDACFEAFF010E0F0B06E0EC5219
:1001A000D890ED32EF32E806FAE1DF2AD3D7030E1A
:1001B000E15C02E2E16AE552E16EE552E7CFD9FF88
:1001C0001200D9CFE6FFE1CFD9FFE652FE0EDB5099
:1001D000DF6E640E146E14C00EF0DFCF09F06FEC0A
:1001E0000AF009500DE0640E146E14C00EF0DFCF5B
:1001F00009F06FEC0AF00950300FE66E32DFE5527D
:10020000640E146E14C00EF0DFCF09F06FEC0AF02C
:100210000950640DF350DF5CDF6E0A0E146E14C0DB
:100220000EF0DFCF09F06FEC0AF009500DE00A0E76
:10023000146E14C00EF0DFCF09F06FEC0AF0095015
:10024000300FE66E0EDFE5520A0E146E14C00EF08B
:10025000DFCF09F06FEC0AF009500A0DF350DF5CB4
:10026000DF6E300EDF24E66EFCDEE552E552E5522D
:10027000E7CFD9FF1200D9CFE6FFE1CFD9FF020EB9
:10028000E126FD0EDBCFDEFFDBCFDDFFDECF14F09E
:10029000DDCF15F0100E0D6E270E0E6E14C008F097
:1002A00015C009F04BEC0AF008C014F009C015F0B5
:1002B0001450151017E0DECF14F0DDCF15F0100E3E
:1002C0000D6E270E0E6E14C008F015C009F04BEC31
:1002D0000AF008C014F009C015F0300E1424E66EC0
:1002E000C0DEE552DECF16F0DDCF17F0100E0D6E3A
:1002F000270E0E6E16C008F017C009F04BEC0AF07E
:1003000008C016F009C017F0100E1702F3CF17F04F
:10031000270E1602F3501726100E1602F3CF16F012
:10032000F45017261650DE5C146E1750DD58156E0B
:1003300014C0DEFF15C0DDFFDECF14F0DDCF15F0F9
:10034000E80E0D6E030E0E6E14C008F015C009F015
:100350004BEC0AF008C014F009C015F01450151049
:1003600017E0DECF14F0DDCF15F0E80E0D6E030EB2
:100370000E6E14C008F015C009F04BEC0AF008C06E
:1003800014F009C015F0300E1424E66E6ADEE55252
:10039000DECF16F0DDCF17F0E80E0D6E030E0E6EF9
:1003A00016C008F017C009F04BEC0AF008C016F0B0
:1003B00009C017F0E80E1702F3CF17F0030E16026C
:1003C000F3501726E80E1602F3CF16F0F450172656
:1003D0001650DE5C146E1750DD58156E14C0DEFF2B
:1003E00015C0DDFFDECF14F0DDCF15F0640E0D6E0D
:1003F0000E6A14C008F015C009F04BEC0AF008C0F2
:1004000014F009C015F01450151016E0DECF14F0EA
:10041000DDCF15F0640E0D6E0E6A14C008F015C025
:1004200009F04BEC0AF008C014F009C015F0300ECA
:100430001424E66E16DEE552DECF16F0DDCF17F09F
:10044000640E0D6E0E6A16C008F017C009F04BEC72
:100450000AF008C016F009C017F0640E1702F3CFB7
:1004600017F01602F3CF16F0F45017261650DE5C84
:10047000146E1750DD58156E14C0DEFF15C0DDFF79
:10048000DECF14F0DDCF15F00A0E0D6E0E6A14C02B
:1004900008F015C009F04BEC0AF008C014F009C0D0
:1004A00015F01450151016E0DECF14F0DDCF15F066
:1004B0000A0E0D6E0E6A14C008F015C009F04BEC60
:1004C0000AF008C014F009C015F0300E1424E66ECE
:1004D000C8DDE552DECF16F0DDCF17F00A0E0D6E47
:1004E0000E6A16C008F017C009F04BEC0AF008C0FD
:1004F00016F009C017F00A0E1702F3CF17F0160214
:10050000F3CF16F0F45017261650DE5C146E175019
:10051000DD58156E14C0DEFF15C0DDFFDECF14F010
:10052000DDCF15F0300E1424E66E9BDDE552020E91
:10053000E15C02E2E16AE552E16EE552E7CFD9FF04
:100540001200D9CFE6FFE1CFD9FF020EE126110E4E
:10055000E66E000EE66E92DDE552E552FE0EDB38E9
:100560000F0B0F0BDE6EDD6ADECFE9FFDDCFEAFF9A
:10057000990EE926000EEA22EF50E66E72DDE55292
:10058000FE0EDB500F0BDE6EDD6ADECFE9FFDDCF46
:10059000EAFF990EE926000EEA22EF50E66E61DDD1
:1005A000E552020EE15C02E2E16AE552E16EE552DB
:1005B000E7CFD9FF1200D9CFE6FFE1CFD9FF020E76
:1005C000E126110EE66E000EE66E58DDE552E552AC
:1005D000FD0EDBCF14F0FE0EDBCF15F01538156ADB
:1005E0000F0B146E0F0E1416000E151614C0DEFF3E
:1005F00015C0DDFFDECFE9FFDDCFEAFF990EE9266A
:10060000000EEA22EF50E66E2CDDE552FD0EDBCF48
:1006100014F0FE0EDBCF15F015C014F0156A0F0EA6
:100620001416000E151614C0DEFF15C0DDFFDECF58
:10063000E9FFDDCFEAFF990EE926000EEA22EF502E
:10064000E66E0FDDE552FD0EDBCF14F0FE0EDBCFC4
:1006500015F0040ED89015321432E804FBE10F0EA9
:100660001416000E151614C0DEFF15C0DDFFDECF18
:10067000E9FFDDCFEAFF990EE926000EEA22EF50EE
:10068000E66EEFDCE5520F0EE76EFD0EDBCF14F0E9
:10069000FE0EDBCF15F0E7501416156A14C0DEFF0E
:1006A00015C0DDFFDECFE9FFDDCFEAFF990EE926B9
:1006B000000EEA22EF50E66ED4DCE552020EE15C59
:1006C00002E2E16AE552E16EE552E7CFD9FF12009E
:1006D000DACFE4FFE2CFDAFFE9CFE4FFEACFE4FFCD
:1006E000F6CFE4FFF7CFE4FFF5CFE4FFF3CFE4FF6D
:1006F000F4CFE4FFFACFE4FF00EE00F0140EE804BC
:1007000003E3EECFE4FFFBD700EE14F0080EE8049D
:1007100003E3EECFE4FFFBD7E652D9CFE6FFE1CF0C
:10072000D9FFE6529EA620D0C7A40AD04BEC08F011
:10073000000905E18AEC08F0DF6EDF50C96E12D0C7
:10074000C7AA0ED0C7A00BD0C950DF6E59EC08F075
:10075000000905E1DFCFE6FF65EC08F0E55202D0C5
:10076000C950DF6E9E9601D0A196E552E552E7CFC3
:10077000D9FFE55200EE1BF0080EE80403E3E5CFD5
:10078000EDFFFBD700EE13F0140EE80403E3E5CF12
:10079000EDFFFBD7E5CFFAFFE5CFF4FFE5CFF3FFA1
:1007A000E5CFF5FFE5CFF7FFE5CFF6FFE5CFEAFFB1
:1007B000E5CFE9FFE5CFDAFF1100D8CFE4FFE0CFC6
:1007C000E4FFE46EDACFE4FFE2CFDAFFE652E5526F
:1007D000E5CFDAFFE550E5CFE0FFE5CFD8FF100029
:1007E000D9CFE6FFE1CFD9FFE652A0EC08F00E0E1C
:1007F000E66E000EE66E3EEC00F0E552E5523E0E6F
:10080000E66E31EC00F0E552100EE66EFDEC09F0FC
:10081000E552100EE66E66EC09F0E5529280928287
:1008200092849286010EC26E0D0EC16EA90EC06E2C
:10083000090EE66E34EC0AF0E5520001806B816B24
:10084000826B836B00018E6B8F6B640E00018FAF28
:1008500002D0D89003D08E5D000E8F5936E2C2844C
:10086000C286C282C2B2FED7C3500001906F916BA4
:10087000C40402E10001912B020EC45C03E1020EEC
:1008800000019127030EC45C03E1030E00019127D0
:1008900090C014F091C015F0166A176A15AE02D018
:1008A0001668176814500001802715500001812335
:1008B000165000018223175000018323000000001E
:1008C00000018E2B000E8F23C0D780C006F081C0A0
:1008D00007F082C008F083C009F0640E0B6E0C6A4A
:1008E0000D6A0E6AFBEC06F006C088F007C089F0BE
:1008F0000001926B936B0001946B956B966B976BF9
:10090000000EE66EE66AC5EC09F0E552E55200011C
:100910008E6B8F6B0001846B856B866B876B000E13
:10092000E66EE66AE1EC09F0E552E552A6EC09F064
:10093000F3CF14F0F4CF15F0E80E145C030E155845
:1009400034E2C282C2B2FED7C3500001906F916BF5
:10095000C40402E10001912B020EC45C03E1020E0B
:1009600000019127030EC45C03E1030E00019127EF
:1009700090C014F091C015F0166A176A15AE02D037
:10098000166817681450000184271550000185234C
:100990001650000186231750000187230000000035
:1009A00000018E2B000E8F23C1D78EC014F08FC094
:1009B00015F0166A176A15AE02D01668176884C05B
:1009C00006F085C007F086C008F087C009F014C0A3
:1009D0000BF015C00CF016C00DF017C00EF0FBECBC
:1009E00006F006C08AF007C08BF0000188510001B4
:1009F0008A5D00018C6F0001895100018B59000153
:100A00008D6F00018D3504E28C510108000E8D556B
:100A100009E30001D8808D5104E7FF0E8C5DFF0EC5
:100A20008D5942E28CC008F08DC009F0FEEC05F053
:100A300007C018F008C019F009C01AF00AC01BF06E
:100A4000710E0C6EBD0E0D6E530E0E6E430E0F6EBC
:100A500018C007F019C008F01AC009F01BC00AF04E
:100A6000A8EC06F007C014F008C015F009C016F095
:100A70000AC017F014C00CF015C00DF016C00EF02F
:100A800017C00FF094C007F095C008F096C009F0A9
:100A900097C00AF012EC06F007C094F008C095F079
:100AA00009C096F00AC097F087EC09F0F3CF14F074
:100AB000F4CF15F0880ED8801454130E155401E3AA
:100AC00085D00C6A0D6A800E0E6E3F0E0F6E94C0BC
:100AD00007F095C008F096C009F097C00AF05EECE8
:100AE00007F0010A12E00C6A0D6A800E0E6EBF0E4E
:100AF0000F6E94C007F095C008F096C009F097C03B
:100B00000AF067EC07F0010A00E194C007F095C015
:100B100008F096C009F097C00AF02FEC07F00850D3
:100B2000000192270950000193230001800E9315C4
:100B300007E0680E00019227010E0001932311D0F7
:100B40000001933504E292516808010E935509E2C1
:100B500092C092F093C093F00001680E925F010E74
:100B6000935B94C007F095C008F096C009F097C059
:100B70000AF02FEC07F0FEEC05F007C014F008C0F7
:100B800015F009C016F00AC017F014C00CF015C01B
:100B90000DF016C00EF017C00FF094C007F095C00E
:100BA00008F096C009F097C00AF011EC06F007C0F3
:100BB00094F008C095F009C096F00AC097F0000EB6
:100BC000E66EE66AC5EC09F0E552E55292C0E6FF32
:100BD00093C0E6FF3BEC01F0E552E5520E0EE66EE7
:100BE000000EE66E3EEC00F0E552E55290D6E5527E
:080BF000E552E7CFD9FF120026
:080BF800019E08D0019E09AE28
:100C000005D0086C091EE86A0922018E09C003F0AC
:100C100008C002F0136A126A8E0E046E056AE1EFD4
:100C200007F00F7E016A1DEC08F035EC08F001B604
:100C3000C5EF07F001A20AD001AA03D001BEC5EF9B
:100C400007F001A4D1EF07F0CEEF07F001AA05D01D
:100C500001ACD1EF07F0CEEF07F001A00AD001A858
:100C600008D001BE04D001A402D0DAEF07F0DEEF15
:100C700007F0126A056A0F500A5C116E10E307C094
:100C800013F008C002F009C003F00AC010F00CC055
:100C900007F00DC008F00EC009F0013A09D00CC0F1
:100CA00013F00DC002F00EC003F00FC010F0116C75
:100CB000019E01BC018E10C004F001B00DEF08F0E0
:100CC0001A0E11600DEF08F0046A0A6A01A408D038
:100CD000076C081E091E0A1EE86A082209220A2259
:100CE00001AC08D0136C021E031E041EE86A022227
:100CF00003220422066A115207E00A34093208323C
:100D000007320632112EF9D7075013260850022257
:100D1000095003220A50042206C012F0019E04AEBC
:100D20000BD0126C131E021E031E041EE86A13224F
:100D3000022203220422018E04A006D0D8800332AE
:100D4000023213321232102A10C004F0E1EF07F021
:100D5000016A1DEC08F035EC08F001B6C5EF07F0AC
:100D600001A205D001BAC5EF07F0CCEF07F001BA38
:100D7000D8EF07F001A005D001B8C5EF07F0D8EF14
:100D800007F001B8CCEF07F0056A7F0E0A24046E65
:100D9000E86A05220F50045EE86A055A1A0E106EC2
:100DA0000A6A126A136A026A036A0C50075E0D50DF
:100DB000085A0E50095A000E0A5A09E70C50072625
:100DC0000D5008220E500922000E0A2201D0128A6C
:100DD000D8900736083609360A36D89012361336B8
:100DE00002360336102EE1D7095008100710D8A498
:100DF000128AE1EF07F0006AE86A0EAE08EF07F02A
:100E00000B6C0C1E0D1E0E1E0C220D220E22001E3F
:100E100009AE13EF07F0066C071E081E091E072215
:100E200008220922001E42EC09F009BE2AEF07F051
:100E300000AE000C066C071E081E091EE86A072299
:100E400008220922026C031E041E051E032204222E
:100E50000522000C00BE1AEF07F00188FF0C016AA2
:100E60001DEC08F001B639EF07F001A20ED001B475
:100E700005D07F0E096EFF0E086E1FD0800E096E22
:100E8000086A1BD0096A086A18D001B0FBD78F0E18
:100E90000A60EDD77E0E0A64F5D78E0E0A5C05E077
:100EA000D890093208320A2AF8D701A406D0086C73
:100EB000091EE86A092209AEE5D7120070EC07F0B6
:100EC00001B6000C01B0000C01B4000C010C70EC78
:100ED00007F001B6000C01B0000C01A4000C010CDD
:100EE000016A1DEC08F035EC08F001B6120001AE05
:100EF00008D001A004D001A802D001801200019006
:100F000012000F500A5C0BE10E50095C08E10D5015
:100F1000085C05E10C50075C02E101801200D8A0DA
:100F200002D0018E10D00A500FC00AF00F6E095087
:100F30000EC009F00E6E08500DC008F00D6E07507F
:100F40000CC007F00C6E0F500A5C10E0FF0F09E0B8
:100F5000019001B403D001AE0184120001AE0194EE
:100F600012000F2AD8900E320D320C320C50075E50
:100F70000D50085A0E50095A09BEEAD7D8900736C4
:100F8000083609360A2EF8D7C8D77F0E0A6EFF0E2C
:100F9000096E086E076E12007F0E01BEFF0E0A6E0C
:100FA00002D07F0E0A6E800E096E086A076AF3D7B8
:100FB00001AE04D0800E0A6E096AF7D70A6A096A80
:100FC000F4D70350021013101210F8E005BEF0D74A
:100FD00003BE0CD004500510EBE0D8901236133647
:100FE000023603360406D8A00506F2D70550D4E130
:100FF0000428D2E012AE11D07F0E121402E113A029
:101000000CD0132AE86A0222032207E3D8800332B5
:1010100002321332042A0428BFE00450C9E013C08E
:1010200007F002C008F00334096E04300A6E09327A
:101030000A9E01BE0A8ECBEF07F009360A3602E39C
:101040000184017E06E101800A6A096A086A076A6A
:1010500012000A2803E0D88009321200D890093221
:1010600002E101821200018612000E360F3602E301
:10107000018C017E06E101880F6A0E6A0D6A0C6A16
:1010800012000F2803E0D8800E321200D8900E32E2
:06109000EAE1018A1200F2
:0A1096000001B43504E2B351000874
:1010A000000EB45503E2000E03D002D0010E00D0B2
:1010B000120000011F0EB31901E1B45103E1010E4A
:1010C00003D002D0000E00D01200D9CFE6FFE1CF4E
:1010D000D9FF00011F0EB31901E1B45117E0600EF2
:1010E000B725E96E000EB821EA6EFE0EDBCFEFFFEA
:1010F0001F0EB71901E1B85103E1B76BB86B03D00C
:10110000B72B000EB823B32B000EB423E552E7CF64
:10111000D9FF1200C0DF000912E10001B307000E81
:10112000B45BB52BB623B5C0E9FFB6C0EAFFE9064C
:10113000EA5A600EE926000EEA22EF5000D01200B3
:101140000AD810D80BD825D8936A010E8A6EF36E90
:10115000F46A00D01200700ED36E1200D08EF28CA2
:10116000F28E1200800EE66E080EE66E19EC0AF0A2
:10117000E552E5521B0EC86E800EE66E060EE66E58
:1011800019EC0AF0E552E552100EC86E9E969D8647
:101190001200D9CFE6FFE1CFD9FF020EE126190EEA
:1011A000DE6EDD6AAC6AAB6AAB88AC849E989D9AB1
:1011B0009E9A9D98DF50AF6EDECF14F0DDCF15F014
:1011C00015C014F0156A1450B06EAC8AAB8E949CA6
:1011D000948E020EE15C02E2E16AE552E16EE552B4
:0611E000E7CFD9FF120069
:0A11E6001E0EF66E000EF76E000EEE
:1011F000F86E00010900F550AE6F0900F550AF6FB1
:1012000003E1AE6701D03DD00900F550A96F090098
:10121000F550AA6F0900F550AB6F09000900F550B1
:10122000E96E0900F550EA6E090009000900F55061
:10123000AC6F0900F550AD6F09000900F6CFB0F0B2
:10124000F7CFB1F0F8CFB2F0A9C0F6FFAAC0F7FF10
:10125000ABC0F8FF0001AC5302E1AD5307E0090059
:10126000F550EE6EAC07F8E2AD07F9D7B0C0F6FF67
:10127000B1C0F7FFB2C0F8FF0001AE07000EAF5BD0
:04128000BFD71200C2
:0C128400056A046A036A026A200EE76E25
:10129000D890063607360836093602360336043645
:1012A00005360B50025C0C5003580D5004580E507C
:1012B000055809E30B50025E0C50035A0D50045AB6
:0C12C0000E50055A062AE72EE4D7120053
:0412CC00D9CFE6FF91
:1012D000DACFE6FFE1CFD9FFE2CFDAFFFD0EDB5038
:1012E0007E0BCD6EFD0EDBAC02D0CD8E01D0CD9E3F
:1012F000CF6ACE6A9E90DBAE02D09D8001D09D90D9
:0E130000CD80E552E5CFDAFFE7CFD9FF12002E
:02130E00D9CF35
:10131000E6FFDACFE6FFE1CFD9FFE2CFDAFFE65210
:10132000E652CE50DF6E010ECFCFDBFFDECF14F0E2
:10133000DDCF15F014C0F3FF15C0F4FFE552E55200
:0C134000E552E5CFDAFFE7CFD9FF12003D
:04134C00D9CFE6FF10
:10135000DACFE6FFE1CFD9FFE2CFDAFFE652E6527D
:10136000D650DF6E010ED7CFDBFFDECF14F0DDCF1E
:1013700015F014C0F3FF15C0F4FFE552E552E55235
:0A138000E5CFDAFFE7CFD9FF120036
:06138A00D9CFE6FFDACF27
:10139000E6FFE1CFD9FFE2CFDAFFE652E652FC0EDC
:1013A000DBCFDEFFDBCFDDFF010EDB50CF6EDF508A
:1013B000CE6EE552E552E552E5CFDAFFE7CFD9FF31
:0213C000120019
:0E13C200D9CFE6FFDACFE6FFE1CFD9FFE2CFC9
:1013D000DAFFE652E652FC0EDBCFDEFFDBCFDDFFAD
:1013E000010EDB50D76EDF50D66EE552E552E55266
:0A13F000E5CFDAFFE7CFD9FF1200C6
:0613FA00D9CFE6FFDACFB7
:10140000E6FFE1CFD9FFE2CFDAFFFD0EDB507F0B25
:10141000D56ED76AD66AF294FD0EDBAE02D0F28AA0
:1014200001D0F29AD58EE552E5CFDAFFE7CFD9FFAA
:021430001200A8
:0E143200D9CFE6FFDACFE6FFE1CFD9FFE2CF58
:10144000DAFF3F0EC716C66AC56AFD0EDB50C6122C
:10145000FC0EDB50C71294869488C68AE552E5CF0D
:08146000DAFFE7CFD9FF12000B
:08146800FF0EE3501D6EEF0EB4
:1014700001D0F30EE76EE72E3BEF0AF00C0E1C6E68
:10148000E76AE72E41EF0AF01C2E40EF0AF01D2E0E
:0614900039EF0AF0120022
:0A149600056A046A100EE76ED89094
:1014A00008360936043605360D50045C0E500558D2
:1014B00005E30D50045E0E50055A082AE72EF0D7BA
:0214C000120018
:0E14C2001CEE00F02CEE00F0F86A019CF3EC3A
:0E14D00008F003EC00F0F0EC03F0FBD7120084
:0214DE00056A9D
:1014E000080EE76ED890093605360E50055C02E30B
:0A14F000056E092AE72EF7D7120057
:0614FA0000EE00F00D0EF3
:08150000EE6AEA62FDD7120059
:0815080030313233343536373F
:081510003839414243444546CD
:06151800000000000000CD
:020000040030CA
:0100010008F6
:010003001EDE
:0100050002F8
:00000001FF
