:020000040000FA
:06000000BCEF07F0120046
:020006001200E6
:060008006EEF03F0120090
:02000E000000F0
:0400100000000000EC
:06001800E3EF03F012000B
:02001E000300DD
:10002000E40F000080000000140000000E0000003B
:10003000B900000006000000D40F0000940000008A
:0400400010000000AC
:0C0044009EAA02D0010E02D0000E00D0D7
:100050001200D9CFE6FFE1CFD9FFE652AE50DF6EF6
:10006000DF5000D0E552E552E7CFD9FF1200D9CFDB
:10007000E6FFE1CFD9FFFE0EDB50AD6EACA2FED79E
:10008000E552E7CFD9FF1200D9CFE6FFE1CFD9FF84
:10009000FD0EDBCFF6FFFE0EDBCFF7FF0800F550BD
:1000A000E66EE5DFE552FD0EDBCFF6FFDB2AFE0E46
:1000B000DBCFF7FF01E3DB2A0800F550E9E1E55269
:1000C000E7CFD9FF1200D9CFE6FFE1CFD9FF020E6B
:1000D000E126DE52800EDD6EF60EE66E0C0EE66E4A
:1000E000D3DFE552E552DF6A080EDF5C1AE2010E4B
:1000F000DBCFE6FFFE0EDB50E552E71405E0310EE4
:10010000E66EB5DFE55204D0300EE66EB0DFE552A4
:10011000010EDBCFF3FFF390F342F3CFDBFFDF2AD7
:10012000E3D7020EE15C02E2E16AE552E16EE552DC
:10013000E7CFD9FF1200D9CFE6FFE1CFD9FF030EF9
:10014000E126010EDB6A800EF36E020EF3CFDBFFB9
:10015000F60EE66E0C0EE66E97DFE552E552DF6AAC
:10016000100EDF5C2AE2010EDBCF12F0020EDBCFB5
:1001700013F0FD0EDB501214106EFE0EDB50131444
:10018000116E1050111005E0310EE66E70DFE55271
:1001900004D0300EE66E6BDFE552D950010FE96EE8
:1001A000DACFEAFF010E0F0B06E0EC52D890ED32E9
:1001B000EF32E806FAE1DF2AD3D7030EE15C02E270
:1001C000E16AE552E16EE552E7CFD9FF1200D9CFDF
:1001D000E6FFE1CFD9FFE652FE0EDB50DF6E640E84
:1001E000106E10C00CF0DFCF07F0CAEC07F007501C
:1001F0000DE0640E106E10C00CF0DFCF07F0CAECFB
:1002000007F00750300FE66E32DFE552640E106ED5
:1002100010C00CF0DFCF07F0CAEC07F00750640DF8
:10022000F350DF5CDF6E0A0E106E10C00CF0DFCFF3
:1002300007F0CAEC07F007500DE00A0E106E10C070
:100240000CF0DFCF07F0CAEC07F00750300FE66E76
:100250000EDFE5520A0E106E10C00CF0DFCF07F073
:10026000CAEC07F007500A0DF350DF5CDF6E300E6A
:10027000DF24E66EFCDEE552E552E552E7CFD9FF1A
:100280001200D9CFE6FFE1CFD9FF020EE126FD0E25
:10029000DBCFDEFFDBCFDDFFDECF10F0DDCF11F0F7
:1002A000100E0B6E270E0C6E10C006F011C007F07A
:1002B000A6EC07F006C010F007C011F010501110A6
:1002C00017E0DECF10F0DDCF11F0100E0B6E270E11
:1002D0000C6E10C006F011C007F0A6EC07F006C0C7
:1002E00010F007C011F0300E1024E66EC0DEE552AB
:1002F000DECF12F0DDCF13F0100E0B6E270E0C6E5A
:1003000012C006F013C007F0A6EC07F006C012F00A
:1003100007C013F0100E1302F3CF13F0270E1202D2
:10032000F3501326100E1202F3CF12F0F4501326DE
:100330001250DE5C106E1350DD58116E10C0DEFFDF
:1003400011C0DDFFDECF10F0DDCF11F0E80E0B6E37
:10035000030E0C6E10C006F011C007F0A6EC07F0FB
:1003600006C010F007C011F01050111017E0DECFDA
:1003700010F0DDCF11F0E80E0B6E030E0C6E10C006
:1003800006F011C007F0A6EC07F006C010F007C099
:1003900011F0300E1024E66E6ADEE552DECF12F068
:1003A000DDCF13F0E80E0B6E030E0C6E12C006F0DC
:1003B00013C007F0A6EC07F006C012F007C013F058
:1003C000E80E1302F3CF13F0030E1202F3501326BC
:1003D000E80E1202F3CF12F0F45013261250DE5C36
:1003E000106E1350DD58116E10C0DEFF11C0DDFF1E
:1003F000DECF10F0DDCF11F0640E0B6E0C6A10C072
:1004000006F011C007F0A6EC07F006C010F007C018
:1004100011F01050111016E0DECF10F0DDCF11F00A
:10042000640E0B6E0C6A10C006F011C007F0A6EC4B
:1004300007F006C010F007C011F0300E1024E66E71
:1004400016DEE552DECF12F0DDCF13F0640E0B6E38
:100450000C6A12C006F013C007F0A6EC07F006C045
:1004600012F007C013F0640E1302F3CF13F0120260
:10047000F3CF12F0F45013261250DE5C106E1350BE
:10048000DD58116E10C0DEFF11C0DDFFDECF10F0B1
:10049000DDCF11F00A0E0B6E0C6A10C006F011C011
:1004A00007F0A6EC07F006C010F007C011F01050DE
:1004B000111016E0DECF10F0DDCF11F00A0E0B6E3A
:1004C0000C6A10C006F011C007F0A6EC07F006C0D9
:1004D00010F007C011F0300E1024E66EC8DDE552B2
:1004E000DECF12F0DDCF13F00A0E0B6E0C6A12C0D5
:1004F00006F013C007F0A6EC07F006C012F007C024
:1005000013F00A0E1302F3CF13F01202F3CF12F01E
:10051000F45013261250DE5C106E1350DD58116E2D
:1005200010C0DEFF11C0DDFFDECF10F0DDCF11F017
:10053000300E1024E66E9BDDE552020EE15C02E215
:10054000E16AE552E16EE552E7CFD9FF1200D9CF5B
:10055000E6FFE1CFD9FF020EE126F30EE66E0C0EA8
:10056000E66E92DDE552E552FE0EDB380F0B0F0B07
:10057000DE6EDD6ADECFE9FFDDCFEAFF940EE9260D
:10058000000EEA22EF50E66E72DDE552FE0EDB5001
:100590000F0BDE6EDD6ADECFE9FFDDCFEAFF940EE2
:1005A000E926000EEA22EF50E66E61DDE552020E0A
:1005B000E15C02E2E16AE552E16EE552E7CFD9FF84
:1005C0001200D9CFE6FFE1CFD9FF020EE126F30EEC
:1005D000E66E0C0EE66E58DDE552E552FD0EDBCF01
:1005E00010F0FE0EDBCF11F01138116A0F0B106EF8
:1005F0000F0E1016000E111610C0DEFF11C0DDFF29
:10060000DECFE9FFDDCFEAFF940EE926000EEA22F5
:10061000EF50E66E2CDDE552FD0EDBCF10F0FE0E46
:10062000DBCF11F011C010F0116A0F0E1016000E82
:10063000111610C0DEFF11C0DDFFDECFE9FFDDCFF8
:10064000EAFF940EE926000EEA22EF50E66E0FDD77
:10065000E552FD0EDBCF10F0FE0EDBCF11F0040EE5
:10066000D89011321032E804FBE10F0E1016000E84
:10067000111610C0DEFF11C0DDFFDECFE9FFDDCFB8
:10068000EAFF940EE926000EEA22EF50E66EEFDC58
:10069000E5520F0EE76EFD0EDBCF10F0FE0EDBCF46
:1006A00011F0E7501016116A10C0DEFF11C0DDFF17
:1006B000DECFE9FFDDCFEAFF940EE926000EEA2245
:1006C000EF50E66ED4DCE552020EE15C02E2E16A34
:0C06D000E552E16EE552E7CFD9FF1200C1
:0406DC00DACFE4FF8E
:1006E000E2CFDAFFE9CFE4FFEACFE4FFF6CFE4FFA1
:1006F000F7CFE4FFF5CFE4FFF3CFE4FFF4CFE4FF5F
:10070000FACFE4FF00EE00F0100EE80403E3EECFB2
:10071000E4FFFBD700EE10F0040EE80403E3EECF95
:10072000E4FFFBD7E652D9CFE6FFE1CFD9FFE6528F
:100730009EA620D0C7A40AD07DEC06F0000905E1F2
:10074000BCEC06F0DF6EDF50C96E12D0C7AA0ED027
:10075000C7A00BD0C950DF6E8BEC06F0000905E195
:10076000DFCFE6FF97EC06F0E55202D0C950DF6E0E
:100770009E9601D0A196E552E552E7CFD9FFE5520A
:1007800000EE13F0040EE80403E3E5CFEDFFFBD722
:1007900000EE0FF0100EE80403E3E5CFEDFFFBD70A
:1007A000E5CFFAFFE5CFF4FFE5CFF3FFE5CFF5FFA7
:1007B000E5CFF7FFE5CFF6FFE5CFEAFFE5CFE9FFAD
:1007C000E5CFDAFF1100D8CFE4FFE0CFE4FFE46E1D
:1007D000DACFE4FFE2CFDAFFE652E552E5CFDAFF07
:1007E000E550E5CFE0FFE5CFD8FF1000D9CFE6FF19
:1007F000E1CFD9FFE652D2EC06F0F00EE66E0C0E19
:10080000E66E44EC00F0E552E5523E0EE66E37EC43
:1008100000F0E552928092829284010EC26E0D0E1B
:10082000C16EA90EC06E0001030E925D000E9359B9
:1008300061E2010EC26EC282C2B2FED7C350000195
:10084000A46FA56BC40401E1A52B020EC45C02E1F8
:10085000020EA527030EC45C02E1030EA527A4C067
:1008600080F0A5C081F0010EE66ED8EC07F0E552ED
:10087000C284C282C2B2FED7C3500001A46FA56B6E
:10088000C40401E1A52B020EC45C02E1020EA527FF
:10089000030EC45C02E1030EA527A4C082F0A5C02C
:1008A00083F0010EE66ED8EC07F0E552C294C286E2
:1008B000C282C2B2FED7C3500001A46FA56BC404AC
:1008C00001E1A52B020EC45C02E1020EA527030E76
:1008D000C45C02E1030EA527A4C084F0A5C085F086
:1008E0000001922B000E9323DE0EE66E8FEC07F0D4
:1008F000E55299D780C086F081C087F082C088F029
:1009000083C089F084C08AF085C08BF0010EC26E6E
:10091000C282C2B2FED7C3500001A46FA56BC4044B
:1009200001E1A52B020EC45C02E1020EA527030E15
:10093000C45C02E1030EA527A4C080F0A5C081F02D
:10094000010EE66ED8EC07F0E552C284C282C2B254
:10095000FED7C3500001A46FA56BC40401E1A52B11
:10096000020EC45C02E1020EA527030EC45C02E184
:10097000030EA527A4C082F0A5C083F0010EE66E89
:10098000D8EC07F0E552C294C286C282C2B2FED74A
:10099000C3500001A46FA56BC40401E1A52B020E96
:1009A000C45C02E1020EA527030EC45C02E1030E43
:1009B000A527A4C084F0A5C085F00001865190252C
:1009C000106E87519121116E1050805D1150815928
:1009D0001CE288519025126E89519121136E12509C
:1009E000825D1350835911E2C80EE66E0C0EE66E5E
:1009F00044EC00F0E552E552F00EE66E0C0EE66EA9
:100A000044EC00F0E552E5525FD08251805D000178
:100A1000AA6F0001835181590001AB6F00018D5114
:100A20000001AB19E8AE02D0AB3507D0AA510001E6
:100A30008C5D0001AB5100018D5911E2A80EE66EEC
:100A40000C0EE66E44EC00F0E552E552F00EE66E58
:100A50000C0EE66E44EC00F0E552E55235D08CC049
:100A600010F08DC011F0106C111E000E112200014B
:100A7000AB511118E8AE02D0113404D01050AA5D69
:100A80001150AB5911E2890EE66E0C0EE66E44EC85
:100A900000F0E552E552F00EE66E0C0EE66E44EC08
:100AA00000F0E552E55210D0650EE66E0C0EE66ED3
:100AB00044EC00F0E552E552F00EE66E0C0EE66EE8
:100AC00044EC00F0E552E55200018A518E25000108
:100AD000A66F00018B518F210001A76F8AC0A8F07B
:100AE0008BC0A9F0050EA85F000EA95B0001845120
:100AF0000001A65D000185510001A75911E23A0EDF
:100B0000E66E0C0EE66E44EC00F0E552E552F00E97
:100B1000E66E0C0EE66E44EC00F0E552E55218D09D
:100B2000A8510001845D0001A9510001855910E21E
:100B3000160EE66E0C0EE66E44EC00F0E552E55241
:100B4000F00EE66E0C0EE66E44EC00F0E552E55257
:100B500080C0E6FF81C0E6FF41EC01F0E552E552BE
:100B6000F00EE66E0C0EE66E44EC00F0E552E55237
:100B700082C0E6FF83C0E6FF41EC01F0E552E5529A
:100B8000F00EE66E0C0EE66E44EC00F0E552E55217
:100B9000F00EE66E0C0EE66E44EC00F0E552E55207
:100BA00086C0E6FF87C0E6FF41EC01F0E552E55262
:100BB000F00EE66E0C0EE66E44EC00F0E552E552E7
:100BC00088C0E6FF89C0E6FF41EC01F0E552E5523E
:100BD000F00EE66E0C0EE66E44EC00F0E552E552C7
:100BE000F00EE66E0C0EE66E44EC00F0E552E552B7
:100BF000AAC0E6FFABC0E6FF41EC01F0E552E552CA
:100C0000630EE66E8FEC07F0E55280D6E552E552B2
:060C1000E7CFD9FF12003E
:0A0C16002A2A2A2A2A2A2A2A2A2A30
:100C20002A2020204552524F522020202A2A2A2AA8
:100C30002A2A2A2A2A2A2A2A2A002A2A2A2A2A2A3E
:100C40002A2A2A2A2A202052656163686564204383
:100C50006F726E6572202A2A2A2A2A2A2A2A2A2AAA
:100C60002A2A2A2A002A2A2A2A2A2A2A2A2A2A2018
:100C7000202044454144204F4E2020202A2A2A2A61
:100C80002A2A2A2A2A2A2A2A002A2A2A2A2A2A2AEE
:100C90002A092020474F20524947485420202A2A19
:100CA0002A2A2A2A2A2A2A002A2A2A2A2A2A2A2ACE
:100CB0002A202020474F204C4546542020202A2A15
:100CC0002A2A2A2A2A2A2A002A2A2A2A2A2A2A2AAE
:100CD00020204E4F20574952452044455445435407
:100CE000454420202A2A2A2A2A2A2A2A2A2A2A006D
:090CF0000D0A00307800306200AA
:060CFA000001BA3504E21E
:100D0000B9510008000EBA5503E2000E03D002D01C
:100D1000010E00D0120000011F0EB91901E1BA51F5
:100D200003E1010E03D002D0000E00D01200D9CF93
:100D3000E6FFE1CFD9FF00011F0EB91901E1BA5159
:100D400017E0600EBD25E96E000EBE21EA6EFE0EB4
:100D5000DBCFEFFF1F0EBD1901E1BE5103E1BD6BFB
:100D6000BE6B03D0BD2B000EBE23B92B000EBA23E1
:100D7000E552E7CFD9FF1200C0DF000912E1000100
:100D8000B907000EBA5BBB2BBC23BBC0E9FFBCC0DC
:100D9000EAFFE906EA5A600EE926000EEA22EF5061
:040DA00000D012006D
:0C0DA4000AD810D80BD825D8936A010E8D
:100DB0008A6EF36EF46A00D01200700ED36E1200C9
:100DC000D08EF28CF28E1200800EE66E080EE66E69
:100DD00074EC07F0E552E5521B0EC86E800EE66E0D
:100DE000060EE66E74EC07F0E552E552100EC86E82
:100DF0009E969D861200D9CFE6FFE1CFD9FF020E65
:100E0000E126190EDE6EDD6AAC6AAB6AAB88AC8493
:100E10009E989D9A9E9A9D98DF50AF6EDECF10F0FF
:100E2000DDCF11F011C010F0116A1050B06EAC8A15
:100E3000AB8E949C948E020EE15C02E2E16AE55274
:0A0E4000E16EE552E7CFD9FF120082
:060E4A001E0EF66E000E04
:100E5000F76E000EF86E00010900F550B46F09003E
:100E6000F550B56F03E1B46701D03DD00900F550EE
:100E7000AF6F0900F550B06F0900F550B16F090070
:100E80000900F550E96E0900F550EA6E0900090005
:100E90000900F550B26F0900F550B36F0900090061
:100EA000F6CFB6F0F7CFB7F0F8CFB8F0AFC0F6FF97
:100EB000B0C0F7FFB1C0F8FF0001B25302E1B35375
:100EC00007E00900F550EE6EB207F8E2B307F9D774
:100ED000B6C0F6FFB7C0F7FFB8C0F8FF0001B4070F
:080EE000000EB55BBFD7120044
:080EE800D9CFE6FFDACFE6FFE7
:100EF000E1CFD9FFE2CFDAFF3F0EC716C66AC56A57
:100F0000FD0EDB50C612FC0EDB50C712948694888F
:0E0F1000C68AE552E5CFDAFFE7CFD9FF12001F
:020F1E00FF0EC4
:100F2000E350156EEF0E01D0F30EE76EE72E96EF4D
:100F300007F00C0E146EE76AE72E9CEF07F0142EF4
:0C0F40009BEF07F0152E94EF07F0120055
:040F4C00036A026AC8
:100F5000100EE76ED89006360736023603360B5071
:100F6000025C0C50035805E30B50025E0C50035A10
:080F7000062AE72EF0D712005B
:080F78001CEE00F02CEE00F06D
:100F8000F86A0F9C25EC07F003EC00F0F6EC03F098
:040F9000FBD7120079
:0C0F9400036A080EE76ED890073603369B
:100FA0000C50035C02E3036E072AE72EF7D712000A
:100FB000FF0EE350E84E1200000000D000D000D039
:060FC000E82EFAD7120032
:0A0FC60000EE00F00D0EEE6AEA6284
:040FD000FDD7120037
:0C0FD40030313233343536373839414281
:040FE00043444546FB
:0C0FE40000000000000000000000000001
:080FF00032001E001400000095
:020000040030CA
:0100010008F6
:010003001EDE
:0100050002F8
:00000001FF
