:020000040000FA
:06000000E3EF07F012001F
:020006001200E6
:060008001DEF03F01200E1
:02000E00D0829E
:04001000D08012008A
:060018006EEF03F0120080
:02001E000300DD
:1000200075100000820000001A0000006E10000031
:10003000A6000000070000005E100000F0010000B4
:0400400010000000AC
:0C0044009EAA02D0010E02D0000E00D0D7
:100050001200D9CFE6FFE1CFD9FFE652AE50DF6EF6
:10006000DF5000D0E552E552E7CFD9FF1200D9CFDB
:10007000E6FFE1CFD9FFFE0EDBCFE6FF16EC06F080
:10008000E552E552E7CFD9FF1200D9CFE6FFE1CF25
:10009000D9FFFD0EDBCFF6FFFE0EDBCFF7FF08002A
:1000A000F550E66EE4DFE552FD0EDB2ADBCFF6FF0E
:1000B000FE0E01E3DB2ADBCFF7FF0800F550E9E194
:1000C000E552E7CFD9FF1200D9CFE6FFE1CFD9FF44
:1000D000020EE126DE52800EDD6E020EE66E0F0E7F
:1000E000E66ED3DFE552E552DF6A080EDF5C1AE206
:1000F000010EDBCFE6FFFE0EDB50E552E71405E014
:10010000310EE66EB4DFE55204D0300EE66EAFDF9E
:10011000E552010EDBCFF3FFF390F342F3CFDBFFA9
:10012000DF2AE3D7020EE15C02E2E16AE552E16E0A
:10013000E552E7CFD9FF1200D9CFE6FFE1CFD9FFD3
:10014000030EE126010EDB6A800EF36E020EF3CF82
:10015000DBFF020EE66E0F0EE66E97DFE552E5520C
:10016000DF6A100EDF5C2AE2010EDBCF12F0020E16
:10017000DBCF13F0FD0EDB501214106EFE0EDB50C1
:100180001314116E1050111005E0310EE66E6FDF82
:10019000E55204D0300EE66E6ADFE552D950010F09
:1001A000E96EDACFEAFF010E0F0B06E0EC52D890B1
:1001B000ED32EF32E806FAE1DF2AD3D7030EE15C35
:1001C00002E2E16AE552E16EE552E7CFD9FF1200A3
:1001D000D9CFE6FFE1CFD9FFE652FE0EDB50DF6E4E
:1001E000640E106E10C00CF0DFCF07F0F1EC07F0DA
:1001F00007500DE0640E106E10C00CF0DFCF07F05A
:10020000F1EC07F00750300FE66E31DFE552640E77
:10021000106E10C00CF0DFCF07F0F1EC07F00750C4
:10022000640DF350DF5CDF6E0A0E106E10C00CF030
:10023000DFCF07F0F1EC07F007500DE00A0E106E6B
:1002400010C00CF0DFCF07F0F1EC07F00750300FD3
:10025000E66E0DDFE5520A0E106E10C00CF0DFCF17
:1002600007F0F1EC07F007500A0DF350DF5CDF6E8A
:10027000300EDF24E66EFBDEE552E552E552E7CFB5
:10028000D9FF1200D9CFE6FFE1CFD9FF020EE12658
:10029000FD0EDBCFDEFFDBCFDDFFDECF10F0DDCFED
:1002A00011F0100E0B6E270E0C6E10C006F011C070
:1002B00007F0BBEC07F006C010F007C011F0300EDD
:1002C0001024E66ED4DEE552DECF12F0DDCF13F05F
:1002D000100E0B6E270E0C6E12C006F013C007F046
:1002E000BBEC07F006C012F007C013F0100E1302AB
:1002F000F3CF13F0270E1202F3501326100E120242
:10030000F3CF12F0F45013261250DE5C106E13502F
:10031000DD58116E10C0DEFF11C0DDFFDECF10F022
:10032000DDCF11F0E80E0B6E030E0C6E10C006F060
:1003300011C007F0BBEC07F006C010F007C011F0C9
:10034000300E1024E66E93DEE552DECF12F0DDCFE4
:1003500013F0E80E0B6E030E0C6E12C006F013C005
:1003600007F0BBEC07F006C012F007C013F0E80E70
:100370001302F3CF13F0030E1202F3501326E80E0C
:100380001202F3CF12F0F45013261250DE5C106EFE
:100390001350DD58116E10C0DEFF11C0DDFFDECF3F
:1003A00010F0DDCF11F0640E0B6E0C6A10C006F079
:1003B00011C007F0BBEC07F006C010F007C011F049
:1003C000300E1024E66E53DEE552DECF12F0DDCFA4
:1003D00013F0640E0B6E0C6A12C006F013C007F027
:1003E000BBEC07F006C012F007C013F0640E130256
:1003F000F3CF13F01202F3CF12F0F4501326125081
:10040000DE5C106E1350DD58116E10C0DEFF11C09F
:10041000DDFFDECF10F0DDCF11F00A0E0B6E0C6A9F
:1004200010C006F011C007F0BBEC07F006C010F0DA
:1004300007C011F0300E1024E66E19DEE552DECF53
:1004400012F0DDCF13F00A0E0B6E0C6A12C006F02C
:1004500013C007F0BBEC07F006C012F007C013F0A2
:100460000A0E1302F3CF13F01202F3CF12F0F4507E
:1004700013261250DE5C106E1350DD58116E10C042
:10048000DEFF11C0DDFFDECF10F0DDCF11F0300E4A
:100490001024E66EECDDE552020EE15C02E2E16A58
:1004A000E552E16EE552E7CFD9FF1200D9CFE6FF62
:1004B000E1CFD9FF020EE126FF0EE66E0E0EE66ECC
:1004C000E4DDE552E552FE0EDB380F0B0F0BDE6E5E
:1004D000DD6ADECFE9FFDDCFEAFFF00EE926010E8F
:1004E000EA22EF50E66EC3DDE552FE0EDB500F0B45
:1004F000DE6EDD6ADECFE9FFDDCFEAFFF00EE92632
:10050000010EEA22EF50E66EB2DDE552020EE15C2A
:1005100002E2E16AE552E16EE552E7CFD9FF12004F
:10052000D9CFE6FFE1CFD9FF020EE126FF0EE66E3E
:100530000E0EE66EAADDE552E552FD0EDBCF10F0A1
:10054000FE0EDBCF11F01138116A0F0B106E0F0E7B
:100550001016000E111610C0DEFF11C0DDFFDECF39
:10056000E9FFDDCFEAFFF00EE926010EEA22EF50A7
:10057000E66E7DDDE552FD0EDBCF10F0FE0EDBCF2B
:1005800011F011C010F0116A0F0E1016000E1116A6
:1005900010C0DEFF11C0DDFFDECFE9FFDDCFEAFFD7
:1005A000F00EE926010EEA22EF50E66E60DDE5521C
:1005B000FD0EDBCF10F0FE0EDBCF11F0040ED89055
:1005C00011321032E804FBE10F0E1016000E111666
:1005D00010C0DEFF11C0DDFFDECFE9FFDDCFEAFF97
:1005E000F00EE926010EEA22EF50E66E40DDE552FC
:1005F0000F0EE76EFD0EDBCF10F0FE0EDBCF11F01D
:10060000E7501016116A10C0DEFF11C0DDFFDECF0B
:10061000E9FFDDCFEAFFF00EE926010EEA22EF50F6
:10062000E66E25DDE552020EE15C02E2E16AE5528A
:0A063000E16EE552E7CFD9FF12009A
:06063A00DACFE4FFE2CF7D
:10064000DAFFE9CFE4FFEACFE4FFF6CFE4FFF7CF2C
:10065000E4FFF5CFE4FFF3CFE4FFF4CFE4FFFACFFC
:10066000E4FF00EE00F0100EE80403E3EECFE4FF39
:10067000FBD700EE10F0040EE80403E3EECFE4FF36
:10068000FBD7E6529E50100B03E19E50200B02E078
:100690009CEC05F0E55200EE13F0040EE80403E3D1
:1006A000E5CFEDFFFBD700EE0FF0100EE80403E3FB
:1006B000E5CFEDFFFBD7E5CFFAFFE5CFF4FFE5CFC0
:1006C000F3FFE5CFF5FFE5CFF7FFE5CFF6FFE5CF89
:1006D000EAFFE5CFE9FFE5CFDAFF1100D8CFE4FF6D
:1006E000E0CFE4FFE46EDACFE4FFE2CFDAFFE652D8
:1006F000E552E5CFDAFFE550E5CFE0FFE5CFD8FFE3
:100700001000B0EC06F08EEC05F00A0EE66EA4ECDC
:1007100007F0E552FFEC07F0000909E0ED0EE66E88
:100720000E0EE66E45EC00F0E552E5522FD0D1EC0E
:1007300007F0000909E0DA0EE66E0E0EE66E45ECF3
:1007400000F0E552E55222D00BEC08F0000909E078
:10075000C80EE66E0E0EE66E45EC00F0E552E55270
:1007600015D029EC08F0000909E0B60EE66E0E0E71
:10077000E66E45EC00F0E552E55208D0AA0EE66EB2
:100780000E0EE66E45EC00F0E552E55207EC00F087
:1007900000019283040003EC06F0000972E10001FD
:1007A00092A114D0810EE66E000EE66E84EC06F087
:1007B000E552E55200018051EA6A600FE96E000ED1
:1007C000EA2281C0EFFF0001802B0CD00001928152
:1007D000810EE66E000EE66E84EC06F0E552E55200
:1007E00081C093F000019351130A39E0010A26E019
:1007F000030A13E0010A0EE0110A07E0010A01E012
:100800003FD0FF00000192913BD000019291000186
:10081000806B36D00001928333D00001010E806FCF
:10082000000180510AE00001605100019295E8B09A
:100830009285000192910001806B22D00001010E8F
:10084000806F000180510AE0000160510001929721
:10085000E8B09287000192910001806B11D00001F5
:10086000010E806F000180510AE00001605100011B
:100870009299E8B09289000192910001806B00D0BA
:100880008AD7000192A303D078D8000192930BD8A5
:10089000000192B5C8D8000192B729D9000192B9D8
:1008A0003CD978D71200D9CFE6FFE1CFD9FFE65285
:1008B000DF6A030EDF5C2DE2C30EC214106EDF5040
:1008C000040DF3503C0B1010C26EC282C2B2FED7B0
:1008D000EA6ADF34FE0BEA36E96E880EE926000E7E
:1008E000EA22C3CFEFFFEA6ADF34FE0BEA36E96E95
:1008F000880EE926000EEA22010EE926000EEA2201
:10090000C4CFEFFF010EE66E17EC08F0E552DF2AC8
:10091000D0D7E552E552E7CFD9FF12001200D9CF68
:10092000E6FFE1CFD9FFFE0EDBCFE6FF16EC06F0C7
:10093000E552E552E7CFD9FF1200D9CFE6FFE1CF6C
:10094000D9FFE652DF6A030EDF5C12E2C30EC21467
:100950000C09C26EC282C2B2FED7C3CF8EF0C4CF22
:100960008FF0DF2ADE0EE66EA4EC07F0E552EBD73F
:10097000E552E552E7CFD9FF1200D9CFE6FFE1CF2C
:10098000D9FF020EE126DF6A030EDF5C42E2010EB0
:10099000DB6A030EF36E010EDBCFF4FFF350F45C61
:1009A00031E2C30EC214106E010EDB50040DF35081
:1009B0003C0B1010C26EC282C2B2FED7010EEA6AB0
:1009C000DB34FE0BEA36E96E820EE926000EEA22DF
:1009D000C3CFEFFF010EEA6ADB34FE0BEA36E96EA5
:1009E000820EE926000EEA22010EE926000EEA2216
:1009F000C4CFEFFF010EE66E17EC08F0E552010ED2
:100A0000DB2AC7D7DF2ADE0EE66E17EC08F0E552C8
:100A1000BBD7020EE15C02E2E16AE552E16EE5520B
:100A2000E7CFD9FF1200D9CFE6FFE1CFD9FF020E01
:100A3000E126DE6ADD6A000182519525106E835140
:100A40009621116E1050885D1150895910E2845121
:100A50009525126E85519621136E12508A5D1350A2
:100A60008B5905E2190EE66E5ADFE55236D08A51EF
:100A7000885D106E89518B55116E10C0DEFF11C05C
:100A8000DDFFDECF10F0DDCF11F098511118E8AE88
:100A900002D0113404D01050975D1150985905E2DE
:100AA000110EE66E3CDFE55218D0DECF10F0DDCF40
:100AB00011F098511118E8AE02D0113404D0105042
:100AC000975D1150985905E2120EE66E28DFE55247
:100AD00004D0130EE66E23DFE552020EE15C02E263
:100AE000E16AE552E16EE552E7CFD9FF120000015D
:100AF0009951116A8625106E875111228C51105C14
:100B00008D51115805E2140EE66E09DFE55204D04E
:0C0B1000150EE66E04DFE5521200120024
:040B1C000001A66BC3
:100B2000A76BA86BA96BAA6BAB6BAC91AC83AC95B4
:100B3000AC87AC99AC9B1200D9CFE6FFE1CFD9FFCF
:100B4000E6529D50100B01E0010E106E9E50100BEE
:100B500001E0010E101419E00001ACB314D0A7514C
:100B6000EA6A000FE96E010EEA22EF50AD6EACB1F9
:100B7000AC91A607A65101E1AC83A72B780EA75D27
:100B800001E1A76B01D09D9832D09D50200B01E070
:100B9000010E106E9E50200B01E0010E101427E094
:100BA000ABA403D0AE50DF6E22D0ABA205D0AB9881
:100BB000AB88AE50DF6E1BD00001ACA503D0AE50A9
:100BC000DF6E15D0ACB513D0AC97AB51EA6A780F95
:100BD000E96E010EEA22AECFEFFFA92B780EA95DD8
:100BE00001E1AC85AB2B780EAB5D01E1AB6BE5525F
:100BF000E552E7CFD9FF12000001AC51020B01E032
:100C0000010E00D012000001AC51080B01E0010EF2
:100C100000D012000001AC51010B00D01200000105
:100C2000AC51040B01E0010E00D01200D9CFE6FF59
:100C3000E1CFD9FF0001ACB116D09D98A851EA6A66
:100C4000000FE96E010EEA22FE0EDBCFEFFFA62BAE
:100C5000AC93780EA65D01E1AC81A82B780EA85D5F
:100C600001E1A86B9D88E552E7CFD9FF1200D9CFEB
:100C7000E6FFE1CFD9FF0001ACB516D09D9AAB518C
:100C8000EA6A780FE96E010EEA22FE0EDBCFEFFF73
:100C9000A92BAC97780EA95D01E1AC85AB2B780E42
:100CA000AB5D01E1AB6B9D8AE552E7CFD9FF120046
:100CB000D9CFE6FFE1CFD9FF0001ACA302D0000EEF
:100CC0001FD09D98AC91A751EA6A000FE96E010E02
:100CD000EA22EF50E66EFD0EDBCFE9FFFE0EDBCF22
:100CE000EAFFE552E750EF6EA607A65101E1AC839B
:100CF000A72B780EA75D01E1A76B9D88010E00D0A0
:100D0000E552E7CFD9FF1200D9CFE6FFE1CFD9FFF7
:100D10000001ACA702D0000E1FD09D9AAC95AA513D
:100D2000EA6A780FE96E010EEA22EF50E66EFD0ED8
:100D3000DBCFE9FFFE0EDBCFEAFFE552E750EF6EB7
:100D4000A907A95101E1AC87AA2B780EAA5D01E1A0
:100D5000AA6B9D8A010E00D0E552E7CFD9FF1200A1
:100D60000BD80DD810D847D83DD8936A010E8A6E9B
:100D7000F36EF46A00D01200700ED36E1200D08EA3
:100D8000F28CF28E1200D9CFE6FFE1CFD9FF020E2E
:100D9000E126100EDE6EDD6AAC6AAB6AAB88AC840D
:100DA000B886AC9AAB9EDF50AF6EDECF10F0DDCFD1
:100DB00011F011C010F0116A1050B06EAC8AAB8EF9
:100DC000949C948E9E9A9D8A9F8A9E989D889F88C7
:100DD000020EE15C02E2E16AE552E16EE552E7CF24
:100DE000D9FF1200950EE66E83EC07F0E5529E9057
:100DF0009F909D8012009280928292849286010E32
:0C0E0000C26E0D0EC16EA90EC06E120075
:040E0C001E0EF66E52
:100E1000000EF76E000EF86E00010900F550A16F8C
:100E20000900F550A26F03E1A16701D03DD0090090
:100E3000F5509C6F0900F5509D6F0900F5509E6FAD
:100E400009000900F550E96E0900F550EA6E090045
:100E500009000900F5509F6F0900F550A06F0900C7
:100E60000900F6CFA3F0F7CFA4F0F8CFA5F09CC00F
:100E7000F6FF9DC0F7FF9EC0F8FF00019F5302E1FF
:100E8000A05307E00900F550EE6E9F07F8E2A007B7
:100E9000F9D7A3C0F6FFA4C0F7FFA5C0F8FF000173
:0A0EA000A107000EA25BBFD71200ED
:060EAA0052535420534591
:100EB00052564F0A0D0052535420534552564F205C
:100EC0002D20424F520A0D00525354205345525682
:100ED0004F202D20504F520A0D005253542053459D
:100EE00052564F202D204D434C520A0D0052535460
:100EF00020534552564F202D205744540A0D0030A0
:050F00007800306200E2
:0A0F0600D9CFE6FFDACFE6FFE1CF16
:100F1000D9FFE2CFDAFFFD0EDB507E0BCD6EFD0E6A
:100F2000DBAC02D0CD8E01D0CD9ECF6ACE6A9E9032
:100F3000DBAE02D09D8001D09D90CD80E552E5CF03
:080F4000DAFFE7CFD9FF120030
:080F4800FF0EE350156EEF0EE1
:100F500001D0F30EE76EE72EABEF07F00C0E146E28
:100F6000E76AE72EB1EF07F0142EB0EF07F0152E69
:060F7000A9EF07F01200DA
:0A0F7600036A026A100EE76ED890BD
:100F800006360736023603360B50025C0C50035807
:100F900005E30B50025E0C50035A062AE72EF0D7E9
:020FA00012003D
:0E0FA200D0A20FD0D0A40CD0D0A009D0D0A6E1
:100FB000000CD0A8000CFCBE000CFCBC000C010C0A
:060FC000000C000C000C07
:0A0FC6001CEE00F02CEE00F0F86ABB
:100FD0000F9C06EC07F003EC00F081EC03F0FBD76C
:020FE0001200FD
:0E0FE200036A080EE76ED890073603360C50EF
:0E0FF000035C02E3036E072AE72EF7D7120018
:020FFE00D0A27F
:1010000009D0D0A406D0D0A003D0D0B6000C010CDB
:06101000000C000C000CB6
:0A101600D0B209D0D0A406D0D0B0AB
:0E10200003D0D0A6000C010C000C000C000C3C
:02102E00FF0EB3
:10103000E350E84E1200000000D000D000D0E82EAF
:04104000FAD71200C9
:0C10440000EE00F00D0EEE6AEA62FDD72F
:0210500012008C
:0C105200D0B003D0D0A2000C010C000CA8
:02105E0030312F
:0E106000323334353637383941424344454641
:02106E00000080
:05107000000000000A71
:0B107500000000000000000000000070
:0F1080000000000000000000140032001E881362
:020000040030CA
:0100010008F6
:010002001FDE
:010003001FDD
:010005008278
:00000001FF
